ARM Linker, 4.1 [Build 791] 

==============================================================================

Image Symbol Table

    Local Symbols

    Symbol Name                              Value     Ov Type        Size  Object(Section)

    /local/mnt/workspace/CRMBuilds/BTFM.RM.4.3.c3-00009-QCABTFMSWPZ-1_20160927_002825/b/btfm_proc/bt/rampatch/bt/platform/coex/build/wcss_ram_edl/cortex-m0/SCAQBAF/6174/MCI/src/patch_PFAL_COEX_MCI.o.i.i 0x00000000   Number         0  patch_PFAL_COEX_MCI.o ABSOLUTE
    /local/mnt/workspace/CRMBuilds/BTFM.RM.4.3.c3-00009-QCABTFMSWPZ-1_20160927_002825/b/btfm_proc/bt/rampatch/bt/platform/pfal/crypto/build/wcss_ram_edl/cortex-m0/SCAQBAF/6174/src/patch_PFAL_LC_CRYPTO_SWI.o.i.i 0x00000000   Number         0  patch_PFAL_LC_CRYPTO_SWI.o ABSOLUTE
    /local/mnt/workspace/CRMBuilds/BTFM.RM.4.3.c3-00009-QCABTFMSWPZ-1_20160927_002825/b/btfm_proc/bt/rampatch/bt/platform/pfal/eeprom/build/wcss_ram_edl/cortex-m0/SCAQBAF/6174/src/patch_PFAL_EEPROM.o.i.i 0x00000000   Number         0  patch_PFAL_EEPROM.o ABSOLUTE
    /local/mnt/workspace/CRMBuilds/BTFM.RM.4.3.c3-00009-QCABTFMSWPZ-1_20160927_002825/b/btfm_proc/bt/rampatch/bt/platform/pfal/gpio/build/wcss_ram_edl/cortex-m0/SCAQBAF/6174/src/patch_PFAL_GPIO_MUX.o.i.i 0x00000000   Number         0  patch_PFAL_GPIO_MUX.o ABSOLUTE
    /local/mnt/workspace/CRMBuilds/BTFM.RM.4.3.c3-00009-QCABTFMSWPZ-1_20160927_002825/b/btfm_proc/bt/rampatch/bt/platform/pfal/lc/build/wcss_ram_edl/cortex-m0/SCAQBAF/6174/src/patch_PFAL_LC.o.i.i 0x00000000   Number         0  patch_PFAL_LC.o ABSOLUTE
    /local/mnt/workspace/CRMBuilds/BTFM.RM.4.3.c3-00009-QCABTFMSWPZ-1_20160927_002825/b/btfm_proc/bt/rampatch/bt/platform/pfal/lc/build/wcss_ram_edl/cortex-m0/SCAQBAF/6174/src/patch_PFAL_LC_State.o.i.i 0x00000000   Number         0  patch_PFAL_LC_State.o ABSOLUTE
    /local/mnt/workspace/CRMBuilds/BTFM.RM.4.3.c3-00009-QCABTFMSWPZ-1_20160927_002825/b/btfm_proc/bt/rampatch/bt/platform/pfal/rm/build/wcss_ram_edl/cortex-m0/SCAQBAF/6174/common/src/patch_PFAL_RM_HW.o.i.i 0x00000000   Number         0  patch_PFAL_RM_HW.o ABSOLUTE
    /local/mnt/workspace/CRMBuilds/BTFM.RM.4.3.c3-00009-QCABTFMSWPZ-1_20160927_002825/b/btfm_proc/bt/rampatch/bt/platform/pfal/sys/build/wcss_ram_edl/cortex-m0/SCAQBAF/6174/6174/src/patch_PFAL_SYS_CLK_EXT.o.i.i 0x00000000   Number         0  patch_PFAL_SYS_CLK_EXT.o ABSOLUTE
    /local/mnt/workspace/CRMBuilds/BTFM.RM.4.3.c3-00009-QCABTFMSWPZ-1_20160927_002825/b/btfm_proc/bt/rampatch/bt/platform/pfal/sys/build/wcss_ram_edl/cortex-m0/SCAQBAF/6174/common/src/patch_PFAL_SYS_EDL.o.i.i 0x00000000   Number         0  patch_PFAL_SYS_EDL.o ABSOLUTE
    /local/mnt/workspace/CRMBuilds/BTFM.RM.4.3.c3-00009-QCABTFMSWPZ-1_20160927_002825/b/btfm_proc/bt/rampatch/build/wcss_ram_edl/cortex-m0/SCAQBAF/6174/rampatch_main.o.i.i 0x00000000   Number         0  rampatch_main.o ABSOLUTE
    ENTRY_POINT                              0x00019b08   Section        0  rampatch_main.o(ENTRY_POINT)
    .text                                    0x00019c74   Section        0  patch_PFAL_COEX_MCI.o(.text)
    .text                                    0x0001a0fc   Section        0  patch_PFAL_RM_HW.o(.text)
    .text                                    0x0001a1c0   Section        0  patch_PFAL_SYS_EDL.o(.text)
    .constdata                               0x0001a2d0   Section       56  rampatch_main.o(.constdata)
    __tagsym$$used                           0x0001a2d0   Number         0  rampatch_main.o(.constdata)
    __tagsym$$used                           0x0001a2dc   Number         0  rampatch_main.o(.constdata)
    __tagsym$$used                           0x0001a2e5   Number         0  rampatch_main.o(.constdata)
    .data                                    0x0002a608   Section        1  patch_PFAL_RM_HW.o(.data)
    .bss                                     0x0002a60c   Section       44  patch_PFAL_COEX_MCI.o(.bss)

    Global Symbols

    Symbol Name                              Value     Ov Type        Size  Object(Section)

    BuildAttributes$$THM_ISAv3M$S$PE$A:L22$X:L11$S22$IEEE1$IW$USESV6$~STKCKD$USESV7$~SHL$OTIME$EBA8$STANDARDLIB$REQ8$PRES8$EABIv2 0x00000000   Number         0  anon$$obj.o ABSOLUTE
    RAM_Vectors                              0x00000000   Data           0  QCA6174_SCAQBAFM.sym ABSOLUTE
    _printf_flags                            0x00000000   Number         0  QCA6174_SCAQBAFM.sym ABSOLUTE
    _printf_return_value                     0x00000000   Number         0  QCA6174_SCAQBAFM.sym ABSOLUTE
    _printf_sizespec                         0x00000000   Number         0  QCA6174_SCAQBAFM.sym ABSOLUTE
    _printf_widthprec                        0x00000000   Number         0  QCA6174_SCAQBAFM.sym ABSOLUTE
    Image$$PATCH_SSRAM$$Length               0x00000001   Number         0  anon$$obj.o ABSOLUTE
    Image$$PATCH_SSRAM$$ZI$$Length           0x0000002c   Number         0  anon$$obj.o ABSOLUTE
    Reset_Handler_Hook                       0x000000c0   Data           0  QCA6174_SCAQBAFM.sym ABSOLUTE
    PFAL_STMR_LastSetTicks                   0x000000c4   Data           0  QCA6174_SCAQBAFM.sym ABSOLUTE
    PFAL_UART_RxDataNeeded                   0x000000c8   Data           0  QCA6174_SCAQBAFM.sym ABSOLUTE
    PFAL_UART_SIBS_TxTimeoutCount            0x000000c9   Data           0  QCA6174_SCAQBAFM.sym ABSOLUTE
    is_uart_running                          0x000000ca   Data           0  QCA6174_SCAQBAFM.sym ABSOLUTE
    PFAL_UART_TxISRActive                    0x000000cb   Data           0  QCA6174_SCAQBAFM.sym ABSOLUTE
    PFAL_UART_RxActive                       0x000000cc   Data           0  QCA6174_SCAQBAFM.sym ABSOLUTE
    PFAL_UART_TxActive                       0x000000cd   Data           0  QCA6174_SCAQBAFM.sym ABSOLUTE
    PFAL_UART_TxPending                      0x000000ce   Data           0  QCA6174_SCAQBAFM.sym ABSOLUTE
    PFAL_UART_ctsSafeMode                    0x000000cf   Data           0  QCA6174_SCAQBAFM.sym ABSOLUTE
    PFAL_UART_TransportOptionsShadowCopy     0x000000d0   Data           0  QCA6174_SCAQBAFM.sym ABSOLUTE
    PFAL_UART_LoggerDataStartBitErr          0x000000d1   Data           0  QCA6174_SCAQBAFM.sym ABSOLUTE
    PFAL_UART_LoggerDataStopBitErr           0x000000d2   Data           0  QCA6174_SCAQBAFM.sym ABSOLUTE
    PFAL_UART_LoggerDataFatalErr             0x000000d3   Data           0  QCA6174_SCAQBAFM.sym ABSOLUTE
    PFAL_UART_LoggerDataPacketIdErr          0x000000d4   Data           0  QCA6174_SCAQBAFM.sym ABSOLUTE
    PFAL_UART_SIBS_TxState                   0x000000d5   Data           0  QCA6174_SCAQBAFM.sym ABSOLUTE
    PFAL_UART_SIBS_RxState                   0x000000d6   Data           0  QCA6174_SCAQBAFM.sym ABSOLUTE
    PFAL_UART_SIBS_timerActive               0x000000d7   Data           0  QCA6174_SCAQBAFM.sym ABSOLUTE
    PFAL_UART_SIBS_txIdleTimerCount          0x000000d8   Data           0  QCA6174_SCAQBAFM.sym ABSOLUTE
    PFAL_UART_SIBS_WakeAckTimerCount         0x000000d9   Data           0  QCA6174_SCAQBAFM.sym ABSOLUTE
    PFAL_UART_CurrentIBRD                    0x000000da   Data           0  QCA6174_SCAQBAFM.sym ABSOLUTE
    PFAL_UART_CurrentFBRD                    0x000000dc   Data           0  QCA6174_SCAQBAFM.sym ABSOLUTE
    PFAL_UART_SIBS_rxWakeTimerCount          0x000000de   Data           0  QCA6174_SCAQBAFM.sym ABSOLUTE
    pos                                      0x000000e0   Data           0  QCA6174_SCAQBAFM.sym ABSOLUTE
    uart_transport                           0x000000e4   Data           0  QCA6174_SCAQBAFM.sym ABSOLUTE
    PFAL_LC_RxProcArqDone                    0x00000100   Data           0  QCA6174_SCAQBAFM.sym ABSOLUTE
    PFAL_LC_coexistenceLowChan               0x00000104   Data           0  QCA6174_SCAQBAFM.sym ABSOLUTE
    PFAL_LC_coexistenceHighChan              0x00000105   Data           0  QCA6174_SCAQBAFM.sym ABSOLUTE
    PFAL_LC_bSynthEnable                     0x00000106   Data           0  QCA6174_SCAQBAFM.sym ABSOLUTE
    PFAL_LC_nHopOffset                       0x00000107   Data           0  QCA6174_SCAQBAFM.sym ABSOLUTE
    PFAL_LC_Rx2_enabled                      0x00000108   Data           0  QCA6174_SCAQBAFM.sym ABSOLUTE
    PFAL_LC_w4_2ndHalfRx                     0x00000109   Data           0  QCA6174_SCAQBAFM.sym ABSOLUTE
    PFAL_LC_TxLinkedListNdx                  0x0000010a   Data           0  QCA6174_SCAQBAFM.sym ABSOLUTE
    PFAL_LC_RxAclLinkedListCount             0x0000010b   Data           0  QCA6174_SCAQBAFM.sym ABSOLUTE
    PFAL_LC_RxAclLinkedListPeekNdx           0x0000010c   Data           0  QCA6174_SCAQBAFM.sym ABSOLUTE
    PFAL_LC_RxAclLinkedList_CleanElementCount 0x0000010d   Data           0  QCA6174_SCAQBAFM.sym ABSOLUTE
    PFAL_LC_loopbackEnable                   0x0000010e   Data           0  QCA6174_SCAQBAFM.sym ABSOLUTE
    PFAL_LC_ExtInqRxFirstHalf                0x0000010f   Data           0  QCA6174_SCAQBAFM.sym ABSOLUTE
    PFAL_LC_AdjustTimingAccuracy             0x00000110   Data           0  QCA6174_SCAQBAFM.sym ABSOLUTE
    PFAL_LC_InitRelOscLPO                    0x00000114   Data           0  QCA6174_SCAQBAFM.sym ABSOLUTE
    pPFAL_LC_burstTable                      0x00000118   Data           0  QCA6174_SCAQBAFM.sym ABSOLUTE
    pPFAL_LC_LE_burstTable                   0x0000011c   Data           0  QCA6174_SCAQBAFM.sym ABSOLUTE
    PFAL_LC_TxLinkedList_NO_OUTPUT           0x00000120   Data           0  QCA6174_SCAQBAFM.sym ABSOLUTE
    PFAL_LC_TxPktHdr                         0x00000124   Data           0  QCA6174_SCAQBAFM.sym ABSOLUTE
    PFAL_LC_TxPyldHdr                        0x00000128   Data           0  QCA6174_SCAQBAFM.sym ABSOLUTE
    PFAL_LC_RxLmpLinkedList                  0x0000012c   Data           0  QCA6174_SCAQBAFM.sym ABSOLUTE
    PFAL_LC_RxControlLinkedList              0x00000134   Data           0  QCA6174_SCAQBAFM.sym ABSOLUTE
    PFAL_LC_TxAclPayloadBuffOffset           0x0000013c   Data           0  QCA6174_SCAQBAFM.sym ABSOLUTE
    PFAL_LC_InqScanExtensions                0x00000140   Data           0  QCA6174_SCAQBAFM.sym ABSOLUTE
    WIP_DBG_EVENT_QUEUE                      0x00000144   Data           0  QCA6174_SCAQBAFM.sym ABSOLUTE
    WIP_DBG_BUFFER_QUEUE                     0x0000014c   Data           0  QCA6174_SCAQBAFM.sym ABSOLUTE
    WIP_DBG_aMemPool                         0x00000154   Data           0  QCA6174_SCAQBAFM.sym ABSOLUTE
    prev_LowerHeapTop                        0x0000015c   Data           0  QCA6174_SCAQBAFM.sym ABSOLUTE
    prev_LowerHeapBottom                     0x00000160   Data           0  QCA6174_SCAQBAFM.sym ABSOLUTE
    prev_UpperHeapPeak                       0x00000164   Data           0  QCA6174_SCAQBAFM.sym ABSOLUTE
    prev_UpperHeapAvail                      0x00000168   Data           0  QCA6174_SCAQBAFM.sym ABSOLUTE
    PF_OS_pHeapBottom                        0x0000016c   Data           0  QCA6174_SCAQBAFM.sym ABSOLUTE
    PF_OS_pHeapTop                           0x00000170   Data           0  QCA6174_SCAQBAFM.sym ABSOLUTE
    PF_OS_pUpperHeapBottom                   0x00000174   Data           0  QCA6174_SCAQBAFM.sym ABSOLUTE
    PF_OS_pUpperHeapTop                      0x00000178   Data           0  QCA6174_SCAQBAFM.sym ABSOLUTE
    gIsNVMUpdated                            0x0000017c   Data           0  QCA6174_SCAQBAFM.sym ABSOLUTE
    PFAL_DBG_VS_Callback                     0x00000180   Data           0  QCA6174_SCAQBAFM.sym ABSOLUTE
    PFAL_DBG_LE_BSCommands                   0x00000184   Data           0  QCA6174_SCAQBAFM.sym ABSOLUTE
    PFAL_DBG_LEAdvPCFCommands                0x00000198   Data           0  QCA6174_SCAQBAFM.sym ABSOLUTE
    OSIntrDisableStack                       0x000001b8   Data           0  QCA6174_SCAQBAFM.sym ABSOLUTE
    OSIntNesting                             0x000001bc   Data           0  QCA6174_SCAQBAFM.sym ABSOLUTE
    OSLockNesting                            0x000001bd   Data           0  QCA6174_SCAQBAFM.sym ABSOLUTE
    OSPrioCur                                0x000001be   Data           0  QCA6174_SCAQBAFM.sym ABSOLUTE
    OSPrioHighRdy                            0x000001bf   Data           0  QCA6174_SCAQBAFM.sym ABSOLUTE
    OSRdyGrp                                 0x000001c0   Data           0  QCA6174_SCAQBAFM.sym ABSOLUTE
    OSRunning                                0x000001c1   Data           0  QCA6174_SCAQBAFM.sym ABSOLUTE
    OSTaskCtr                                0x000001c2   Data           0  QCA6174_SCAQBAFM.sym ABSOLUTE
    OSTickStepState                          0x000001c3   Data           0  QCA6174_SCAQBAFM.sym ABSOLUTE
    OSRdyTbl                                 0x000001c4   Data           0  QCA6174_SCAQBAFM.sym ABSOLUTE
    OSCtxSwCtr                               0x000001c8   Data           0  QCA6174_SCAQBAFM.sym ABSOLUTE
    OSEventFreeList                          0x000001cc   Data           0  QCA6174_SCAQBAFM.sym ABSOLUTE
    OSIdleCtr                                0x000001d0   Data           0  QCA6174_SCAQBAFM.sym ABSOLUTE
    OSTCBCur                                 0x000001d4   Data           0  QCA6174_SCAQBAFM.sym ABSOLUTE
    OSTCBFreeList                            0x000001d8   Data           0  QCA6174_SCAQBAFM.sym ABSOLUTE
    OSTCBHighRdy                             0x000001dc   Data           0  QCA6174_SCAQBAFM.sym ABSOLUTE
    OSTCBList                                0x000001e0   Data           0  QCA6174_SCAQBAFM.sym ABSOLUTE
    OSTime                                   0x000001e4   Data           0  QCA6174_SCAQBAFM.sym ABSOLUTE
    PFAL_RM_PHYRegValid                      0x000001e8   Data           0  QCA6174_SCAQBAFM.sym ABSOLUTE
    coexRequestState                         0x000001e9   Data           0  QCA6174_SCAQBAFM.sym ABSOLUTE
    TX_DC_CAL_IQ_LOOP_DURATION_USEC          0x000001ea   Data           0  QCA6174_SCAQBAFM.sym ABSOLUTE
    coeffCrossTxRsbCal                       0x000001eb   Data           0  QCA6174_SCAQBAFM.sym ABSOLUTE
    PFAL_RM_bTempFilterInit                  0x000001ec   Data           0  QCA6174_SCAQBAFM.sym ABSOLUTE
    PFAL_RM_bTempCodeRead                    0x000001ed   Data           0  QCA6174_SCAQBAFM.sym ABSOLUTE
    PFAL_RM_radioInitEnabled                 0x000001ee   Data           0  QCA6174_SCAQBAFM.sym ABSOLUTE
    PFAL_RM_WCNXO_Config                     0x000001ef   Data           0  QCA6174_SCAQBAFM.sym ABSOLUTE
    PFAL_RM_HW_txCoarseTempIndex             0x000001f0   Data           0  QCA6174_SCAQBAFM.sym ABSOLUTE
    PFAL_RM_HW_txFineTempIndex               0x000001f1   Data           0  QCA6174_SCAQBAFM.sym ABSOLUTE
    PFAL_RM_HW_rxCoarseTempIndex             0x000001f2   Data           0  QCA6174_SCAQBAFM.sym ABSOLUTE
    PFAL_RM_HW_rxFineTempIndex               0x000001f3   Data           0  QCA6174_SCAQBAFM.sym ABSOLUTE
    prev_txCoarseTempIndex                   0x000001f4   Data           0  QCA6174_SCAQBAFM.sym ABSOLUTE
    prev_txFineTempIndex                     0x000001f5   Data           0  QCA6174_SCAQBAFM.sym ABSOLUTE
    prev_rxCoarseTempIndex                   0x000001f6   Data           0  QCA6174_SCAQBAFM.sym ABSOLUTE
    prev_rxFineTempIndex                     0x000001f7   Data           0  QCA6174_SCAQBAFM.sym ABSOLUTE
    gePFAL_RM_HW_SniffTempCalUpdate          0x000001fb   Data           0  QCA6174_SCAQBAFM.sym ABSOLUTE
    PFAL_RM_HW_filteredThermoCode            0x000001fc   Data           0  QCA6174_SCAQBAFM.sym ABSOLUTE
    PFAL_RM_TxPowerLevel                     0x000001fd   Data           0  QCA6174_SCAQBAFM.sym ABSOLUTE
    PFAL_RM_HW_CAL_ERROR_CODE                0x000001fe   Data           0  QCA6174_SCAQBAFM.sym ABSOLUTE
    gCurrentCal                              0x000001ff   Data           0  QCA6174_SCAQBAFM.sym ABSOLUTE
    PFAL_RM_STARTING_POWER_LEVEL_INDEX       0x00000200   Data           0  QCA6174_SCAQBAFM.sym ABSOLUTE
    PFAL_RM_GFSK_MAX_POWER_LEVEL_INDEX       0x00000201   Data           0  QCA6174_SCAQBAFM.sym ABSOLUTE
    PFAL_RM_DQPSK_MAX_POWER_LEVEL_INDEX      0x00000202   Data           0  QCA6174_SCAQBAFM.sym ABSOLUTE
    PFAL_RM_8DPSK_MAX_POWER_LEVEL_INDEX      0x00000203   Data           0  QCA6174_SCAQBAFM.sym ABSOLUTE
    PFAL_RM_DQPSK_MIN_POWER_LEVEL_INDEX      0x00000204   Data           0  QCA6174_SCAQBAFM.sym ABSOLUTE
    PFAL_RM_8DPSK_MIN_POWER_LEVEL_INDEX      0x00000205   Data           0  QCA6174_SCAQBAFM.sym ABSOLUTE
    PFAL_RM_BROADCAST_POWER_LEVEL_INDEX      0x00000206   Data           0  QCA6174_SCAQBAFM.sym ABSOLUTE
    PFAL_RM_CLASS2_FALLBACK_POWER_LEVEL_INDEX 0x00000207   Data           0  QCA6174_SCAQBAFM.sym ABSOLUTE
    PFAL_RM_HW_MOM_CAP_COARSE_CORNER         0x00000208   Data           0  QCA6174_SCAQBAFM.sym ABSOLUTE
    PFAL_RM_HW_MOM_CAP_FINE_CORNER           0x00000209   Data           0  QCA6174_SCAQBAFM.sym ABSOLUTE
    PFAL_RM_HW_TX_NMOS_SVT_CORNER            0x0000020a   Data           0  QCA6174_SCAQBAFM.sym ABSOLUTE
    PFAL_RM_HW_RXRF_ADCRES                   0x0000020b   Data           0  QCA6174_SCAQBAFM.sym ABSOLUTE
    PFAL_RM_txRtmomCal                       0x0000020c   Data           0  QCA6174_SCAQBAFM.sym ABSOLUTE
    PFAL_RM_txNmosSvtCal                     0x0000020d   Data           0  QCA6174_SCAQBAFM.sym ABSOLUTE
    PFAL_RM_txNmosSvtRtmom_0                 0x0000020e   Data           0  QCA6174_SCAQBAFM.sym ABSOLUTE
    PFAL_RM_txNmosSvtRtmom_1                 0x0000020f   Data           0  QCA6174_SCAQBAFM.sym ABSOLUTE
    PFAL_RM_txIQCompCtrl                     0x00000210   Data           0  QCA6174_SCAQBAFM.sym ABSOLUTE
    PFAL_RM_txIQCompC2_8_1                   0x00000211   Data           0  QCA6174_SCAQBAFM.sym ABSOLUTE
    PFAL_RM_HW_txEqCtrl                      0x00000212   Data           0  QCA6174_SCAQBAFM.sym ABSOLUTE
    store_TxLUT_30                           0x00000213   Data           0  QCA6174_SCAQBAFM.sym ABSOLUTE
    coeffCrossTx_RAM                         0x00000214   Data           0  QCA6174_SCAQBAFM.sym ABSOLUTE
    gmGain_RAM                               0x00000215   Data           0  QCA6174_SCAQBAFM.sym ABSOLUTE
    coeffCrossRx_RAM                         0x00000216   Data           0  QCA6174_SCAQBAFM.sym ABSOLUTE
    PFAL_RM_HW_rxIQCorrCoeffCrossGM_0        0x00000217   Data           0  QCA6174_SCAQBAFM.sym ABSOLUTE
    PFAL_RM_HW_rxIQCorrCoeffCrossGM_1        0x00000218   Data           0  QCA6174_SCAQBAFM.sym ABSOLUTE
    PFAL_RM_HW_rxIQCorrCoeffCrossGM_2        0x00000219   Data           0  QCA6174_SCAQBAFM.sym ABSOLUTE
    PFAL_RM_HW_rxIQCorrCoeffCrossGM_3        0x0000021a   Data           0  QCA6174_SCAQBAFM.sym ABSOLUTE
    PFAL_RM_HW_rxIQCorrCoeffCrossGM_4        0x0000021b   Data           0  QCA6174_SCAQBAFM.sym ABSOLUTE
    PFAL_RM_HW_rxIQCorrCoeffCrossGM_5        0x0000021c   Data           0  QCA6174_SCAQBAFM.sym ABSOLUTE
    PFAL_RM_HW_rxIQCorrCoeffCrossGM_6        0x0000021d   Data           0  QCA6174_SCAQBAFM.sym ABSOLUTE
    PFAL_RM_HW_SoftwarePowerCntlReg          0x0000021e   Data           0  QCA6174_SCAQBAFM.sym ABSOLUTE
    PFAL_RM_HW_TxUT_00                       0x0000021f   Data           0  QCA6174_SCAQBAFM.sym ABSOLUTE
    PFAL_RM_HW_TxNmosSvtRtmom_0              0x00000220   Data           0  QCA6174_SCAQBAFM.sym ABSOLUTE
    PFAL_RM_HW_RxAdcTempLut_0                0x00000221   Data           0  QCA6174_SCAQBAFM.sym ABSOLUTE
    PFAL_RM_HW_RxNmosRbiasTempLut_0          0x00000222   Data           0  QCA6174_SCAQBAFM.sym ABSOLUTE
    PFAL_RM_HW_RxDcNotchCtrl                 0x00000223   Data           0  QCA6174_SCAQBAFM.sym ABSOLUTE
    PFAL_RM_HW_RxDcNotchCtrl2                0x00000224   Data           0  QCA6174_SCAQBAFM.sym ABSOLUTE
    PFAL_RM_HW_RxDcNotchTrainPole_14_8       0x00000225   Data           0  QCA6174_SCAQBAFM.sym ABSOLUTE
    PFAL_RM_HW_RxDcNotchTrainPole_7_0        0x00000226   Data           0  QCA6174_SCAQBAFM.sym ABSOLUTE
    PFAL_RM_HW_RxDcNotchTrack_P1_14_8        0x00000227   Data           0  QCA6174_SCAQBAFM.sym ABSOLUTE
    PFAL_RM_HW_RxDcNotchTrack_P1_7_0         0x00000228   Data           0  QCA6174_SCAQBAFM.sym ABSOLUTE
    PFAL_RM_HW_RxDcNotchTrack_P2_14_8        0x00000229   Data           0  QCA6174_SCAQBAFM.sym ABSOLUTE
    PFAL_RM_HW_RxDcNotchTrack_P2_7_0         0x0000022a   Data           0  QCA6174_SCAQBAFM.sym ABSOLUTE
    PFAL_RM_HW_RxDcNotchTrack_P3_14_8        0x0000022b   Data           0  QCA6174_SCAQBAFM.sym ABSOLUTE
    PFAL_RM_HW_RxDcNotchTrack_P3_7_0         0x0000022c   Data           0  QCA6174_SCAQBAFM.sym ABSOLUTE
    PFAL_RM_HW_RxDcNotchTrack_P4_14_8        0x0000022d   Data           0  QCA6174_SCAQBAFM.sym ABSOLUTE
    PFAL_RM_HW_RxDcNotchTrack_P4_7_0         0x0000022e   Data           0  QCA6174_SCAQBAFM.sym ABSOLUTE
    PFAL_RM_HW_RxDcNotchTrack_P5_14_8        0x0000022f   Data           0  QCA6174_SCAQBAFM.sym ABSOLUTE
    PFAL_RM_HW_RxDcNotchTrack_P5_7_0         0x00000230   Data           0  QCA6174_SCAQBAFM.sym ABSOLUTE
    PFAL_RM_HW_RxDcNotchTrainDur             0x00000231   Data           0  QCA6174_SCAQBAFM.sym ABSOLUTE
    PFAL_RM_HW_RxDcNotchTrack_P1_DUR         0x00000232   Data           0  QCA6174_SCAQBAFM.sym ABSOLUTE
    PFAL_RM_HW_RxDcNotchTrack_P2_DUR         0x00000233   Data           0  QCA6174_SCAQBAFM.sym ABSOLUTE
    PFAL_RM_HW_RxDcNotchTrack_P3_DUR         0x00000234   Data           0  QCA6174_SCAQBAFM.sym ABSOLUTE
    PFAL_RM_HW_RxDcNotchTrack_P4_DUR         0x00000235   Data           0  QCA6174_SCAQBAFM.sym ABSOLUTE
    PFAL_RM_HW_RxAgcHighGainCode             0x00000236   Data           0  QCA6174_SCAQBAFM.sym ABSOLUTE
    PFAL_RM_HW_txDaTempLut0                  0x00000237   Data           0  QCA6174_SCAQBAFM.sym ABSOLUTE
    PFAL_RM_HW_txDaTempLut1                  0x00000238   Data           0  QCA6174_SCAQBAFM.sym ABSOLUTE
    PFAL_RM_HW_txTempCal                     0x00000239   Data           0  QCA6174_SCAQBAFM.sym ABSOLUTE
    PFAL_RM_HW_txDaNmosRtmomTempLut0_0       0x0000023a   Data           0  QCA6174_SCAQBAFM.sym ABSOLUTE
    PFAL_RM_HW_txDaNmosRtmomTempLut0_1       0x0000023b   Data           0  QCA6174_SCAQBAFM.sym ABSOLUTE
    PFAL_RM_HW_txDaNmosRtmomTempLut1_0       0x0000023c   Data           0  QCA6174_SCAQBAFM.sym ABSOLUTE
    PFAL_RM_HW_txDaNmosRtmomTempLut1_1       0x0000023d   Data           0  QCA6174_SCAQBAFM.sym ABSOLUTE
    PFAL_RM_HW_tempSignResultTiaRsOffset0    0x0000023e   Data           0  QCA6174_SCAQBAFM.sym ABSOLUTE
    PFAL_RM_HW_tempSignResultTiaRsOffset1    0x0000023f   Data           0  QCA6174_SCAQBAFM.sym ABSOLUTE
    PFAL_RM_HW_tempSignResultTiaCs           0x00000240   Data           0  QCA6174_SCAQBAFM.sym ABSOLUTE
    PFAL_RM_txControl                        0x00000241   Data           0  QCA6174_SCAQBAFM.sym ABSOLUTE
    PFAL_RM_RampGenForce4_en                 0x00000242   Data           0  QCA6174_SCAQBAFM.sym ABSOLUTE
    PFAL_RM_XLNA_GAIN_dB                     0x00000243   Data           0  QCA6174_SCAQBAFM.sym ABSOLUTE
    PFAL_RM_HW_rawTempCode                   0x00000244   Data           0  QCA6174_SCAQBAFM.sym ABSOLUTE
    PFAL_RM_HW_rawTempCodeOffset             0x00000246   Data           0  QCA6174_SCAQBAFM.sym ABSOLUTE
    coeffDiagTxRsbCal                        0x00000248   Data           0  QCA6174_SCAQBAFM.sym ABSOLUTE
    PFAL_RM_HW_filteredTempCodeQ3            0x0000024a   Data           0  QCA6174_SCAQBAFM.sym ABSOLUTE
    PFAL_RM_HW_NMOS_SVT_Code                 0x0000024c   Data           0  QCA6174_SCAQBAFM.sym ABSOLUTE
    PFAL_RM_HW_MOM_CAP_Code                  0x0000024e   Data           0  QCA6174_SCAQBAFM.sym ABSOLUTE
    resCoeffDiagTx_RAM                       0x00000250   Data           0  QCA6174_SCAQBAFM.sym ABSOLUTE
    resCoeffCrossTx_RAM                      0x00000252   Data           0  QCA6174_SCAQBAFM.sym ABSOLUTE
    coeffDiagTx_RAM                          0x00000254   Data           0  QCA6174_SCAQBAFM.sym ABSOLUTE
    coeffDiagRx_RAM                          0x00000256   Data           0  QCA6174_SCAQBAFM.sym ABSOLUTE
    PFAL_RM_HW_rxIQCorrCoeffDiagGM_0_8_0     0x00000258   Data           0  QCA6174_SCAQBAFM.sym ABSOLUTE
    PFAL_RM_HW_rxIQCorrCoeffDiagGM_1_8_0     0x0000025a   Data           0  QCA6174_SCAQBAFM.sym ABSOLUTE
    PFAL_RM_HW_rxIQCorrCoeffDiagGM_2_8_0     0x0000025c   Data           0  QCA6174_SCAQBAFM.sym ABSOLUTE
    PFAL_RM_HW_rxIQCorrCoeffDiagGM_3_8_0     0x0000025e   Data           0  QCA6174_SCAQBAFM.sym ABSOLUTE
    PFAL_RM_HW_rxIQCorrCoeffDiagGM_4_8_0     0x00000260   Data           0  QCA6174_SCAQBAFM.sym ABSOLUTE
    PFAL_RM_HW_rxIQCorrCoeffDiagGM_5_8_0     0x00000262   Data           0  QCA6174_SCAQBAFM.sym ABSOLUTE
    PFAL_RM_HW_rxIQCorrCoeffDiagGM_6_8_0     0x00000264   Data           0  QCA6174_SCAQBAFM.sym ABSOLUTE
    pRM_Reg16_PHY                            0x00000268   Data           0  QCA6174_SCAQBAFM.sym ABSOLUTE
    PFAL_RM_nextTempCodeClkNative            0x0000026c   Data           0  QCA6174_SCAQBAFM.sym ABSOLUTE
    PFAL_RM_channelCalTablePtr               0x00000270   Data           0  QCA6174_SCAQBAFM.sym ABSOLUTE
    gInterruptByWLANCounter                  0x00000274   Data           0  QCA6174_SCAQBAFM.sym ABSOLUTE
    PFAL_RM_pThresholdInputParams            0x00000278   Data           0  QCA6174_SCAQBAFM.sym ABSOLUTE
    PFAL_RM_TX_DC_CAL_GAIN_0_1               0x0000027c   Data           0  QCA6174_SCAQBAFM.sym ABSOLUTE
    PFAL_RM_TX_DC_CAL_GAIN_2_3               0x00000280   Data           0  QCA6174_SCAQBAFM.sym ABSOLUTE
    PFAL_RM_TX_DC_CAL_GAIN_4_5               0x00000284   Data           0  QCA6174_SCAQBAFM.sym ABSOLUTE
    PFAL_RM_TX_DC_CAL_GAIN_6_7               0x00000288   Data           0  QCA6174_SCAQBAFM.sym ABSOLUTE
    PFAL_RM_TX_DC_CAL_GAIN_8_9               0x0000028c   Data           0  QCA6174_SCAQBAFM.sym ABSOLUTE
    PFAL_RM_TX_DC_CAL_GAIN_10_11             0x00000290   Data           0  QCA6174_SCAQBAFM.sym ABSOLUTE
    PFAL_RM_TX_DC_CAL_GAIN_12_13             0x00000294   Data           0  QCA6174_SCAQBAFM.sym ABSOLUTE
    PFAL_RM_TX_DC_CAL_GAIN_14_15             0x00000298   Data           0  QCA6174_SCAQBAFM.sym ABSOLUTE
    rEVEN_RAM                                0x0000029c   Data           0  QCA6174_SCAQBAFM.sym ABSOLUTE
    rODD_RAM                                 0x000002a0   Data           0  QCA6174_SCAQBAFM.sym ABSOLUTE
    power_I_RAM                              0x000002a4   Data           0  QCA6174_SCAQBAFM.sym ABSOLUTE
    power_Q_RAM                              0x000002a8   Data           0  QCA6174_SCAQBAFM.sym ABSOLUTE
    cross_IQ_RAM                             0x000002ac   Data           0  QCA6174_SCAQBAFM.sym ABSOLUTE
    num_RAM                                  0x000002b0   Data           0  QCA6174_SCAQBAFM.sym ABSOLUTE
    denom_RAM                                0x000002b4   Data           0  QCA6174_SCAQBAFM.sym ABSOLUTE
    alphaTx_RAM                              0x000002b8   Data           0  QCA6174_SCAQBAFM.sym ABSOLUTE
    cosAlphaTx_RAM                           0x000002bc   Data           0  QCA6174_SCAQBAFM.sym ABSOLUTE
    alphaRx_RAM                              0x000002c0   Data           0  QCA6174_SCAQBAFM.sym ABSOLUTE
    cosAlphaRx_RAM                           0x000002c4   Data           0  QCA6174_SCAQBAFM.sym ABSOLUTE
    numTmp_RAM                               0x000002c8   Data           0  QCA6174_SCAQBAFM.sym ABSOLUTE
    cmmDen_RAM                               0x000002cc   Data           0  QCA6174_SCAQBAFM.sym ABSOLUTE
    cosSinRatio_RAM                          0x000002d0   Data           0  QCA6174_SCAQBAFM.sym ABSOLUTE
    sinSinRatio_RAM                          0x000002d4   Data           0  QCA6174_SCAQBAFM.sym ABSOLUTE
    invTan_RAM                               0x000002d8   Data           0  QCA6174_SCAQBAFM.sym ABSOLUTE
    deltaR1_RAM                              0x000002dc   Data           0  QCA6174_SCAQBAFM.sym ABSOLUTE
    deltaR2_RAM                              0x000002e0   Data           0  QCA6174_SCAQBAFM.sym ABSOLUTE
    halfDeltaR1_RAM                          0x000002e4   Data           0  QCA6174_SCAQBAFM.sym ABSOLUTE
    firstMult_RAM                            0x000002e8   Data           0  QCA6174_SCAQBAFM.sym ABSOLUTE
    secondMult_RAM                           0x000002ec   Data           0  QCA6174_SCAQBAFM.sym ABSOLUTE
    epson_Tx_RAM                             0x000002f0   Data           0  QCA6174_SCAQBAFM.sym ABSOLUTE
    theta_Tx_RAM                             0x000002f4   Data           0  QCA6174_SCAQBAFM.sym ABSOLUTE
    invTanDelta1_RAM                         0x000002f8   Data           0  QCA6174_SCAQBAFM.sym ABSOLUTE
    invTanDelta2_RAM                         0x000002fc   Data           0  QCA6174_SCAQBAFM.sym ABSOLUTE
    tmp_RAM                                  0x00000300   Data           0  QCA6174_SCAQBAFM.sym ABSOLUTE
    epson_Rx_RAM                             0x00000304   Data           0  QCA6174_SCAQBAFM.sym ABSOLUTE
    doubR2_RAM                               0x00000308   Data           0  QCA6174_SCAQBAFM.sym ABSOLUTE
    theta_Rx_RAM                             0x0000030c   Data           0  QCA6174_SCAQBAFM.sym ABSOLUTE
    PFAL_RM_RX_Get_Normalized_RSSI           0x00000310   Data           0  QCA6174_SCAQBAFM.sym ABSOLUTE
    tempFixed                                0x00000318   Data           0  QCA6174_SCAQBAFM.sym ABSOLUTE
    tempFixed2                               0x00000320   Data           0  QCA6174_SCAQBAFM.sym ABSOLUTE
    resultFixed                              0x00000328   Data           0  QCA6174_SCAQBAFM.sym ABSOLUTE
    TempCalDataTx_Temp_Cal_Table             0x00000330   Data           0  QCA6174_SCAQBAFM.sym ABSOLUTE
    TempCalDataTx_NMOS_RTMOM_Table           0x00000358   Data           0  QCA6174_SCAQBAFM.sym ABSOLUTE
    ExtTempCalDataTx_NMOS_RTMOM_Table        0x0000036c   Data           0  QCA6174_SCAQBAFM.sym ABSOLUTE
    ADC_TEMP_CAL_DATA_RX                     0x00000380   Data           0  QCA6174_SCAQBAFM.sym ABSOLUTE
    RX_NMOS_RBIAS_TEMP_PROCESS_CAL_OFFSET_TABLE 0x000003a8   Data           0  QCA6174_SCAQBAFM.sym ABSOLUTE
    RX_RTMOM_TEMP_PROCESS_CAL_OFFSET_TABLE   0x000003bc   Data           0  QCA6174_SCAQBAFM.sym ABSOLUTE
    metricIntegrationTimeAvg                 0x000003d0   Data           0  QCA6174_SCAQBAFM.sym ABSOLUTE
    PFAL_RM_RMRegOverride                    0x000003e0   Data           0  QCA6174_SCAQBAFM.sym ABSOLUTE
    PFAL_RM_SpurFilterOverride               0x00000490   Data           0  QCA6174_SCAQBAFM.sym ABSOLUTE
    PFAL_RM_pTxPowerCfgRM_Reg                0x000004c8   Data           0  QCA6174_SCAQBAFM.sym ABSOLUTE
    PFAL_RM_HW_EXT_RBIAS_CODE                0x000004cc   Data           0  QCA6174_SCAQBAFM.sym ABSOLUTE
    PFAL_RM_HW_RXBB_TIA_CM_CTRL              0x000004d0   Data           0  QCA6174_SCAQBAFM.sym ABSOLUTE
    PFAL_RM_HW_RXRF_LOAD_CTUNE               0x000004d1   Data           0  QCA6174_SCAQBAFM.sym ABSOLUTE
    PFAL_RM_anaPwrSaveDefault                0x000004d4   Data           0  QCA6174_SCAQBAFM.sym ABSOLUTE
    cal_redo_flag                            0x000004d8   Data           0  QCA6174_SCAQBAFM.sym ABSOLUTE
    cal_redo_cnt                             0x000004d9   Data           0  QCA6174_SCAQBAFM.sym ABSOLUTE
    PFAL_SLEEP_ComparatorIntEnabled          0x000004da   Data           0  QCA6174_SCAQBAFM.sym ABSOLUTE
    PFAL_SLEEP_clkCalLoggerDataReady         0x000004db   Data           0  QCA6174_SCAQBAFM.sym ABSOLUTE
    PFAL_SLEEP_EnableShadowCopy              0x000004dc   Data           0  QCA6174_SCAQBAFM.sym ABSOLUTE
    PFAL_SLEEP_HciWakeSignalISR              0x000004e0   Data           0  QCA6174_SCAQBAFM.sym ABSOLUTE
    PFAL_SLEEP_GpioWakeSignalISR             0x000004e4   Data           0  QCA6174_SCAQBAFM.sym ABSOLUTE
    btclk_last                               0x000004e8   Data           0  QCA6174_SCAQBAFM.sym ABSOLUTE
    cal_val_0                                0x000004ec   Data           0  QCA6174_SCAQBAFM.sym ABSOLUTE
    cal_val_1                                0x000004f0   Data           0  QCA6174_SCAQBAFM.sym ABSOLUTE
    cal_val_2                                0x000004f4   Data           0  QCA6174_SCAQBAFM.sym ABSOLUTE
    cal_val_avg                              0x000004f8   Data           0  QCA6174_SCAQBAFM.sym ABSOLUTE
    PFAL_SLEEP_clkCalTimeout                 0x00000500   Data           0  QCA6174_SCAQBAFM.sym ABSOLUTE
    PFAL_SLEEP_clkComparatorCount            0x00000504   Data           0  QCA6174_SCAQBAFM.sym ABSOLUTE
    PFAL_SLEEP_ComparatorValue               0x00000508   Data           0  QCA6174_SCAQBAFM.sym ABSOLUTE
    bUseRandomAddr                           0x0000050d   Data           0  QCA6174_SCAQBAFM.sym ABSOLUTE
    LeAdvCnt                                 0x00000510   Data           0  QCA6174_SCAQBAFM.sym ABSOLUTE
    RandomSeed                               0x00000514   Data           0  QCA6174_SCAQBAFM.sym ABSOLUTE
    PFAL_SYS_WIP_HOOK                        0x00000518   Data           0  QCA6174_SCAQBAFM.sym ABSOLUTE
    PFAL_SYS_VsHCIReset                      0x0000051c   Data           0  QCA6174_SCAQBAFM.sym ABSOLUTE
    PFAL_SYS_bZeroCacheOnWake                0x00000520   Data           0  QCA6174_SCAQBAFM.sym ABSOLUTE
    PFAL_SYS_pwrModeCurrent                  0x00000521   Data           0  QCA6174_SCAQBAFM.sym ABSOLUTE
    PFAL_SYS_GPIOInputShadowCopy             0x00000524   Data           0  QCA6174_SCAQBAFM.sym ABSOLUTE
    PFAL_SYS_powerModeRequestSemaphore       0x00000528   Data           0  QCA6174_SCAQBAFM.sym ABSOLUTE
    gOwiIntCallback                          0x0000052c   Data           0  QCA6174_SCAQBAFM.sym ABSOLUTE
    gOwiIntParam                             0x00000530   Data           0  QCA6174_SCAQBAFM.sym ABSOLUTE
    PFAL_SYS_RefFrequency                    0x00000534   Data           0  QCA6174_SCAQBAFM.sym ABSOLUTE
    PFAL_SYS_BB_Clock                        0x00000538   Data           0  QCA6174_SCAQBAFM.sym ABSOLUTE
    PFAL_SYS_lppsPktDetCount                 0x0000053c   Data           0  QCA6174_SCAQBAFM.sym ABSOLUTE
    syncDetectStatus                         0x0000053d   Data           0  QCA6174_SCAQBAFM.sym ABSOLUTE
    berStatus                                0x0000053e   Data           0  QCA6174_SCAQBAFM.sym ABSOLUTE
    gbIsTempOffsetOTPBurned                  0x0000053f   Data           0  QCA6174_SCAQBAFM.sym ABSOLUTE
    totalBitErrors                           0x00000540   Data           0  QCA6174_SCAQBAFM.sym ABSOLUTE
    totalSyncDetect                          0x00000542   Data           0  QCA6174_SCAQBAFM.sym ABSOLUTE
    PFAL_SYS_EDL_BERT_TriggerPin             0x00000544   Data           0  QCA6174_SCAQBAFM.sym ABSOLUTE
    PFAL_SYS_EDL_ProdTestStatus              0x00000548   Data           0  QCA6174_SCAQBAFM.sym ABSOLUTE
    PFAL_SYS_EDL_ProdTestResult              0x0000054c   Data           0  QCA6174_SCAQBAFM.sym ABSOLUTE
    DEBUG_BIT0_STORED                        0x00000550   Data           0  QCA6174_SCAQBAFM.sym ABSOLUTE
    DEBUG_BIT1_STORED                        0x00000554   Data           0  QCA6174_SCAQBAFM.sym ABSOLUTE
    pEDL_Data                                0x00000558   Data           0  QCA6174_SCAQBAFM.sym ABSOLUTE
    PFAL_VOICE_State                         0x0000055c   Data           0  QCA6174_SCAQBAFM.sym ABSOLUTE
    LE_Rx_CryptoStatus                       0x00000560   Data           0  QCA6174_SCAQBAFM.sym ABSOLUTE
    PFAL_LC_CRYPTO_pHlr                      0x00000564   Data           0  QCA6174_SCAQBAFM.sym ABSOLUTE
    pCRYPTO_Ram                              0x00000568   Data           0  QCA6174_SCAQBAFM.sym ABSOLUTE
    CryptoErrorFlag                          0x0000056c   Data           0  QCA6174_SCAQBAFM.sym ABSOLUTE
    PFAL_LC_DBCA_Scheduled                   0x00000570   Data           0  QCA6174_SCAQBAFM.sym ABSOLUTE
    PFAL_LC_DataScanScanTO                   0x00000571   Data           0  QCA6174_SCAQBAFM.sym ABSOLUTE
    PFAL_LC_STATE_LE_abortFlag               0x00000572   Data           0  QCA6174_SCAQBAFM.sym ABSOLUTE
    PFAL_LC_hlstPtr                          0x00000578   Data           0  QCA6174_SCAQBAFM.sym ABSOLUTE
    PFAL_LC_LE_saved_RxPktHdrHardAlign       0x0000057c   Data           0  QCA6174_SCAQBAFM.sym ABSOLUTE
    HIF_TaskHandle                           0x00000580   Data           0  QCA6174_SCAQBAFM.sym ABSOLUTE
    LLM_TaskHandle                           0x00000581   Data           0  QCA6174_SCAQBAFM.sym ABSOLUTE
    APP_TaskHandle                           0x00000582   Data           0  QCA6174_SCAQBAFM.sym ABSOLUTE
    MCI_TaskHandle                           0x00000583   Data           0  QCA6174_SCAQBAFM.sym ABSOLUTE
    MWS_TaskHandle                           0x00000584   Data           0  QCA6174_SCAQBAFM.sym ABSOLUTE
    BKGD_TaskHandle                          0x00000585   Data           0  QCA6174_SCAQBAFM.sym ABSOLUTE
    HIF_TimerMask                            0x00000588   Data           0  QCA6174_SCAQBAFM.sym ABSOLUTE
    LLM_TimerMask                            0x0000058c   Data           0  QCA6174_SCAQBAFM.sym ABSOLUTE
    APP_TimerMask                            0x00000590   Data           0  QCA6174_SCAQBAFM.sym ABSOLUTE
    MCI_TimerMask                            0x00000594   Data           0  QCA6174_SCAQBAFM.sym ABSOLUTE
    MWS_TimerMask                            0x00000598   Data           0  QCA6174_SCAQBAFM.sym ABSOLUTE
    BKGD_TimerMask                           0x0000059c   Data           0  QCA6174_SCAQBAFM.sym ABSOLUTE
    PF_DBG_LoggerWaitDuringResetProcessing   0x000005a0   Data           0  QCA6174_SCAQBAFM.sym ABSOLUTE
    PF_DBG_pLoggerData                       0x000005a4   Data           0  QCA6174_SCAQBAFM.sym ABSOLUTE
    PF_DBG_pSavedLogHead                     0x000005a8   Data           0  QCA6174_SCAQBAFM.sym ABSOLUTE
    PF_DBG_pSavedLogTail                     0x000005ac   Data           0  QCA6174_SCAQBAFM.sym ABSOLUTE
    BKGD_State                               0x000005b0   Data           0  QCA6174_SCAQBAFM.sym ABSOLUTE
    BKGD_ActivityCountdownTimer              0x000005b2   Data           0  QCA6174_SCAQBAFM.sym ABSOLUTE
    BKGD_ActivityCountdownTimerReload        0x000005b3   Data           0  QCA6174_SCAQBAFM.sym ABSOLUTE
    BKGD_LoggerCountdownTimer                0x000005b4   Data           0  QCA6174_SCAQBAFM.sym ABSOLUTE
    BKGD_LoggerCountdownTimerReload          0x000005b5   Data           0  QCA6174_SCAQBAFM.sym ABSOLUTE
    BKGD_ActivityPeriod                      0x000005b6   Data           0  QCA6174_SCAQBAFM.sym ABSOLUTE
    BKGD_TimerPeriod                         0x000005b8   Data           0  QCA6174_SCAQBAFM.sym ABSOLUTE
    HCI_largeHciCmdMaxNumber                 0x000005ba   Data           0  QCA6174_SCAQBAFM.sym ABSOLUTE
    HCI_hostSizeSCODataPayload               0x000005bd   Data           0  QCA6174_SCAQBAFM.sym ABSOLUTE
    HCI_hcSizeSCODataPayload                 0x000005be   Data           0  QCA6174_SCAQBAFM.sym ABSOLUTE
    HCI_IsHostBufferSizeSet                  0x000005bf   Data           0  QCA6174_SCAQBAFM.sym ABSOLUTE
    HCI_hostFlowControlEnable                0x000005c0   Data           0  QCA6174_SCAQBAFM.sym ABSOLUTE
    HCI_smallCmdReadyCount                   0x000005c1   Data           0  QCA6174_SCAQBAFM.sym ABSOLUTE
    HCI_largeCmdReadyCount                   0x000005c2   Data           0  QCA6174_SCAQBAFM.sym ABSOLUTE
    HCI_hostTotalNumACLDataPackets           0x000005c4   Data           0  QCA6174_SCAQBAFM.sym ABSOLUTE
    HCI_hostTotalNumSCODataPackets           0x000005c6   Data           0  QCA6174_SCAQBAFM.sym ABSOLUTE
    HCI_TxQueue                              0x000005c8   Data           0  QCA6174_SCAQBAFM.sym ABSOLUTE
    HCI_syncFlowControlEnable                0x000005d0   Data           0  QCA6174_SCAQBAFM.sym ABSOLUTE
    txSeqMode1PktType                        0x000005d2   Data           0  QCA6174_SCAQBAFM.sym ABSOLUTE
    txSeqMode2PktType                        0x00000608   Data           0  QCA6174_SCAQBAFM.sym ABSOLUTE
    txSeqMode3PktType                        0x0000062c   Data           0  QCA6174_SCAQBAFM.sym ABSOLUTE
    SeqTestTxMode                            0x00000640   Data           0  QCA6174_SCAQBAFM.sym ABSOLUTE
    SeqTestEnable                            0x00000641   Data           0  QCA6174_SCAQBAFM.sym ABSOLUTE
    SeqTestLtAddr                            0x00000642   Data           0  QCA6174_SCAQBAFM.sym ABSOLUTE
    SeqRxFirstStateNullPktAligned            0x00000643   Data           0  QCA6174_SCAQBAFM.sym ABSOLUTE
    SeqTestTxIncNullPkt                      0x00000644   Data           0  QCA6174_SCAQBAFM.sym ABSOLUTE
    ProdRxBurstCfgSupport                    0x00000645   Data           0  QCA6174_SCAQBAFM.sym ABSOLUTE
    MaxProdRxBurstPktNum                     0x00000646   Data           0  QCA6174_SCAQBAFM.sym ABSOLUTE
    EPTM_cfgSeqRxState                       0x00000648   Data           0  QCA6174_SCAQBAFM.sym ABSOLUTE
    EPTM_SeqRxPerfStatus                     0x0000064c   Data           0  QCA6174_SCAQBAFM.sym ABSOLUTE
    ProdRxBurstPktRecvNum                    0x00000650   Data           0  QCA6174_SCAQBAFM.sym ABSOLUTE
    txSeqModeInfo                            0x00000654   Data           0  QCA6174_SCAQBAFM.sym ABSOLUTE
    rxSeqPktType                             0x0000066c   Data           0  QCA6174_SCAQBAFM.sym ABSOLUTE
    PF_LC_swNCount                           0x00000678   Data           0  QCA6174_SCAQBAFM.sym ABSOLUTE
    PFAL_TXP_Data                            0x0000067c   Data           0  QCA6174_SCAQBAFM.sym ABSOLUTE
    PF_TXP_Functions                         0x00000680   Data           0  QCA6174_SCAQBAFM.sym ABSOLUTE
    SLC_AFH_InitRandNumSeedSlotCount         0x00000684   Data           0  QCA6174_SCAQBAFM.sym ABSOLUTE
    SLC_AFH_IsChanAssessmentFrameActive      0x00000685   Data           0  QCA6174_SCAQBAFM.sym ABSOLUTE
    SLC_AFH_LocalMetricChan                  0x00000686   Data           0  QCA6174_SCAQBAFM.sym ABSOLUTE
    SLC_AFH_ChannelAssessmentRequired        0x00000687   Data           0  QCA6174_SCAQBAFM.sym ABSOLUTE
    SLC_AFH_LocalRXErrorSum                  0x00000688   Data           0  QCA6174_SCAQBAFM.sym ABSOLUTE
    SLC_AFH_LocalRXCountSum                  0x0000068a   Data           0  QCA6174_SCAQBAFM.sym ABSOLUTE
    eSlaveRxAckNeeded                        0x0000068c   Data           0  QCA6174_SCAQBAFM.sym ABSOLUTE
    SLC_pScanAC_dispatchElem                 0x00000690   Data           0  QCA6174_SCAQBAFM.sym ABSOLUTE
    pSLC_accessScan                          0x00000694   Data           0  QCA6174_SCAQBAFM.sym ABSOLUTE
    pageRespTOCount                          0x00000698   Data           0  QCA6174_SCAQBAFM.sym ABSOLUTE
    newConnTOCount                           0x0000069c   Data           0  QCA6174_SCAQBAFM.sym ABSOLUTE
    slotCounter                              0x0000069e   Data           0  QCA6174_SCAQBAFM.sym ABSOLUTE
    SlaveSkipTx                              0x000006a0   Data           0  QCA6174_SCAQBAFM.sym ABSOLUTE
    SLC_processedTxBlocks                    0x000006a1   Data           0  QCA6174_SCAQBAFM.sym ABSOLUTE
    SLC_hostACLDataPacketLength              0x000006a2   Data           0  QCA6174_SCAQBAFM.sym ABSOLUTE
    SLC_BB_RxPktMemBlks                      0x000006a4   Data           0  QCA6174_SCAQBAFM.sym ABSOLUTE
    SLC_RX_ACL_LINKED_LIST_capacityInBytes   0x000006a8   Data           0  QCA6174_SCAQBAFM.sym ABSOLUTE
    SLC_pIdScan                              0x000006ac   Data           0  QCA6174_SCAQBAFM.sym ABSOLUTE
    SLC_LE_savedSlaveDispatchClk             0x000006b0   Data           0  QCA6174_SCAQBAFM.sym ABSOLUTE
    SLC_LE_stateInfo                         0x000006b4   Data           0  QCA6174_SCAQBAFM.sym ABSOLUTE
    SLC_LE_pHlr_TxSetup                      0x000006b8   Data           0  QCA6174_SCAQBAFM.sym ABSOLUTE
    LpbkTestPattern                          0x000006bc   Data           0  QCA6174_SCAQBAFM.sym ABSOLUTE
    activeMode                               0x000006bd   Data           0  QCA6174_SCAQBAFM.sym ABSOLUTE
    StatusAndControl                         0x000006be   Data           0  QCA6174_SCAQBAFM.sym ABSOLUTE
    ptestBlock                               0x000006c0   Data           0  QCA6174_SCAQBAFM.sym ABSOLUTE
    pTestStatistics                          0x000006c4   Data           0  QCA6174_SCAQBAFM.sym ABSOLUTE
    SLC_TestMuxSource                        0x000006c8   Data           0  QCA6174_SCAQBAFM.sym ABSOLUTE
    SDB_CondPerf_Flags                       0x000006cc   Data           0  QCA6174_SCAQBAFM.sym ABSOLUTE
    SDB_supportedCodecs                      0x000006d0   Data           0  QCA6174_SCAQBAFM.sym ABSOLUTE
    SDB_HciDataTxPoolCount                   0x000006d8   Data           0  QCA6174_SCAQBAFM.sym ABSOLUTE
    SDB_HciDataRxPoolCount                   0x000006d9   Data           0  QCA6174_SCAQBAFM.sym ABSOLUTE
    SDB_HciLeDataTxPoolCount                 0x000006da   Data           0  QCA6174_SCAQBAFM.sym ABSOLUTE
    SDB_inquiryPndCount                      0x000006db   Data           0  QCA6174_SCAQBAFM.sym ABSOLUTE
    SDB_QOS_Format                           0x000006dc   Data           0  QCA6174_SCAQBAFM.sym ABSOLUTE
    SDB_deviceUnderTestMode                  0x000006dd   Data           0  QCA6174_SCAQBAFM.sym ABSOLUTE
    SDB_loopbackMode                         0x000006de   Data           0  QCA6174_SCAQBAFM.sym ABSOLUTE
    SDB_scanEnable                           0x000006df   Data           0  QCA6174_SCAQBAFM.sym ABSOLUTE
    SDB_authenticationEnable                 0x000006e0   Data           0  QCA6174_SCAQBAFM.sym ABSOLUTE
    SDB_SimplePairingMode                    0x000006e1   Data           0  QCA6174_SCAQBAFM.sym ABSOLUTE
    SDB_SimplePairingDebugMode               0x000006e2   Data           0  QCA6174_SCAQBAFM.sym ABSOLUTE
    SDB_encryptionMode                       0x000006e3   Data           0  QCA6174_SCAQBAFM.sym ABSOLUTE
    SDB_holdModeActivity                     0x000006e4   Data           0  QCA6174_SCAQBAFM.sym ABSOLUTE
    SDB_bOFOLTimerActive                     0x000006e5   Data           0  QCA6174_SCAQBAFM.sym ABSOLUTE
    SDB_bEvalScatternetSched                 0x000006e6   Data           0  QCA6174_SCAQBAFM.sym ABSOLUTE
    SDB_SCO_FullStatus                       0x000006e7   Data           0  QCA6174_SCAQBAFM.sym ABSOLUTE
    SDB_numActivePiconet                     0x000006e8   Data           0  QCA6174_SCAQBAFM.sym ABSOLUTE
    SDB_retransmitWindowInhibitMask          0x000006e9   Data           0  QCA6174_SCAQBAFM.sym ABSOLUTE
    SDB_nTotalpActiveConnCount               0x000006ea   Data           0  QCA6174_SCAQBAFM.sym ABSOLUTE
    SDB_nTotalpConnCount                     0x000006eb   Data           0  QCA6174_SCAQBAFM.sym ABSOLUTE
    SDB_bLinkSupervisionTimerActive          0x000006ec   Data           0  QCA6174_SCAQBAFM.sym ABSOLUTE
    SDB_bMaxAuthenTimerActive                0x000006ed   Data           0  QCA6174_SCAQBAFM.sym ABSOLUTE
    SDB_nTotalpLeConnCount                   0x000006ee   Data           0  QCA6174_SCAQBAFM.sym ABSOLUTE
    lastDispatchedElemIndex                  0x000006ef   Data           0  QCA6174_SCAQBAFM.sym ABSOLUTE
    SDB_inquiryMaxPeriodLength               0x000006f0   Data           0  QCA6174_SCAQBAFM.sym ABSOLUTE
    SDB_inquiryMinPeriodLength               0x000006f2   Data           0  QCA6174_SCAQBAFM.sym ABSOLUTE
    SDB_SecureConnections                    0x000006f4   Data           0  QCA6174_SCAQBAFM.sym ABSOLUTE
    SDB_connectionAcceptTimeout              0x000006f6   Data           0  QCA6174_SCAQBAFM.sym ABSOLUTE
    SDB_defaultLinkPolicySettings            0x000006f8   Data           0  QCA6174_SCAQBAFM.sym ABSOLUTE
    SDB_connInitialMaxTxOctets               0x000006fa   Data           0  QCA6174_SCAQBAFM.sym ABSOLUTE
    SDB_connInitialMaxTxTime                 0x000006fc   Data           0  QCA6174_SCAQBAFM.sym ABSOLUTE
    SDB_AuthenticationRetry                  0x000006fe   Data           0  QCA6174_SCAQBAFM.sym ABSOLUTE
    SDB_classOfDevice                        0x00000700   Data           0  QCA6174_SCAQBAFM.sym ABSOLUTE
    SDB_LE_Advertise                         0x00000704   Data           0  QCA6174_SCAQBAFM.sym ABSOLUTE
    SDB_HciDataTxPool                        0x00000708   Data           0  QCA6174_SCAQBAFM.sym ABSOLUTE
    SDB_HciDataRxPool                        0x0000070c   Data           0  QCA6174_SCAQBAFM.sym ABSOLUTE
    SDB_HciLeDataTxPool                      0x00000710   Data           0  QCA6174_SCAQBAFM.sym ABSOLUTE
    SDB_localLoopback_pConn                  0x00000714   Data           0  QCA6174_SCAQBAFM.sym ABSOLUTE
    SDB_HV1pActiveConn                       0x00000718   Data           0  QCA6174_SCAQBAFM.sym ABSOLUTE
    SDB_pLoggerCounters                      0x0000071c   Data           0  QCA6174_SCAQBAFM.sym ABSOLUTE
    SDB_localParityBits                      0x00000720   Data           0  QCA6174_SCAQBAFM.sym ABSOLUTE
    SDB_RoleSwitch                           0x00000728   Data           0  QCA6174_SCAQBAFM.sym ABSOLUTE
    SDB_focus                                0x00000730   Data           0  QCA6174_SCAQBAFM.sym ABSOLUTE
    SDB_LE_DeviceFilterList                  0x00000738   Data           0  QCA6174_SCAQBAFM.sym ABSOLUTE
    SDB_LE_AdvPCFApcfFilterList              0x00000740   Data           0  QCA6174_SCAQBAFM.sym ABSOLUTE
    SDB_LE_AdvPCFBcstAddrList                0x00000748   Data           0  QCA6174_SCAQBAFM.sym ABSOLUTE
    SDB_LE_advDupFilterList                  0x00000750   Data           0  QCA6174_SCAQBAFM.sym ABSOLUTE
    SDB_LE_advDupFilterAddrList              0x00000758   Data           0  QCA6174_SCAQBAFM.sym ABSOLUTE
    SDB_LE_BS_StorageParam                   0x00000760   Data           0  QCA6174_SCAQBAFM.sym ABSOLUTE
    SDB_em                                   0x00000768   Data           0  QCA6174_SCAQBAFM.sym ABSOLUTE
    SDB_em_p2                                0x00000770   Data           0  QCA6174_SCAQBAFM.sym ABSOLUTE
    SDB_LE_em                                0x00000778   Data           0  QCA6174_SCAQBAFM.sym ABSOLUTE
    SDB_aTotalpScoConn                       0x00000780   Data           0  QCA6174_SCAQBAFM.sym ABSOLUTE
    MultiAdvInfo                             0x00000788   Data           0  QCA6174_SCAQBAFM.sym ABSOLUTE
    SDB_SyncTrainChannels                    0x00000790   Data           0  QCA6174_SCAQBAFM.sym ABSOLUTE
    DisConnEventType                         0x00000793   Data           0  QCA6174_SCAQBAFM.sym ABSOLUTE
    SDB_inquiryLength                        0x0000079f   Data           0  QCA6174_SCAQBAFM.sym ABSOLUTE
    SDB_inquiryNumResponsesAllowed           0x000007a0   Data           0  QCA6174_SCAQBAFM.sym ABSOLUTE
    SDB_inquiryNumResponses                  0x000007a1   Data           0  QCA6174_SCAQBAFM.sym ABSOLUTE
    SDB_inquiryLAP                           0x000007a2   Data           0  QCA6174_SCAQBAFM.sym ABSOLUTE
    SDB_KeepAlive                            0x000007a8   Data           0  QCA6174_SCAQBAFM.sym ABSOLUTE
    SDB_LE_BB_RxPktMemBlks                   0x000007b0   Data           0  QCA6174_SCAQBAFM.sym ABSOLUTE
    SDB_LE_debugChMapUpdateIdx               0x000007b1   Data           0  QCA6174_SCAQBAFM.sym ABSOLUTE
    SDB_broadcast_encryptionKeySize          0x000007b2   Data           0  QCA6174_SCAQBAFM.sym ABSOLUTE
    SDB_HCI_EventFilters                     0x000007b3   Data           0  QCA6174_SCAQBAFM.sym ABSOLUTE
    PM_BT_CLK_AlwaysOn                       0x000007b8   Data           0  QCA6174_SCAQBAFM.sym ABSOLUTE
    currBtState                              0x000007bc   Data           0  QCA6174_SCAQBAFM.sym ABSOLUTE
    PFAL_DMR_LastChanAvoidanceNumber         0x000007c4   Data           0  QCA6174_SCAQBAFM.sym ABSOLUTE
    PFAL_DMR_PendingChanAvoidanceNumber      0x000007c5   Data           0  QCA6174_SCAQBAFM.sym ABSOLUTE
    MWS_RuntimeFlag                          0x000007c8   Data           0  QCA6174_SCAQBAFM.sym ABSOLUTE
    MWS_debugFlag                            0x000007c9   Data           0  QCA6174_SCAQBAFM.sym ABSOLUTE
    MWSIRQTable                              0x000007cc   Data           0  QCA6174_SCAQBAFM.sym ABSOLUTE
    IrqTableSize                             0x000007d0   Data           0  QCA6174_SCAQBAFM.sym ABSOLUTE
    rtsm_cont                                0x000007d4   Data           0  QCA6174_SCAQBAFM.sym ABSOLUTE
    pPF_CFG_BT_HCICommandOverride            0x000007dc   Data           0  QCA6174_SCAQBAFM.sym ABSOLUTE
    pPF_CFG_SYS_RegisterOverride             0x000007e0   Data           0  QCA6174_SCAQBAFM.sym ABSOLUTE
    pPF_CFG_SYS_StoredLinkKeys               0x000007e4   Data           0  QCA6174_SCAQBAFM.sym ABSOLUTE
    CFG_USB_REASSEMBLY                       0x000007e8   Data           0  QCA6174_SCAQBAFM.sym ABSOLUTE
    PFAL_CFG_MaxTagValue                     0x000007ec   Data           0  QCA6174_SCAQBAFM.sym ABSOLUTE
    PFAL_CFG_DataInit                        0x000007f0   Data           0  QCA6174_SCAQBAFM.sym ABSOLUTE
    PFAL_CFG_Read                            0x000007f4   Data           0  QCA6174_SCAQBAFM.sym ABSOLUTE
    PFAL_CFG_DynamicWrite                    0x000007f8   Data           0  QCA6174_SCAQBAFM.sym ABSOLUTE
    PFAL_CFG_DynamicWriteInit                0x000007fc   Data           0  QCA6174_SCAQBAFM.sym ABSOLUTE
    pCfgBase                                 0x00000800   Data           0  QCA6174_SCAQBAFM.sym ABSOLUTE
    GTMR_Flag1                               0x00000804   Data           0  QCA6174_SCAQBAFM.sym ABSOLUTE
    GTMR_Flag2                               0x00000805   Data           0  QCA6174_SCAQBAFM.sym ABSOLUTE
    SavedTimerSettings                       0x00000806   Data           0  QCA6174_SCAQBAFM.sym ABSOLUTE
    gPRUHALTimeCount                         0x0000080c   Data           0  QCA6174_SCAQBAFM.sym ABSOLUTE
    gPRUHALDelayTime                         0x0000080e   Data           0  QCA6174_SCAQBAFM.sym ABSOLUTE
    PFAL_PRUHAL_pHlr                         0x00000810   Data           0  QCA6174_SCAQBAFM.sym ABSOLUTE
    gPRUHALData                              0x00000814   Data           0  QCA6174_SCAQBAFM.sym ABSOLUTE
    gPRUIPeriodicTimer                       0x00000818   Data           0  QCA6174_SCAQBAFM.sym ABSOLUTE
    gPRUINotifyDelayTimer                    0x0000081c   Data           0  QCA6174_SCAQBAFM.sym ABSOLUTE
    wipower_otp_platform                     0x00000820   Data           0  QCA6174_SCAQBAFM.sym ABSOLUTE
    wipower_otp_embedded                     0x0000082c   Data           0  QCA6174_SCAQBAFM.sym ABSOLUTE
    pNX2A4WPData                             0x0000083c   Data           0  QCA6174_SCAQBAFM.sym ABSOLUTE
    gStarkRevision                           0x00000840   Data           0  QCA6174_SCAQBAFM.sym ABSOLUTE
    gStarkRegAData                           0x00000841   Data           0  QCA6174_SCAQBAFM.sym ABSOLUTE
    pPFAL_RM_rmCfgfunc                       0x00000848   Data           0  QCA6174_SCAQBAFM.sym ABSOLUTE
    pPFAL_RM_rmPriorSleepFunc                0x0000084c   Data           0  QCA6174_SCAQBAFM.sym ABSOLUTE
    pPFAL_RM_rmWakeFunc                      0x00000850   Data           0  QCA6174_SCAQBAFM.sym ABSOLUTE
    pPFAL_RM_RMRegOverride                   0x00000854   Data           0  QCA6174_SCAQBAFM.sym ABSOLUTE
    pPFAL_RM_RMClockInit                     0x00000858   Data           0  QCA6174_SCAQBAFM.sym ABSOLUTE
    gBTStartupCalStatus                      0x0000085c   Data           0  QCA6174_SCAQBAFM.sym ABSOLUTE
    PFAL_RM_HW_EXT_CAP_BIN                   0x00000864   Data           0  QCA6174_SCAQBAFM.sym ABSOLUTE
    PFAL_SYS_LPO_type                        0x00000868   Data           0  QCA6174_SCAQBAFM.sym ABSOLUTE
    PFAL_TXP_pExtFunctions                   0x0000086c   Data           0  QCA6174_SCAQBAFM.sym ABSOLUTE
    transport                                0x00000870   Data           0  QCA6174_SCAQBAFM.sym ABSOLUTE
    SiFlashOpCodes                           0x00000874   Data           0  QCA6174_SCAQBAFM.sym ABSOLUTE
    gEepromCtrlByte                          0x00000880   Data           0  QCA6174_SCAQBAFM.sym ABSOLUTE
    EepromCtrlCode                           0x00000881   Data           0  QCA6174_SCAQBAFM.sym ABSOLUTE
    efuse_api                                0x00000884   Data           0  QCA6174_SCAQBAFM.sym ABSOLUTE
    efuse_cache                              0x00000888   Data           0  QCA6174_SCAQBAFM.sym ABSOLUTE
    CFG_NvmType                              0x0000088c   Data           0  QCA6174_SCAQBAFM.sym ABSOLUTE
    CFG_EXT_Init                             0x00000890   Data           0  QCA6174_SCAQBAFM.sym ABSOLUTE
    CFG_EXT_GetConfigParameterInfo           0x00000894   Data           0  QCA6174_SCAQBAFM.sym ABSOLUTE
    CFG_EXT_WriteDynamicConfigParameters     0x00000898   Data           0  QCA6174_SCAQBAFM.sym ABSOLUTE
    CFG_EXT_NVM_GetTagEntry                  0x0000089c   Data           0  QCA6174_SCAQBAFM.sym ABSOLUTE
    BKGD_pCallback                           0x000008a0   Data           0  QCA6174_SCAQBAFM.sym ABSOLUTE
    HIF_pCallback                            0x000008a4   Data           0  QCA6174_SCAQBAFM.sym ABSOLUTE
    LLM_pCallback                            0x000008a8   Data           0  QCA6174_SCAQBAFM.sym ABSOLUTE
    MCI_pCallback                            0x000008ac   Data           0  QCA6174_SCAQBAFM.sym ABSOLUTE
    MWS_pCallback                            0x000008b0   Data           0  QCA6174_SCAQBAFM.sym ABSOLUTE
    ucEventQueTop                            0x000008b4   Data           0  QCA6174_SCAQBAFM.sym ABSOLUTE
    ucEventQueBot                            0x000008b5   Data           0  QCA6174_SCAQBAFM.sym ABSOLUTE
    ucRxSearchChannel                        0x000008b6   Data           0  QCA6174_SCAQBAFM.sym ABSOLUTE
    ucCurrentSearchSharingCycle              0x000008b7   Data           0  QCA6174_SCAQBAFM.sym ABSOLUTE
    ucAdjustTime                             0x000008b8   Data           0  QCA6174_SCAQBAFM.sym ABSOLUTE
    eInitialState                            0x000008b9   Data           0  QCA6174_SCAQBAFM.sym ABSOLUTE
    eCurrentState                            0x000008ba   Data           0  QCA6174_SCAQBAFM.sym ABSOLUTE
    ucRxWindowDuration                       0x000008bb   Data           0  QCA6174_SCAQBAFM.sym ABSOLUTE
    ucActiveChannel                          0x000008bc   Data           0  QCA6174_SCAQBAFM.sym ABSOLUTE
    ucActiveChannelTimerIntervals            0x000008bd   Data           0  QCA6174_SCAQBAFM.sym ABSOLUTE
    ucDelayTime                              0x000008be   Data           0  QCA6174_SCAQBAFM.sym ABSOLUTE
    ucAdvPacketSize                          0x000008bf   Data           0  QCA6174_SCAQBAFM.sym ABSOLUTE
    ucAdvDataMesgSize                        0x000008c0   Data           0  QCA6174_SCAQBAFM.sym ABSOLUTE
    ucAdvPacketMaxSize                       0x000008c1   Data           0  QCA6174_SCAQBAFM.sym ABSOLUTE
    ucRadioMesgSize                          0x000008c2   Data           0  QCA6174_SCAQBAFM.sym ABSOLUTE
    ucAdvRequiredFields                      0x000008c3   Data           0  QCA6174_SCAQBAFM.sym ABSOLUTE
    ucAdvOptionalFields                      0x000008c4   Data           0  QCA6174_SCAQBAFM.sym ABSOLUTE
    ucAdvNegotiationState                    0x000008c5   Data           0  QCA6174_SCAQBAFM.sym ABSOLUTE
    ucAdvRetryIncrease                       0x000008c6   Data           0  QCA6174_SCAQBAFM.sym ABSOLUTE
    ucAdvRetryIncreaseReset                  0x000008c7   Data           0  QCA6174_SCAQBAFM.sym ABSOLUTE
    ucFreqHopIndex                           0x000008c8   Data           0  QCA6174_SCAQBAFM.sym ABSOLUTE
    bANTTestMode                             0x000008c9   Data           0  QCA6174_SCAQBAFM.sym ABSOLUTE
    ucANTBurstBlockedCount                   0x000008ca   Data           0  QCA6174_SCAQBAFM.sym ABSOLUTE
    bSaveBurst                               0x000008cb   Data           0  QCA6174_SCAQBAFM.sym ABSOLUTE
    ucSaveBurstChannel                       0x000008cc   Data           0  QCA6174_SCAQBAFM.sym ABSOLUTE
    ucBurstQueuedChannel                     0x000008cd   Data           0  QCA6174_SCAQBAFM.sym ABSOLUTE
    usStartTime                              0x000008ce   Data           0  QCA6174_SCAQBAFM.sym ABSOLUTE
    usAdvStallCount                          0x000008d0   Data           0  QCA6174_SCAQBAFM.sym ABSOLUTE
    usAdvStallCountReset                     0x000008d2   Data           0  QCA6174_SCAQBAFM.sym ABSOLUTE
    usPacketsReceived                        0x000008d4   Data           0  QCA6174_SCAQBAFM.sym ABSOLUTE
    usPacketsLost                            0x000008d6   Data           0  QCA6174_SCAQBAFM.sym ABSOLUTE
    usPacketsCRCError                        0x000008d8   Data           0  QCA6174_SCAQBAFM.sym ABSOLUTE
    usSearchCount                            0x000008da   Data           0  QCA6174_SCAQBAFM.sym ABSOLUTE
    usTxPackets                              0x000008dc   Data           0  QCA6174_SCAQBAFM.sym ABSOLUTE
    usPacketLimit                            0x000008de   Data           0  QCA6174_SCAQBAFM.sym ABSOLUTE
    ANT_CCR                                  0x000008e0   Data           0  QCA6174_SCAQBAFM.sym ABSOLUTE
    OLD_ANT_CCR                              0x000008e2   Data           0  QCA6174_SCAQBAFM.sym ABSOLUTE
    RADIO_DR1_CCR                            0x000008e4   Data           0  QCA6174_SCAQBAFM.sym ABSOLUTE
    CAPTURE_REF_ANT_CCR                      0x000008e6   Data           0  QCA6174_SCAQBAFM.sym ABSOLUTE
    usSearchEnvelopeLengthConfig             0x000008e8   Data           0  QCA6174_SCAQBAFM.sym ABSOLUTE
    usRadioSyncCRC                           0x000008ea   Data           0  QCA6174_SCAQBAFM.sym ABSOLUTE
    uChannelState                            0x000008ec   Data           0  QCA6174_SCAQBAFM.sym ABSOLUTE
    uExtAssign                               0x000008f0   Data           0  QCA6174_SCAQBAFM.sym ABSOLUTE
    uANTLibConfig                            0x000008f4   Data           0  QCA6174_SCAQBAFM.sym ABSOLUTE
    uGlobalControl1                          0x000008f8   Data           0  QCA6174_SCAQBAFM.sym ABSOLUTE
    uGlobalControl2                          0x000008fc   Data           0  QCA6174_SCAQBAFM.sym ABSOLUTE
    uGlobalControl3                          0x00000900   Data           0  QCA6174_SCAQBAFM.sym ABSOLUTE
    uTrack                                   0x00000904   Data           0  QCA6174_SCAQBAFM.sym ABSOLUTE
    uTxMesgControl                           0x00000908   Data           0  QCA6174_SCAQBAFM.sym ABSOLUTE
    uRxMesgControl                           0x0000090c   Data           0  QCA6174_SCAQBAFM.sym ABSOLUTE
    uTransfer                                0x00000910   Data           0  QCA6174_SCAQBAFM.sym ABSOLUTE
    uTxSavedMesgControl                      0x00000914   Data           0  QCA6174_SCAQBAFM.sym ABSOLUTE
    stNegotiationMode                        0x00000918   Data           0  QCA6174_SCAQBAFM.sym ABSOLUTE
    stActiveAdvancedMode                     0x0000091c   Data           0  QCA6174_SCAQBAFM.sym ABSOLUTE
    ulBitErrorCount                          0x00000920   Data           0  QCA6174_SCAQBAFM.sym ABSOLUTE
    ACCUM_CCR_ERR                            0x00000924   Data           0  QCA6174_SCAQBAFM.sym ABSOLUTE
    uANTControl                              0x00000928   Data           0  QCA6174_SCAQBAFM.sym ABSOLUTE
    uANTEnvelope                             0x0000092c   Data           0  QCA6174_SCAQBAFM.sym ABSOLUTE
    aucFreqHopTable                          0x00000930   Data           0  QCA6174_SCAQBAFM.sym ABSOLUTE
    aucChannelNetwork                        0x00000936   Data           0  QCA6174_SCAQBAFM.sym ABSOLUTE
    aucSearchTimeOut                         0x0000093e   Data           0  QCA6174_SCAQBAFM.sym ABSOLUTE
    aucSearchChPriority                      0x00000946   Data           0  QCA6174_SCAQBAFM.sym ABSOLUTE
    aucSearchSharingConfig                   0x0000094e   Data           0  QCA6174_SCAQBAFM.sym ABSOLUTE
    aucLowPrioritySearchTimeOut              0x00000956   Data           0  QCA6174_SCAQBAFM.sym ABSOLUTE
    aucRadioFrequency                        0x0000095e   Data           0  QCA6174_SCAQBAFM.sym ABSOLUTE
    BT_CCR                                   0x00000968   Data           0  QCA6174_SCAQBAFM.sym ABSOLUTE
    OLD_BT_CCR                               0x00000970   Data           0  QCA6174_SCAQBAFM.sym ABSOLUTE
    CAPTURE_REF_BT_CCR                       0x00000978   Data           0  QCA6174_SCAQBAFM.sym ABSOLUTE
    aucANTConnIntervalPriorityConfig         0x00000980   Data           0  QCA6174_SCAQBAFM.sym ABSOLUTE
    aucANTSearchIntervalPriorityConfig       0x00000988   Data           0  QCA6174_SCAQBAFM.sym ABSOLUTE
    aucANTBurstKeepAliveConfig               0x00000990   Data           0  QCA6174_SCAQBAFM.sym ABSOLUTE
    aucANTConnIntervalCount                  0x00000998   Data           0  QCA6174_SCAQBAFM.sym ABSOLUTE
    aucANTSearchIntervalCount                0x000009a0   Data           0  QCA6174_SCAQBAFM.sym ABSOLUTE
    aucRadioTxPower                          0x000009a8   Data           0  QCA6174_SCAQBAFM.sym ABSOLUTE
    aucRSSI                                  0x000009b0   Data           0  QCA6174_SCAQBAFM.sym ABSOLUTE
    aucRSSIProxConfig                        0x000009b8   Data           0  QCA6174_SCAQBAFM.sym ABSOLUTE
    aucAFHTimeoutCount                       0x000009c0   Data           0  QCA6174_SCAQBAFM.sym ABSOLUTE
    stTxQueue                                0x000009c8   Data           0  QCA6174_SCAQBAFM.sym ABSOLUTE
    LLM_LE_TestRxHwModeEnabled               0x000009d1   Data           0  QCA6174_SCAQBAFM.sym ABSOLUTE
    LLM_AFH_LE_initChannelMap                0x000009d2   Data           0  QCA6174_SCAQBAFM.sym ABSOLUTE
    LLM_AFH_LE_HostChannelMap                0x000009d7   Data           0  QCA6174_SCAQBAFM.sym ABSOLUTE
    LLM_AFH_ChanClassEnabledByHost           0x000009dc   Data           0  QCA6174_SCAQBAFM.sym ABSOLUTE
    LLM_AFH_LocalChanAssessmentState         0x000009dd   Data           0  QCA6174_SCAQBAFM.sym ABSOLUTE
    LLM_AFH_LE_AssessChannelMap              0x000009de   Data           0  QCA6174_SCAQBAFM.sym ABSOLUTE
    LLM_AFH_LE_WLANChannelMap                0x000009e3   Data           0  QCA6174_SCAQBAFM.sym ABSOLUTE
    LLM_AFH_LE_LTEChannelMap                 0x000009e8   Data           0  QCA6174_SCAQBAFM.sym ABSOLUTE
    LLM_randomNumberDataInitializedByReset   0x000009ed   Data           0  QCA6174_SCAQBAFM.sym ABSOLUTE
    LLM_activeConnectionAllocationCount      0x000009f0   Data           0  QCA6174_SCAQBAFM.sym ABSOLUTE
    LLM_aMemPoolActiveConnNoAccessLcHw       0x000009f4   Data           0  QCA6174_SCAQBAFM.sym ABSOLUTE
    LLM_lowPowerModePossible                 0x000009fc   Data           0  QCA6174_SCAQBAFM.sym ABSOLUTE
    LLM_extendedFeatures_p1                  0x000009fd   Data           0  QCA6174_SCAQBAFM.sym ABSOLUTE
    LLM_Rand_lsfr                            0x00000a00   Data           0  QCA6174_SCAQBAFM.sym ABSOLUTE
    LLM_CQDDRCssHCI_handle                   0x00000a04   Data           0  QCA6174_SCAQBAFM.sym ABSOLUTE
    LLM_CQDDRCssBitsReceived                 0x00000a08   Data           0  QCA6174_SCAQBAFM.sym ABSOLUTE
    LLM_CQDDRCssBER                          0x00000a0c   Data           0  QCA6174_SCAQBAFM.sym ABSOLUTE
    LLM_CQDDRCssPER                          0x00000a0e   Data           0  QCA6174_SCAQBAFM.sym ABSOLUTE
    LLM_CQDDRCssPreferredPktType             0x00000a10   Data           0  QCA6174_SCAQBAFM.sym ABSOLUTE
    LLM_pageScanCount                        0x00000a11   Data           0  QCA6174_SCAQBAFM.sym ABSOLUTE
    LLM_inquiryScanCount                     0x00000a12   Data           0  QCA6174_SCAQBAFM.sym ABSOLUTE
    LLM_connectionSetupFilterCount           0x00000a13   Data           0  QCA6174_SCAQBAFM.sym ABSOLUTE
    LLM_inquiryResultFilterCount             0x00000a14   Data           0  QCA6174_SCAQBAFM.sym ABSOLUTE
    LLM_scoChanDB                            0x00000a18   Data           0  QCA6174_SCAQBAFM.sym ABSOLUTE
    LLM_enableDeviceUnderTestMode            0x00000a1c   Data           0  QCA6174_SCAQBAFM.sym ABSOLUTE
    LLM_Num_HCI_Command_Packets              0x00000a1d   Data           0  QCA6174_SCAQBAFM.sym ABSOLUTE
    LLM_scanSuspended                        0x00000a1e   Data           0  QCA6174_SCAQBAFM.sym ABSOLUTE
    LLM_lmCB                                 0x00000a20   Data           0  QCA6174_SCAQBAFM.sym ABSOLUTE
    LLM_hostPINtype                          0x00000a28   Data           0  QCA6174_SCAQBAFM.sym ABSOLUTE
    LLM_lmstate                              0x00000a29   Data           0  QCA6174_SCAQBAFM.sym ABSOLUTE
    pLMcommand                               0x00000a2c   Data           0  QCA6174_SCAQBAFM.sym ABSOLUTE
    LLM_ltaddrDB                             0x00000a30   Data           0  QCA6174_SCAQBAFM.sym ABSOLUTE
    LLM_SDB_piconetHandleDB                  0x00000a38   Data           0  QCA6174_SCAQBAFM.sym ABSOLUTE
    LLM_SDB_HCI_connHandleDB                 0x00000a40   Data           0  QCA6174_SCAQBAFM.sym ABSOLUTE
    LLM_xSCOchannelDB                        0x00000a48   Data           0  QCA6174_SCAQBAFM.sym ABSOLUTE
    LLM_lmpSeqSCO_DispatchQ                  0x00000a50   Data           0  QCA6174_SCAQBAFM.sym ABSOLUTE
    SDB_holdRnREvent                         0x00000a58   Data           0  QCA6174_SCAQBAFM.sym ABSOLUTE
    LLM_xSCO_DelayMultiplierDefault          0x00000a5c   Data           0  QCA6174_SCAQBAFM.sym ABSOLUTE
    LLM_xSCO_DelayMultiplier                 0x00000a5d   Data           0  QCA6174_SCAQBAFM.sym ABSOLUTE
    LLM_CachedSyncLinkOffsetMap              0x00000a70   Data           0  QCA6174_SCAQBAFM.sym ABSOLUTE
    LLM_ExtFrameConfig                       0x00000a78   Data           0  QCA6174_SCAQBAFM.sym ABSOLUTE
    SDB_ADVM_monitors                        0x00000a7c   Data           0  QCA6174_SCAQBAFM.sym ABSOLUTE
    SDB_ADVM_advDevice                       0x00000a80   Data           0  QCA6174_SCAQBAFM.sym ABSOLUTE
    SDB_ADVM_rssi                            0x00000a84   Data           0  QCA6174_SCAQBAFM.sym ABSOLUTE
    SLC_DisQ_CurrentClock                    0x00000a88   Data           0  QCA6174_SCAQBAFM.sym ABSOLUTE
    SCO_BadPktCntr                           0x00000a8c   Data           0  QCA6174_SCAQBAFM.sym ABSOLUTE
    SLC_LE_scannerBackoffDisabled            0x00000a90   Data           0  QCA6174_SCAQBAFM.sym ABSOLUTE
    SLC_lfsr                                 0x00000a94   Data           0  QCA6174_SCAQBAFM.sym ABSOLUTE
    PFAL_ACI_IsHWLocked                      0x00000a9b   Data           0  QCA6174_SCAQBAFM.sym ABSOLUTE
    Clk1                                     0x00000a9c   Data           0  QCA6174_SCAQBAFM.sym ABSOLUTE
    Clk2                                     0x00000aa4   Data           0  QCA6174_SCAQBAFM.sym ABSOLUTE
    Clk12                                    0x00000aac   Data           0  QCA6174_SCAQBAFM.sym ABSOLUTE
    ucResetType                              0x00000ab4   Data           0  QCA6174_SCAQBAFM.sym ABSOLUTE
    uANTMainCtrl                             0x00000ab8   Data           0  QCA6174_SCAQBAFM.sym ABSOLUTE
    pucHCIDataSave                           0x00000abc   Data           0  QCA6174_SCAQBAFM.sym ABSOLUTE
    CQDDR_ihandle                            0x00000ac0   Data           0  QCA6174_SCAQBAFM.sym ABSOLUTE
    LLM_CQDDRCssEDR_eSCO_PreferredPktType    0x00000ac2   Data           0  QCA6174_SCAQBAFM.sym ABSOLUTE
    LLM_CQDDRCssWER                          0x00000ac4   Data           0  QCA6174_SCAQBAFM.sym ABSOLUTE
    LLM_BDADDER_List                         0x00000ac8   Data           0  QCA6174_SCAQBAFM.sym ABSOLUTE
    pLLM_HCI_CurrentCmdPkt                   0x00000ad0   Data           0  QCA6174_SCAQBAFM.sym ABSOLUTE
    LLM_LE_aMemPoolDefCmd                    0x00000ad4   Data           0  QCA6174_SCAQBAFM.sym ABSOLUTE
    qLLM_LE_DefCmdQueue                      0x00000adc   Data           0  QCA6174_SCAQBAFM.sym ABSOLUTE
    ucANTTxSerialBufferingConfig             0x00000ae4   Data           0  QCA6174_SCAQBAFM.sym ABSOLUTE
    usANTTxSerialQueueTop                    0x00000ae6   Data           0  QCA6174_SCAQBAFM.sym ABSOLUTE
    usANTTxSerialQueueBot                    0x00000ae8   Data           0  QCA6174_SCAQBAFM.sym ABSOLUTE
    usANTRxSerialIndex                       0x00000aea   Data           0  QCA6174_SCAQBAFM.sym ABSOLUTE
    usANTTxSerialBufferingSizeThreshold      0x00000aec   Data           0  QCA6174_SCAQBAFM.sym ABSOLUTE
    usANTEventFilterConfig                   0x00000aee   Data           0  QCA6174_SCAQBAFM.sym ABSOLUTE
    uANTDataPathCtrl                         0x00000af0   Data           0  QCA6174_SCAQBAFM.sym ABSOLUTE
    ulANTTxSerialBufferingTimeThreshold      0x00000af4   Data           0  QCA6174_SCAQBAFM.sym ABSOLUTE
    stANTTxSerialBufferingFlushTime          0x00000af8   Data           0  QCA6174_SCAQBAFM.sym ABSOLUTE
    s_accum                                  0x00000b08   Data           0  QCA6174_SCAQBAFM.sym ABSOLUTE
    gSha256Context                           0x00000b10   Data           0  QCA6174_SCAQBAFM.sym ABSOLUTE
    sco_buffer                               0x00000b78   Data           0  QCA6174_SCAQBAFM.sym ABSOLUTE
    rx_sco_pkt                               0x00000d18   Data           0  QCA6174_SCAQBAFM.sym ABSOLUTE
    PFAL_LC_TxLinkedList                     0x00000d28   Data           0  QCA6174_SCAQBAFM.sym ABSOLUTE
    PFAL_LC_RxScoLinkedList                  0x00000d48   Data           0  QCA6174_SCAQBAFM.sym ABSOLUTE
    PFAL_LC_RxAclLinkedList                  0x00000d54   Data           0  QCA6174_SCAQBAFM.sym ABSOLUTE
    PFAL_LC_TxScratchpad                     0x00000d98   Data           0  QCA6174_SCAQBAFM.sym ABSOLUTE
    PFAL_LC_RxScratchpad                     0x00000db4   Data           0  QCA6174_SCAQBAFM.sym ABSOLUTE
    AM_AddrFilterCopy                        0x00000dd4   Data           0  QCA6174_SCAQBAFM.sym ABSOLUTE
    Default_AM_AddrFilter                    0x00000de4   Data           0  QCA6174_SCAQBAFM.sym ABSOLUTE
    PFAL_LC_TxAclPayloadBuff                 0x00000df4   Data           0  QCA6174_SCAQBAFM.sym ABSOLUTE
    CFG_Parameters_SYS                       0x000011f4   Data           0  QCA6174_SCAQBAFM.sym ABSOLUTE
    TlvFile                                  0x00001430   Data           0  QCA6174_SCAQBAFM.sym ABSOLUTE
    aPFAL_OS_EventQ                          0x00001444   Data           0  QCA6174_SCAQBAFM.sym ABSOLUTE
    SiW_Task_Events                          0x00001460   Data           0  QCA6174_SCAQBAFM.sym ABSOLUTE
    SiW_Semaphores                           0x00001478   Data           0  QCA6174_SCAQBAFM.sym ABSOLUTE
    OSEventTbl                               0x000014c4   Data           0  QCA6174_SCAQBAFM.sym ABSOLUTE
    OSTaskIdleStk                            0x000016f4   Data           0  QCA6174_SCAQBAFM.sym ABSOLUTE
    OSTCBPrioTbl                             0x000018f4   Data           0  QCA6174_SCAQBAFM.sym ABSOLUTE
    OSTCBTbl                                 0x00001918   Data           0  QCA6174_SCAQBAFM.sym ABSOLUTE
    PFAL_RM_CustomerPowerLevelMappingTbl     0x00001a18   Data           0  QCA6174_SCAQBAFM.sym ABSOLUTE
    PFAL_RM_HW_RXBB_TIA_RS_CTRL_BASELINE_wOFFSET 0x00001a22   Data           0  QCA6174_SCAQBAFM.sym ABSOLUTE
    PFAL_RM_HW_RXBB_TIA_CS_CTRL_BASELINE_wOFFSET 0x00001a42   Data           0  QCA6174_SCAQBAFM.sym ABSOLUTE
    PFAL_RM_HW_RXBB_TIA_RS_CTRL_BASELINE     0x00001a62   Data           0  QCA6174_SCAQBAFM.sym ABSOLUTE
    PFAL_RM_HW_RXBB_TIA_CS_CTRL_BASELINE     0x00001a82   Data           0  QCA6174_SCAQBAFM.sym ABSOLUTE
    PFAL_RM_HW_MODEM_TX_TEMP_CAL_TABLE       0x00001aa2   Data           0  QCA6174_SCAQBAFM.sym ABSOLUTE
    PFAL_SYS_pwrModeVote                     0x00001aac   Data           0  QCA6174_SCAQBAFM.sym ABSOLUTE
    uart_iop_data                            0x00001ab8   Data           0  QCA6174_SCAQBAFM.sym ABSOLUTE
    uart_rx_flow_buf                         0x00001b80   Data           0  QCA6174_SCAQBAFM.sym ABSOLUTE
    voiceDebugBuf                            0x00001b90   Data           0  QCA6174_SCAQBAFM.sym ABSOLUTE
    PFAL_VOICE_bbTxSilenceBuffer             0x00001bb8   Data           0  QCA6174_SCAQBAFM.sym ABSOLUTE
    hci_sco_rx_pkt                           0x00001bf4   Data           0  QCA6174_SCAQBAFM.sym ABSOLUTE
    hci_sco_tx_pkt                           0x00001f3c   Data           0  QCA6174_SCAQBAFM.sym ABSOLUTE
    PFAL_VOICE_HCISCO                        0x00002284   Data           0  QCA6174_SCAQBAFM.sym ABSOLUTE
    PFAL_CRYPTO_Ram                          0x00002384   Data           0  QCA6174_SCAQBAFM.sym ABSOLUTE
    CFG_Parameters_BT                        0x00002414   Data           0  QCA6174_SCAQBAFM.sym ABSOLUTE
    CFG_Parameters_Voice                     0x0000251c   Data           0  QCA6174_SCAQBAFM.sym ABSOLUTE
    aFMB_StaticPool                          0x00002558   Data           0  QCA6174_SCAQBAFM.sym ABSOLUTE
    EptmSeqState                             0x00002600   Data           0  QCA6174_SCAQBAFM.sym ABSOLUTE
    SLC_BCA                                  0x00002620   Data           0  QCA6174_SCAQBAFM.sym ABSOLUTE
    SLC_roleSwitchParam                      0x0000263c   Data           0  QCA6174_SCAQBAFM.sym ABSOLUTE
    SLC_curContext                           0x00002668   Data           0  QCA6174_SCAQBAFM.sym ABSOLUTE
    SLC_rxFifo                               0x000026a0   Data           0  QCA6174_SCAQBAFM.sym ABSOLUTE
    SLC_txFifo                               0x0000270c   Data           0  QCA6174_SCAQBAFM.sym ABSOLUTE
    SDB_inqCtrl                              0x00002718   Data           0  QCA6174_SCAQBAFM.sym ABSOLUTE
    SDB_OOB_info                             0x00002734   Data           0  QCA6174_SCAQBAFM.sym ABSOLUTE
    SDB_inquiryScan                          0x00002794   Data           0  QCA6174_SCAQBAFM.sym ABSOLUTE
    SDB_pageScan                             0x000027e8   Data           0  QCA6174_SCAQBAFM.sym ABSOLUTE
    SDB_LE_AdvChanSyncWordInfo               0x0000281c   Data           0  QCA6174_SCAQBAFM.sym ABSOLUTE
    SDB_LE_TestModeSyncWordInfo              0x0000282c   Data           0  QCA6174_SCAQBAFM.sym ABSOLUTE
    SDB_LE_Scan_Initiator                    0x0000283c   Data           0  QCA6174_SCAQBAFM.sym ABSOLUTE
    SDB_LE_Scan_Scanner                      0x00002894   Data           0  QCA6174_SCAQBAFM.sym ABSOLUTE
    SDB_LE_Standard_Scan_Params              0x000028ec   Data           0  QCA6174_SCAQBAFM.sym ABSOLUTE
    SDB_LE_Batch_Scan_Params                 0x000028f6   Data           0  QCA6174_SCAQBAFM.sym ABSOLUTE
    SDB_LE_AD_UUID_FilterList                0x00002900   Data           0  QCA6174_SCAQBAFM.sym ABSOLUTE
    SDB_LE_AdvPCFServiceUUIDList             0x0000290c   Data           0  QCA6174_SCAQBAFM.sym ABSOLUTE
    SDB_LE_AdvPCFServiceSolicitUUIDList      0x00002918   Data           0  QCA6174_SCAQBAFM.sym ABSOLUTE
    SDB_LE_AdvPCFLocalNameList               0x00002924   Data           0  QCA6174_SCAQBAFM.sym ABSOLUTE
    SDB_LE_AdvPCFManuDataList                0x00002930   Data           0  QCA6174_SCAQBAFM.sym ABSOLUTE
    SDB_LE_AdvPCFServiceDataList             0x0000293c   Data           0  QCA6174_SCAQBAFM.sym ABSOLUTE
    SDB_LE_BS_ScanParam                      0x00002948   Data           0  QCA6174_SCAQBAFM.sym ABSOLUTE
    SDB_LE_OFOL_Parameters                   0x00002954   Data           0  QCA6174_SCAQBAFM.sym ABSOLUTE
    SDB_Ant                                  0x00002960   Data           0  QCA6174_SCAQBAFM.sym ABSOLUTE
    SDB_inquiry                              0x00002a18   Data           0  QCA6174_SCAQBAFM.sym ABSOLUTE
    SDB_extInquiryData                       0x00002a34   Data           0  QCA6174_SCAQBAFM.sym ABSOLUTE
    SDB_page                                 0x00002a5c   Data           0  QCA6174_SCAQBAFM.sym ABSOLUTE
    SDB_broadcast                            0x00002a80   Data           0  QCA6174_SCAQBAFM.sym ABSOLUTE
    SDB_scatternet                           0x00002a9c   Data           0  QCA6174_SCAQBAFM.sym ABSOLUTE
    SDB_piconet                              0x00002b38   Data           0  QCA6174_SCAQBAFM.sym ABSOLUTE
    SDB_aTotalpActiveConn                    0x00002b4c   Data           0  QCA6174_SCAQBAFM.sym ABSOLUTE
    SDB_HCI_connectionHandleMap              0x00002ba0   Data           0  QCA6174_SCAQBAFM.sym ABSOLUTE
    SDB_aTotalpLeConn                        0x00002c58   Data           0  QCA6174_SCAQBAFM.sym ABSOLUTE
    SDB_BTUnitLocalName                      0x00002ca8   Data           0  QCA6174_SCAQBAFM.sym ABSOLUTE
    SDB_IRK_Table                            0x00002da4   Data           0  QCA6174_SCAQBAFM.sym ABSOLUTE
    SDB_voiceSettings                        0x00002db0   Data           0  QCA6174_SCAQBAFM.sym ABSOLUTE
    SDB_SyncTrain                            0x00002de0   Data           0  QCA6174_SCAQBAFM.sym ABSOLUTE
    SDB_Linkless                             0x00002e00   Data           0  QCA6174_SCAQBAFM.sym ABSOLUTE
    SDB_ExtTrigger                           0x00002e44   Data           0  QCA6174_SCAQBAFM.sym ABSOLUTE
    SDB_SyncTrainScan                        0x00002e50   Data           0  QCA6174_SCAQBAFM.sym ABSOLUTE
    SDB_ClockAdjust                          0x00002eac   Data           0  QCA6174_SCAQBAFM.sym ABSOLUTE
    SDB_qHCI_EventFilter                     0x00002ec0   Data           0  QCA6174_SCAQBAFM.sym ABSOLUTE
    SDB_Remote                               0x00002ed0   Data           0  QCA6174_SCAQBAFM.sym ABSOLUTE
    PM_resourceListCurrState                 0x00002ee4   Data           0  QCA6174_SCAQBAFM.sym ABSOLUTE
    g_mwsinfo                                0x00002ef8   Data           0  QCA6174_SCAQBAFM.sym ABSOLUTE
    my_ctx                                   0x00002f10   Data           0  QCA6174_SCAQBAFM.sym ABSOLUTE
    gPRUIParams                              0x00003018   Data           0  QCA6174_SCAQBAFM.sym ABSOLUTE
    PFAL_SYS_AudioData                       0x0000302c   Data           0  QCA6174_SCAQBAFM.sym ABSOLUTE
    PFAL_VoiceChan                           0x000048b4   Data           0  QCA6174_SCAQBAFM.sym ABSOLUTE
    gSiFlashInfo                             0x000048c8   Data           0  QCA6174_SCAQBAFM.sym ABSOLUTE
    gEepromInfo                              0x000048d4   Data           0  QCA6174_SCAQBAFM.sym ABSOLUTE
    efuse_api_space                          0x000048e0   Data           0  QCA6174_SCAQBAFM.sym ABSOLUTE
    efuse_space                              0x00004928   Data           0  QCA6174_SCAQBAFM.sym ABSOLUTE
    CFG_Parameters_RM                        0x00004b28   Data           0  QCA6174_SCAQBAFM.sym ABSOLUTE
    aucTxAnt                                 0x00005084   Data           0  QCA6174_SCAQBAFM.sym ABSOLUTE
    pucTxAnt                                 0x000050ec   Data           0  QCA6174_SCAQBAFM.sym ABSOLUTE
    aucTxAdvTransfer                         0x0000510c   Data           0  QCA6174_SCAQBAFM.sym ABSOLUTE
    aucRxAdvTransfer                         0x0000512a   Data           0  QCA6174_SCAQBAFM.sym ABSOLUTE
    pucRxAnt                                 0x00005148   Data           0  QCA6174_SCAQBAFM.sym ABSOLUTE
    aucRxAnt                                 0x00005168   Data           0  QCA6174_SCAQBAFM.sym ABSOLUTE
    auChannelEvents                          0x000051d0   Data           0  QCA6174_SCAQBAFM.sym ABSOLUTE
    auChannelState                           0x000051f0   Data           0  QCA6174_SCAQBAFM.sym ABSOLUTE
    auChannelExtAssign                       0x00005210   Data           0  QCA6174_SCAQBAFM.sym ABSOLUTE
    asIncExcListConf                         0x00005230   Data           0  QCA6174_SCAQBAFM.sym ABSOLUTE
    asChannelMonitor                         0x00005250   Data           0  QCA6174_SCAQBAFM.sym ABSOLUTE
    ausChannelTime                           0x00005260   Data           0  QCA6174_SCAQBAFM.sym ABSOLUTE
    ausChannelPeriod                         0x00005270   Data           0  QCA6174_SCAQBAFM.sym ABSOLUTE
    asEventQue                               0x00005280   Data           0  QCA6174_SCAQBAFM.sym ABSOLUTE
    ausRxSearchWaveForm                      0x00005290   Data           0  QCA6174_SCAQBAFM.sym ABSOLUTE
    astANTActivityInfo                       0x000052a0   Data           0  QCA6174_SCAQBAFM.sym ABSOLUTE
    auANTCoexConfig                          0x00005318   Data           0  QCA6174_SCAQBAFM.sym ABSOLUTE
    auANTAdvCoexConfig                       0x00005338   Data           0  QCA6174_SCAQBAFM.sym ABSOLUTE
    ausANTTxConnKeepAliveConfig              0x00005358   Data           0  QCA6174_SCAQBAFM.sym ABSOLUTE
    ausANTRxConnKeepAliveConfig              0x00005368   Data           0  QCA6174_SCAQBAFM.sym ABSOLUTE
    ausConnPrioritySpacingConfig             0x00005378   Data           0  QCA6174_SCAQBAFM.sym ABSOLUTE
    ausANTTxConnBlockedCount                 0x00005388   Data           0  QCA6174_SCAQBAFM.sym ABSOLUTE
    ausANTRxConnBlockedCount                 0x00005398   Data           0  QCA6174_SCAQBAFM.sym ABSOLUTE
    auANTCoexState                           0x000053a8   Data           0  QCA6174_SCAQBAFM.sym ABSOLUTE
    ausNetworkAddress                        0x000053c8   Data           0  QCA6174_SCAQBAFM.sym ABSOLUTE
    ausTxTimeoutMonitor                      0x000053d8   Data           0  QCA6174_SCAQBAFM.sym ABSOLUTE
    aucFreqTable                             0x000053e8   Data           0  QCA6174_SCAQBAFM.sym ABSOLUTE
    aucIDList                                0x00005400   Data           0  QCA6174_SCAQBAFM.sym ABSOLUTE
    astTxBuffer                              0x00005480   Data           0  QCA6174_SCAQBAFM.sym ABSOLUTE
    stCoexANT_ChanState                      0x00005880   Data           0  QCA6174_SCAQBAFM.sym ABSOLUTE
    LLM_LE_encrStartEncryptionCommandSave    0x00005900   Data           0  QCA6174_SCAQBAFM.sym ABSOLUTE
    LLM_AFH_LocalChannelClassificationAFH    0x00005920   Data           0  QCA6174_SCAQBAFM.sym ABSOLUTE
    LLM_AFH_LocalChannelClassificationUBC    0x0000592c   Data           0  QCA6174_SCAQBAFM.sym ABSOLUTE
    LLM_AFH_CombinedChannelClassificationAFH 0x00005938   Data           0  QCA6174_SCAQBAFM.sym ABSOLUTE
    LLM_AFH_ChannelMapAFH                    0x00005944   Data           0  QCA6174_SCAQBAFM.sym ABSOLUTE
    LLM_AFH_ChannelMapUBC                    0x00005950   Data           0  QCA6174_SCAQBAFM.sym ABSOLUTE
    LLM_AFH_HostSpecifiedChanMapUBC          0x0000595c   Data           0  QCA6174_SCAQBAFM.sym ABSOLUTE
    LLM_AFH_HostSpecifiedChanMapAFH          0x00005968   Data           0  QCA6174_SCAQBAFM.sym ABSOLUTE
    LLM_AFH_HostMaps                         0x00005974   Data           0  QCA6174_SCAQBAFM.sym ABSOLUTE
    LLM_AFH_buffer                           0x00005998   Data           0  QCA6174_SCAQBAFM.sym ABSOLUTE
    LLM_randomNumberData                     0x000059e7   Data           0  QCA6174_SCAQBAFM.sym ABSOLUTE
    LLM_aMemPoolSDB                          0x00005a08   Data           0  QCA6174_SCAQBAFM.sym ABSOLUTE
    LLM_sp                                   0x00005a30   Data           0  QCA6174_SCAQBAFM.sym ABSOLUTE
    LLM_lmpSeqSCO                            0x00005aa8   Data           0  QCA6174_SCAQBAFM.sym ABSOLUTE
    LLM_utilityTimer                         0x00005b0c   Data           0  QCA6174_SCAQBAFM.sym ABSOLUTE
    EIR_AllocData                            0x00005b60   Data           0  QCA6174_SCAQBAFM.sym ABSOLUTE
    LLM_AfhData                              0x00005b80   Data           0  QCA6174_SCAQBAFM.sym ABSOLUTE
    LLM_AfhHangBands                         0x00005d2c   Data           0  QCA6174_SCAQBAFM.sym ABSOLUTE
    SLC_DisQ_DispatchedElem                  0x00005d40   Data           0  QCA6174_SCAQBAFM.sym ABSOLUTE
    VersionString                            0x00005d50   Data           0  QCA6174_SCAQBAFM.sym ABSOLUTE
    gWipTmrMgmtObj                           0x00005db4   Data           0  QCA6174_SCAQBAFM.sym ABSOLUTE
    wci2_hdlc_buffer                         0x00005dc4   Data           0  QCA6174_SCAQBAFM.sym ABSOLUTE
    PFAL_VOICE_PCM                           0x00005e44   Data           0  QCA6174_SCAQBAFM.sym ABSOLUTE
    PFAL_VOICE_NBSProcessor                  0x00005e98   Data           0  QCA6174_SCAQBAFM.sym ABSOLUTE
    PFAL_VOICE_WBSProcessor                  0x00005ebc   Data           0  QCA6174_SCAQBAFM.sym ABSOLUTE
    stTxMessage                              0x00005ed4   Data           0  QCA6174_SCAQBAFM.sym ABSOLUTE
    aucANTTxSerialQueue                      0x00005ef8   Data           0  QCA6174_SCAQBAFM.sym ABSOLUTE
    tempPoint1                               0x000062f8   Data           0  QCA6174_SCAQBAFM.sym ABSOLUTE
    tempPoint2                               0x00006344   Data           0  QCA6174_SCAQBAFM.sym ABSOLUTE
    tempValue                                0x00006390   Data           0  QCA6174_SCAQBAFM.sym ABSOLUTE
    ctx256                                   0x000063b8   Data           0  QCA6174_SCAQBAFM.sym ABSOLUTE
    w                                        0x00006420   Data           0  QCA6174_SCAQBAFM.sym ABSOLUTE
    Q                                        0x000064b0   Data           0  QCA6174_SCAQBAFM.sym ABSOLUTE
    SYS_Stack                                0x00006538   Data           0  QCA6174_SCAQBAFM.sym ABSOLUTE
    __limit_sp                               0x00006538   Data           0  QCA6174_SCAQBAFM.sym ABSOLUTE
    SYS_StackTop                             0x00006a38   Data           0  QCA6174_SCAQBAFM.sym ABSOLUTE
    __initial_sp                             0x00006a38   Data           0  QCA6174_SCAQBAFM.sym ABSOLUTE
    __initial_contex                         0x00006a7c   Data           0  QCA6174_SCAQBAFM.sym ABSOLUTE
    PFAL_DBG_CoreDumpInfo_2                  0x0000fee0   Data           0  QCA6174_SCAQBAFM.sym ABSOLUTE
    PFAL_DBG_ActivityMask                    0x00010000   Data           0  QCA6174_SCAQBAFM.sym ABSOLUTE
    PFAL_DBG_UartInitialized                 0x00010001   Data           0  QCA6174_SCAQBAFM.sym ABSOLUTE
    gHostLogCtrlEnabled                      0x00010002   Data           0  QCA6174_SCAQBAFM.sym ABSOLUTE
    gIsAssertCrash                           0x00010003   Data           0  QCA6174_SCAQBAFM.sym ABSOLUTE
    ISR_Log_DumpTopology                     0x00010004   Data           0  QCA6174_SCAQBAFM.sym ABSOLUTE
    PFAL_DBG_ActivityToggle                  0x00010007   Data           0  QCA6174_SCAQBAFM.sym ABSOLUTE
    PF_DBG_nSequenceCount                    0x00010008   Data           0  QCA6174_SCAQBAFM.sym ABSOLUTE
    PFAL_DBG_SysExceptionNotify              0x0001000c   Data           0  QCA6174_SCAQBAFM.sym ABSOLUTE
    PFAL_DBG_pFaultData                      0x00010010   Data           0  QCA6174_SCAQBAFM.sym ABSOLUTE
    gDbgScanTypeStr                          0x00010018   Data           0  QCA6174_SCAQBAFM.sym ABSOLUTE
    LE_ADV_TYPES                             0x00010024   Data           0  QCA6174_SCAQBAFM.sym ABSOLUTE
    __stdout                                 0x00010034   Data           0  QCA6174_SCAQBAFM.sym ABSOLUTE
    wipowerAppState                          0x00010038   Data           0  QCA6174_SCAQBAFM.sym ABSOLUTE
    WlanCalWhileBTCal                        0x0001003c   Data           0  QCA6174_SCAQBAFM.sym ABSOLUTE
    MCI_Predicted                            0x0001003d   Data           0  QCA6174_SCAQBAFM.sym ABSOLUTE
    g_mci_ready                              0x0001003e   Data           0  QCA6174_SCAQBAFM.sym ABSOLUTE
    ScanActivityBitMapFlag                   0x0001003f   Data           0  QCA6174_SCAQBAFM.sym ABSOLUTE
    Gpm_queue_voerflow_flag                  0x00010040   Data           0  QCA6174_SCAQBAFM.sym ABSOLUTE
    Sniff_prediction_flag                    0x00010041   Data           0  QCA6174_SCAQBAFM.sym ABSOLUTE
    g_ANT_LinkID_Start                       0x00010042   Data           0  QCA6174_SCAQBAFM.sym ABSOLUTE
    bMCISchedMsg_LEContinue_Enable           0x00010043   Data           0  QCA6174_SCAQBAFM.sym ABSOLUTE
    nSchedMsgUpdate_StartTime_MinusValue     0x00010044   Data           0  QCA6174_SCAQBAFM.sym ABSOLUTE
    nSchedMsgUpdate_StartTime_PlusValue      0x00010045   Data           0  QCA6174_SCAQBAFM.sym ABSOLUTE
    MCI_NoLinkState                          0x00010046   Data           0  QCA6174_SCAQBAFM.sym ABSOLUTE
    mapMCIPrioIdx_ANT                        0x00010047   Data           0  QCA6174_SCAQBAFM.sym ABSOLUTE
    ScanActivityBitMap                       0x0001004c   Data           0  QCA6174_SCAQBAFM.sym ABSOLUTE
    ScanActivityBitMapWakeUpCopy             0x00010050   Data           0  QCA6174_SCAQBAFM.sym ABSOLUTE
    LE_time_start                            0x00010054   Data           0  QCA6174_SCAQBAFM.sym ABSOLUTE
    LE_time_offset                           0x00010058   Data           0  QCA6174_SCAQBAFM.sym ABSOLUTE
    pgSniffConn                              0x0001005c   Data           0  QCA6174_SCAQBAFM.sym ABSOLUTE
    pgVoiceConn                              0x00010060   Data           0  QCA6174_SCAQBAFM.sym ABSOLUTE
    PFAL_COEX_MCI_BT_CAL_REQ_CB              0x00010064   Data           0  QCA6174_SCAQBAFM.sym ABSOLUTE
    MCI_Schd_Send_Func                       0x00010068   Data           0  QCA6174_SCAQBAFM.sym ABSOLUTE
    LE_last_tx_duration                      0x0001006c   Data           0  QCA6174_SCAQBAFM.sym ABSOLUTE
    LE_last_rx_duration                      0x0001006e   Data           0  QCA6174_SCAQBAFM.sym ABSOLUTE
    tech_token                               0x00010070   Data           0  QCA6174_SCAQBAFM.sym ABSOLUTE
    pcoex_qmi_idl_service_object             0x00010074   Data           0  QCA6174_SCAQBAFM.sym ABSOLUTE
    g_mws_frame_ptr                          0x00010078   Data           0  QCA6174_SCAQBAFM.sym ABSOLUTE
    g_mws_msg_ptr                            0x0001007c   Data           0  QCA6174_SCAQBAFM.sym ABSOLUTE
    PF_OS_topTimerList                       0x00010080   Data           0  QCA6174_SCAQBAFM.sym ABSOLUTE
    PF_OS_TopTimerModified                   0x00010081   Data           0  QCA6174_SCAQBAFM.sym ABSOLUTE
    PF_OS_bSystemReady                       0x00010082   Data           0  QCA6174_SCAQBAFM.sym ABSOLUTE
    PF_OS_StartTaskMask                      0x00010083   Data           0  QCA6174_SCAQBAFM.sym ABSOLUTE
    PF_OS_SystemReadyMask                    0x00010084   Data           0  QCA6174_SCAQBAFM.sym ABSOLUTE
    PF_OS_Ticks                              0x00010088   Data           0  QCA6174_SCAQBAFM.sym ABSOLUTE
    SYS_CFG_STACK_SIZES                      0x0001008c   Data           0  QCA6174_SCAQBAFM.sym ABSOLUTE
    SYS_CFG_TASK_STACK                       0x00010098   Data           0  QCA6174_SCAQBAFM.sym ABSOLUTE
    PFAL_GPIO_FunctionMappingTbl             0x000100b0   Data           0  QCA6174_SCAQBAFM.sym ABSOLUTE
    PFAL_GPIO_RomePinMap_Usb                 0x000100b4   Data           0  QCA6174_SCAQBAFM.sym ABSOLUTE
    PFAL_GPIO_RomePinMap_Uart                0x000100cf   Data           0  QCA6174_SCAQBAFM.sym ABSOLUTE
    PFAL_GPIO_RomePinMap_QctWiPower          0x000100ea   Data           0  QCA6174_SCAQBAFM.sym ABSOLUTE
    PFAL_GPIO_RomePinMap_3rdWiPower          0x00010105   Data           0  QCA6174_SCAQBAFM.sym ABSOLUTE
    PFAL_IM_NVIC_Enabled                     0x00010120   Data           0  QCA6174_SCAQBAFM.sym ABSOLUTE
    PFAL_IM_NVIC_Irq_EnMask                  0x00010124   Data           0  QCA6174_SCAQBAFM.sym ABSOLUTE
    PFAL_FS_IsInitalized                     0x00010128   Data           0  QCA6174_SCAQBAFM.sym ABSOLUTE
    PFAL_FS_DEV_pFunctions                   0x0001012c   Data           0  QCA6174_SCAQBAFM.sym ABSOLUTE
    gFSFileTable                             0x00010130   Data           0  QCA6174_SCAQBAFM.sym ABSOLUTE
    PFAL_FS_SiFlashFunctions                 0x00010148   Data           0  QCA6174_SCAQBAFM.sym ABSOLUTE
    PFAL_FS_EepromFunctions                  0x00010164   Data           0  QCA6174_SCAQBAFM.sym ABSOLUTE
    pruHandOffState                          0x00010180   Data           0  QCA6174_SCAQBAFM.sym ABSOLUTE
    pA4wpPeroidTimer                         0x00010184   Data           0  QCA6174_SCAQBAFM.sym ABSOLUTE
    fBtShouldRecalibrate                     0x00010188   Data           0  QCA6174_SCAQBAFM.sym ABSOLUTE
    is_sw_trigger                            0x00010189   Data           0  QCA6174_SCAQBAFM.sym ABSOLUTE
    MCIContNackReceived                      0x0001018a   Data           0  QCA6174_SCAQBAFM.sym ABSOLUTE
    gpm_parsebuf_addr                        0x0001018c   Data           0  QCA6174_SCAQBAFM.sym ABSOLUTE
    MCI_RX_CMD                               0x00010190   Data           0  QCA6174_SCAQBAFM.sym ABSOLUTE
    gPRUICommonFun                           0x0001019c   Data           0  QCA6174_SCAQBAFM.sym ABSOLUTE
    g_usb_inited                             0x000101a4   Data           0  QCA6174_SCAQBAFM.sym ABSOLUTE
    usb_str_man                              0x000101a5   Data           0  QCA6174_SCAQBAFM.sym ABSOLUTE
    usb_str_pro                              0x000101a6   Data           0  QCA6174_SCAQBAFM.sym ABSOLUTE
    usb_str_ser                              0x000101a7   Data           0  QCA6174_SCAQBAFM.sym ABSOLUTE
    usb_str_con                              0x000101a8   Data           0  QCA6174_SCAQBAFM.sym ABSOLUTE
    rtw_1                                    0x000101aa   Data           0  QCA6174_SCAQBAFM.sym ABSOLUTE
    USBPolicyConfig                          0x000101ac   Data           0  QCA6174_SCAQBAFM.sym ABSOLUTE
    glpm                                     0x000101b0   Data           0  QCA6174_SCAQBAFM.sym ABSOLUTE
    usb_hw_cap                               0x000101b4   Data           0  QCA6174_SCAQBAFM.sym ABSOLUTE
    USBStringTable                           0x000101bc   Data           0  QCA6174_SCAQBAFM.sym ABSOLUTE
    USB_Assco_Desc                           0x000101c4   Data           0  QCA6174_SCAQBAFM.sym ABSOLUTE
    USBStrings                               0x000101cc   Data           0  QCA6174_SCAQBAFM.sym ABSOLUTE
    g_patched                                0x00010254   Data           0  QCA6174_SCAQBAFM.sym ABSOLUTE
    dfu_iid                                  0x00010255   Data           0  QCA6174_SCAQBAFM.sym ABSOLUTE
    dfu_eps                                  0x00010258   Data           0  QCA6174_SCAQBAFM.sym ABSOLUTE
    dfu_endpoint                             0x0001025c   Data           0  QCA6174_SCAQBAFM.sym ABSOLUTE
    dfu_interface                            0x00010264   Data           0  QCA6174_SCAQBAFM.sym ABSOLUTE
    gp_hciCtx                                0x00010274   Data           0  QCA6174_SCAQBAFM.sym ABSOLUTE
    stack_initialized                        0x00010290   Data           0  QCA6174_SCAQBAFM.sym ABSOLUTE
    sal_costom_gap_cb                        0x00010294   Data           0  QCA6174_SCAQBAFM.sym ABSOLUTE
    gapProfileState                          0x00010298   Data           0  QCA6174_SCAQBAFM.sym ABSOLUTE
    scanRspData                              0x0001029a   Data           0  QCA6174_SCAQBAFM.sym ABSOLUTE
    advertData                               0x000102a8   Data           0  QCA6174_SCAQBAFM.sym ABSOLUTE
    pruCachedSetting                         0x000102b4   Data           0  QCA6174_SCAQBAFM.sym ABSOLUTE
    appParam                                 0x000102b8   Data           0  QCA6174_SCAQBAFM.sym ABSOLUTE
    pWipLeStackMemPoolObj                    0x00010304   Data           0  QCA6174_SCAQBAFM.sym ABSOLUTE
    coex_tech_band_type_data_v02             0x00010308   Data           0  QCA6174_SCAQBAFM.sym ABSOLUTE
    coex_antenna_state_data_v02              0x0001030d   Data           0  QCA6174_SCAQBAFM.sym ABSOLUTE
    coex_tech_sync_state_data_v02            0x00010312   Data           0  QCA6174_SCAQBAFM.sym ABSOLUTE
    coex_tech_state_update_req_data_v02      0x00010317   Data           0  QCA6174_SCAQBAFM.sym ABSOLUTE
    coex_wwan_lte_state_data_v02             0x0001031a   Data           0  QCA6174_SCAQBAFM.sym ABSOLUTE
    coex_wwan_tdscdma_state_data_v02         0x00010327   Data           0  QCA6174_SCAQBAFM.sym ABSOLUTE
    coex_wwan_gsm_state_data_v02             0x00010330   Data           0  QCA6174_SCAQBAFM.sym ABSOLUTE
    coex_wwan_onex_state_data_v02            0x00010339   Data           0  QCA6174_SCAQBAFM.sym ABSOLUTE
    coex_wwan_hdr_state_data_v02             0x00010342   Data           0  QCA6174_SCAQBAFM.sym ABSOLUTE
    coex_wwan_wcdma_state_data_v02           0x0001034b   Data           0  QCA6174_SCAQBAFM.sym ABSOLUTE
    coex_wlan_wifi_connection_info_data_v02  0x00010354   Data           0  QCA6174_SCAQBAFM.sym ABSOLUTE
    coex_wlan_wifi_state_data_v02            0x0001035b   Data           0  QCA6174_SCAQBAFM.sym ABSOLUTE
    coex_diversity_antenna_state_data_v02    0x0001036a   Data           0  QCA6174_SCAQBAFM.sym ABSOLUTE
    qmi_coex_tech_sync_req_msg_data_v02      0x00010371   Data           0  QCA6174_SCAQBAFM.sym ABSOLUTE
    qmi_coex_tech_sync_resp_msg_data_v02     0x00010379   Data           0  QCA6174_SCAQBAFM.sym ABSOLUTE
    qmi_coex_tech_sync_update_ind_msg_data_v02 0x00010381   Data           0  QCA6174_SCAQBAFM.sym ABSOLUTE
    qmi_coex_tech_state_update_req_msg_data_v02 0x00010387   Data           0  QCA6174_SCAQBAFM.sym ABSOLUTE
    qmi_coex_wwan_lte_state_ind_msg_data_v02 0x0001038f   Data           0  QCA6174_SCAQBAFM.sym ABSOLUTE
    qmi_coex_wwan_tdscdma_state_ind_msg_data_v02 0x00010395   Data           0  QCA6174_SCAQBAFM.sym ABSOLUTE
    qmi_coex_wwan_gsm_state_ind_msg_data_v02 0x0001039b   Data           0  QCA6174_SCAQBAFM.sym ABSOLUTE
    qmi_coex_wwan_onex_state_ind_msg_data_v02 0x000103a1   Data           0  QCA6174_SCAQBAFM.sym ABSOLUTE
    qmi_coex_wwan_hdr_state_ind_msg_data_v02 0x000103a7   Data           0  QCA6174_SCAQBAFM.sym ABSOLUTE
    qmi_coex_wwan_wcdma_state_ind_msg_data_v02 0x000103ad   Data           0  QCA6174_SCAQBAFM.sym ABSOLUTE
    qmi_coex_wlan_wifi_state_ind_msg_data_v02 0x000103b3   Data           0  QCA6174_SCAQBAFM.sym ABSOLUTE
    qmi_coex_diversity_antenna_state_ind_msg_data_v02 0x000103b9   Data           0  QCA6174_SCAQBAFM.sym ABSOLUTE
    coex_type_table_v02                      0x000103c0   Data           0  QCA6174_SCAQBAFM.sym ABSOLUTE
    coex_message_table_v02                   0x00010428   Data           0  QCA6174_SCAQBAFM.sym ABSOLUTE
    coex_qmi_idl_type_table_object_referenced_tables_v02 0x00010490   Data           0  QCA6174_SCAQBAFM.sym ABSOLUTE
    coex_qmi_idl_type_table_object_v02       0x00010498   Data           0  QCA6174_SCAQBAFM.sym ABSOLUTE
    coex_service_indication_messages_v02     0x000104b0   Data           0  QCA6174_SCAQBAFM.sym ABSOLUTE
    coex_qmi_idl_service_object_v02          0x00010500   Data           0  QCA6174_SCAQBAFM.sym ABSOLUTE
    g_txp_retry_bits                         0x00010530   Data           0  QCA6174_SCAQBAFM.sym ABSOLUTE
    bt_iid0                                  0x00010534   Data           0  QCA6174_SCAQBAFM.sym ABSOLUTE
    bt_iid1                                  0x00010535   Data           0  QCA6174_SCAQBAFM.sym ABSOLUTE
    g_drop_data                              0x00010536   Data           0  QCA6174_SCAQBAFM.sym ABSOLUTE
    usb_sco_rx_idx                           0x00010537   Data           0  QCA6174_SCAQBAFM.sym ABSOLUTE
    usb_sco_tx_idx                           0x00010538   Data           0  QCA6174_SCAQBAFM.sym ABSOLUTE
    static_sco_pkt_len                       0x00010539   Data           0  QCA6174_SCAQBAFM.sym ABSOLUTE
    is_sco_start                             0x0001053a   Data           0  QCA6174_SCAQBAFM.sym ABSOLUTE
    isoout                                   0x0001053c   Data           0  QCA6174_SCAQBAFM.sym ABSOLUTE
    isoin                                    0x00010540   Data           0  QCA6174_SCAQBAFM.sym ABSOLUTE
    bt_in_endpoint                           0x00010544   Data           0  QCA6174_SCAQBAFM.sym ABSOLUTE
    bt_out_endpoint                          0x0001054c   Data           0  QCA6174_SCAQBAFM.sym ABSOLUTE
    bt_intf0_intferface                      0x00010554   Data           0  QCA6174_SCAQBAFM.sym ABSOLUTE
    bt_intf1_intferface                      0x00010564   Data           0  QCA6174_SCAQBAFM.sym ABSOLUTE
    usb_transport                            0x00010574   Data           0  QCA6174_SCAQBAFM.sym ABSOLUTE
    loc_controllers                          0x000105a0   Data           0  QCA6174_SCAQBAFM.sym ABSOLUTE
    BDADDR_EMPTY                             0x000105a4   Data           0  QCA6174_SCAQBAFM.sym ABSOLUTE
    gap_users                                0x000105ac   Data           0  QCA6174_SCAQBAFM.sym ABSOLUTE
    pass_through_mode                        0x000105b4   Data           0  QCA6174_SCAQBAFM.sym ABSOLUTE
    att_opeartion_timeout                    0x000105b8   Data           0  QCA6174_SCAQBAFM.sym ABSOLUTE
    hci_wrap                                 0x000105bc   Data           0  QCA6174_SCAQBAFM.sym ABSOLUTE
    adp_ctx                                  0x000105c0   Data           0  QCA6174_SCAQBAFM.sym ABSOLUTE
    a4wpServiceUUID                          0x000105c4   Data           0  QCA6174_SCAQBAFM.sym ABSOLUTE
    a4wpPruControlProps                      0x000105c6   Data           0  QCA6174_SCAQBAFM.sym ABSOLUTE
    a4wpPruControl                           0x000105d9   Data           0  QCA6174_SCAQBAFM.sym ABSOLUTE
    a4wpPtuStaticParamProps                  0x000105de   Data           0  QCA6174_SCAQBAFM.sym ABSOLUTE
    a4wpPruAlertProps                        0x000105f1   Data           0  QCA6174_SCAQBAFM.sym ABSOLUTE
    a4wpPruAlert                             0x00010604   Data           0  QCA6174_SCAQBAFM.sym ABSOLUTE
    a4wpPruAlertDesc                         0x00010606   Data           0  QCA6174_SCAQBAFM.sym ABSOLUTE
    a4wpPruStaticParamProps                  0x00010608   Data           0  QCA6174_SCAQBAFM.sym ABSOLUTE
    a4wpPruDynamicParamProps                 0x0001061b   Data           0  QCA6174_SCAQBAFM.sym ABSOLUTE
    a4wpParamTable                           0x00010630   Data           0  QCA6174_SCAQBAFM.sym ABSOLUTE
    a4wpAttrTbl                              0x00010660   Data           0  QCA6174_SCAQBAFM.sym ABSOLUTE
    qmi_response_type_data_v01               0x000107b0   Data           0  QCA6174_SCAQBAFM.sym ABSOLUTE
    qmi_get_supported_msgs_resp_data_v01     0x000107b5   Data           0  QCA6174_SCAQBAFM.sym ABSOLUTE
    qmi_get_supported_fields_req_data_v01    0x000107c1   Data           0  QCA6174_SCAQBAFM.sym ABSOLUTE
    qmi_get_supported_fields_resp_data_v01   0x000107c4   Data           0  QCA6174_SCAQBAFM.sym ABSOLUTE
    common_type_table_v01                    0x000107dc   Data           0  QCA6174_SCAQBAFM.sym ABSOLUTE
    common_message_table_v01                 0x000107e4   Data           0  QCA6174_SCAQBAFM.sym ABSOLUTE
    common_qmi_idl_type_table_object_referenced_tables_v01 0x00010804   Data           0  QCA6174_SCAQBAFM.sym ABSOLUTE
    common_qmi_idl_type_table_object_v01     0x00010808   Data           0  QCA6174_SCAQBAFM.sym ABSOLUTE
    l2cap_context                            0x00010824   Data           0  QCA6174_SCAQBAFM.sym ABSOLUTE
    io_cap_table                             0x00010828   Data           0  QCA6174_SCAQBAFM.sym ABSOLUTE
    const_Rb                                 0x00010841   Data           0  QCA6174_SCAQBAFM.sym ABSOLUTE
    PFAL_PROC_CRC32                          0x00010854   Data           0  QCA6174_SCAQBAFM.sym ABSOLUTE
    PFAL_PROC_rand16                         0x00010858   Data           0  QCA6174_SCAQBAFM.sym ABSOLUTE
    PFAL_PROC_Uint16Msb                      0x0001085c   Data           0  QCA6174_SCAQBAFM.sym ABSOLUTE
    PFAL_PROC_Uint16Lsb                      0x00010860   Data           0  QCA6174_SCAQBAFM.sym ABSOLUTE
    PFAL_PROC_Uint32Byte3                    0x00010864   Data           0  QCA6174_SCAQBAFM.sym ABSOLUTE
    PFAL_PROC_Uint32Byte2                    0x00010868   Data           0  QCA6174_SCAQBAFM.sym ABSOLUTE
    PFAL_PROC_Uint32Byte1                    0x0001086c   Data           0  QCA6174_SCAQBAFM.sym ABSOLUTE
    PFAL_PROC_Uint32Byte0                    0x00010870   Data           0  QCA6174_SCAQBAFM.sym ABSOLUTE
    PFAL_DBG_UART_Init                       0x00010874   Data           0  QCA6174_SCAQBAFM.sym ABSOLUTE
    PFAL_DBG_UART_Write                      0x00010878   Data           0  QCA6174_SCAQBAFM.sym ABSOLUTE
    PFAL_DBG_ActivateLoggerPort              0x0001087c   Data           0  QCA6174_SCAQBAFM.sym ABSOLUTE
    PFAL_DBG_DeactivateLoggerPort            0x00010880   Data           0  QCA6174_SCAQBAFM.sym ABSOLUTE
    PFAL_DBG_SetLedState                     0x00010884   Data           0  QCA6174_SCAQBAFM.sym ABSOLUTE
    PFAL_DBG_ActivityStateEval               0x00010888   Data           0  QCA6174_SCAQBAFM.sym ABSOLUTE
    PFAL_DBG_ResetReasonSet                  0x0001088c   Data           0  QCA6174_SCAQBAFM.sym ABSOLUTE
    PFAL_DBG_ISR_LogMsg                      0x00010890   Data           0  QCA6174_SCAQBAFM.sym ABSOLUTE
    PFAL_DBG_AllocMem                        0x00010894   Data           0  QCA6174_SCAQBAFM.sym ABSOLUTE
    PFAL_DBG_Log_HexDump                     0x00010898   Data           0  QCA6174_SCAQBAFM.sym ABSOLUTE
    PFAL_DBG_Log_VStr                        0x0001089c   Data           0  QCA6174_SCAQBAFM.sym ABSOLUTE
    PFAL_DBG_Log_Var                         0x000108a0   Data           0  QCA6174_SCAQBAFM.sym ABSOLUTE
    PFAL_DBG_Fault                           0x000108a4   Data           0  QCA6174_SCAQBAFM.sym ABSOLUTE
    PFAL_DBG_SaveMSP                         0x000108a8   Data           0  QCA6174_SCAQBAFM.sym ABSOLUTE
    PFAL_DBG_SaveReason_TriggerReset         0x000108ac   Data           0  QCA6174_SCAQBAFM.sym ABSOLUTE
    PFAL_DBG_BootToEDL                       0x000108b0   Data           0  QCA6174_SCAQBAFM.sym ABSOLUTE
    PFAL_DBG_ActivityInit                    0x000108b4   Data           0  QCA6174_SCAQBAFM.sym ABSOLUTE
    PFAL_DBG_ActivitySet                     0x000108b8   Data           0  QCA6174_SCAQBAFM.sym ABSOLUTE
    PFAL_DBG_ActivityClear                   0x000108bc   Data           0  QCA6174_SCAQBAFM.sym ABSOLUTE
    PFAL_DBG_ActivityTimer                   0x000108c0   Data           0  QCA6174_SCAQBAFM.sym ABSOLUTE
    PFAL_DBG_SetDebugFunctions               0x000108c4   Data           0  QCA6174_SCAQBAFM.sym ABSOLUTE
    PFAL_DBG_ISR_DumpLog                     0x000108c8   Data           0  QCA6174_SCAQBAFM.sym ABSOLUTE
    PFAL_DBG_ISR_DumpTopology                0x000108cc   Data           0  QCA6174_SCAQBAFM.sym ABSOLUTE
    PFAL_DBG_Log_CStr                        0x000108d0   Data           0  QCA6174_SCAQBAFM.sym ABSOLUTE
    PFAL_DBG_Log_Packet                      0x000108d4   Data           0  QCA6174_SCAQBAFM.sym ABSOLUTE
    PFAL_DBG_Log_VStrForced                  0x000108d8   Data           0  QCA6174_SCAQBAFM.sym ABSOLUTE
    PFAL_DBG_CheckStacks                     0x000108dc   Data           0  QCA6174_SCAQBAFM.sym ABSOLUTE
    PFAL_DBG_DisplayStacks                   0x000108e0   Data           0  QCA6174_SCAQBAFM.sym ABSOLUTE
    PFAL_DBG_HCI_UART_Reset                  0x000108e4   Data           0  QCA6174_SCAQBAFM.sym ABSOLUTE
    PFAL_DBG_EXCEPTION_DumpMemory            0x000108e8   Data           0  QCA6174_SCAQBAFM.sym ABSOLUTE
    OSTaskIdleHook                           0x000108ec   Data           0  QCA6174_SCAQBAFM.sym ABSOLUTE
    PFAL_STMR_Handler                        0x000108f0   Data           0  QCA6174_SCAQBAFM.sym ABSOLUTE
    PFAL_STMR_Open                           0x000108f4   Data           0  QCA6174_SCAQBAFM.sym ABSOLUTE
    PFAL_STMR_ConvertToTicks                 0x000108f8   Data           0  QCA6174_SCAQBAFM.sym ABSOLUTE
    PFAL_STMR_Start                          0x000108fc   Data           0  QCA6174_SCAQBAFM.sym ABSOLUTE
    PFAL_STMR_GetElapsedTicks                0x00010900   Data           0  QCA6174_SCAQBAFM.sym ABSOLUTE
    PFAL_SYS_TOP_IsWiPowerFastbootEnabled    0x00010904   Data           0  QCA6174_SCAQBAFM.sym ABSOLUTE
    PFAL_SYS_TOP_IsBootModeWiPower           0x00010908   Data           0  QCA6174_SCAQBAFM.sym ABSOLUTE
    PFAL_SYS_TOP_IsCoexMCIEnable             0x0001090c   Data           0  QCA6174_SCAQBAFM.sym ABSOLUTE
    PFAL_SYS_TOP_WLAN_SDIO                   0x00010910   Data           0  QCA6174_SCAQBAFM.sym ABSOLUTE
    PFAL_SYS_TOP_IsEmulation                 0x00010914   Data           0  QCA6174_SCAQBAFM.sym ABSOLUTE
    PFAL_SYS_TOP_IsRMPhyMode                 0x00010918   Data           0  QCA6174_SCAQBAFM.sym ABSOLUTE
    PFAL_SYS_TOP_LoadDSet                    0x0001091c   Data           0  QCA6174_SCAQBAFM.sym ABSOLUTE
    PFAL_SYS_TOP_StoreToOTP                  0x00010920   Data           0  QCA6174_SCAQBAFM.sym ABSOLUTE
    PFAL_SYS_TOP_StoreToNVM                  0x00010924   Data           0  QCA6174_SCAQBAFM.sym ABSOLUTE
    PFAL_SYS_TOP_IsTuffeloSoC                0x00010928   Data           0  QCA6174_SCAQBAFM.sym ABSOLUTE
    PFAL_UART_Rx_Handler                     0x0001092c   Data           0  QCA6174_SCAQBAFM.sym ABSOLUTE
    PFAL_UART_Tx_Handler                     0x00010930   Data           0  QCA6174_SCAQBAFM.sym ABSOLUTE
    PFAL_UART_Er_Handler                     0x00010934   Data           0  QCA6174_SCAQBAFM.sym ABSOLUTE
    PFAL_IM_TIMER_2_INT_Handler              0x00010938   Data           0  QCA6174_SCAQBAFM.sym ABSOLUTE
    PFAL_UART_SetCTS_Mode                    0x0001093c   Data           0  QCA6174_SCAQBAFM.sym ABSOLUTE
    PFAL_VOICE_UART_Fill_Rx_SCO_Buff         0x00010940   Data           0  QCA6174_SCAQBAFM.sym ABSOLUTE
    PFAL_UART_Rx_ISR                         0x00010944   Data           0  QCA6174_SCAQBAFM.sym ABSOLUTE
    PFAL_UART_Tx_ISR                         0x00010948   Data           0  QCA6174_SCAQBAFM.sym ABSOLUTE
    PFAL_UART_Error_ISR                      0x0001094c   Data           0  QCA6174_SCAQBAFM.sym ABSOLUTE
    PFAL_UART_HandlePacketFromHost           0x00010950   Data           0  QCA6174_SCAQBAFM.sym ABSOLUTE
    PFAL_UART_Activate                       0x00010954   Data           0  QCA6174_SCAQBAFM.sym ABSOLUTE
    PFAL_UART_Deactivate                     0x00010958   Data           0  QCA6174_SCAQBAFM.sym ABSOLUTE
    PFAL_UART_fillRxLL                       0x0001095c   Data           0  QCA6174_SCAQBAFM.sym ABSOLUTE
    PFAL_UART_fillTxLL                       0x00010960   Data           0  QCA6174_SCAQBAFM.sym ABSOLUTE
    PFAL_UART_InitRxActiveState              0x00010964   Data           0  QCA6174_SCAQBAFM.sym ABSOLUTE
    PFAL_UART_GetBaudRateFromNVM             0x00010968   Data           0  QCA6174_SCAQBAFM.sym ABSOLUTE
    PFAL_UART_Setup                          0x0001096c   Data           0  QCA6174_SCAQBAFM.sym ABSOLUTE
    PFAL_UART_ResetBaud                      0x00010970   Data           0  QCA6174_SCAQBAFM.sym ABSOLUTE
    PFAL_UART_HW_wait4Tx                     0x00010974   Data           0  QCA6174_SCAQBAFM.sym ABSOLUTE
    PFAL_UART_IOMUX                          0x00010978   Data           0  QCA6174_SCAQBAFM.sym ABSOLUTE
    PFAL_UART_SIBS_SendSignalingByte         0x0001097c   Data           0  QCA6174_SCAQBAFM.sym ABSOLUTE
    PFAL_UART_SIBS_VoteRxWake                0x00010980   Data           0  QCA6174_SCAQBAFM.sym ABSOLUTE
    PFAL_UART_SIBS_TxIdle                    0x00010984   Data           0  QCA6174_SCAQBAFM.sym ABSOLUTE
    PFAL_UART_SIBS_TxWakeAckRcvd             0x00010988   Data           0  QCA6174_SCAQBAFM.sym ABSOLUTE
    PFAL_UART_SIBS_TxTimeout                 0x0001098c   Data           0  QCA6174_SCAQBAFM.sym ABSOLUTE
    PFAL_UART_SIBS_TxRequest                 0x00010990   Data           0  QCA6174_SCAQBAFM.sym ABSOLUTE
    PFAL_UART_SIBS_RxWake                    0x00010994   Data           0  QCA6174_SCAQBAFM.sym ABSOLUTE
    PFAL_UART_SIBS_RxWakeInt                 0x00010998   Data           0  QCA6174_SCAQBAFM.sym ABSOLUTE
    PFAL_UART_SIBS_RxTimeout                 0x0001099c   Data           0  QCA6174_SCAQBAFM.sym ABSOLUTE
    PFAL_UART_SIBS_RxSleep                   0x000109a0   Data           0  QCA6174_SCAQBAFM.sym ABSOLUTE
    PFAL_UART_SIBS_ExtWakeISR                0x000109a4   Data           0  QCA6174_SCAQBAFM.sym ABSOLUTE
    PFAL_UART_SIBS_TimeoutIsr                0x000109a8   Data           0  QCA6174_SCAQBAFM.sym ABSOLUTE
    PFAL_UART_SIBS_StartTimer                0x000109ac   Data           0  QCA6174_SCAQBAFM.sym ABSOLUTE
    PFAL_UART_SIBS_StopTimer                 0x000109b0   Data           0  QCA6174_SCAQBAFM.sym ABSOLUTE
    PFAL_LC_loadBurstTimers                  0x000109b4   Data           0  QCA6174_SCAQBAFM.sym ABSOLUTE
    PFAL_LC_LE_loadBurstTimers               0x000109b8   Data           0  QCA6174_SCAQBAFM.sym ABSOLUTE
    PFAL_LC_Clk_Calc_Integer                 0x000109bc   Data           0  QCA6174_SCAQBAFM.sym ABSOLUTE
    PFAL_LC_Clk_A_GetInteger                 0x000109c0   Data           0  QCA6174_SCAQBAFM.sym ABSOLUTE
    PFAL_LC_Clk_Add                          0x000109c4   Data           0  QCA6174_SCAQBAFM.sym ABSOLUTE
    PFAL_LC_Clk_Subtract                     0x000109c8   Data           0  QCA6174_SCAQBAFM.sym ABSOLUTE
    PFAL_LC_INT0_ISR                         0x000109cc   Data           0  QCA6174_SCAQBAFM.sym ABSOLUTE
    PFAL_LC_INT0_Handler                     0x000109d0   Data           0  QCA6174_SCAQBAFM.sym ABSOLUTE
    PFAL_LC_INT1_ISR                         0x000109d4   Data           0  QCA6174_SCAQBAFM.sym ABSOLUTE
    PFAL_LC_INT1_Handler                     0x000109d8   Data           0  QCA6174_SCAQBAFM.sym ABSOLUTE
    PFAL_LC_FSYNC_ISR                        0x000109dc   Data           0  QCA6174_SCAQBAFM.sym ABSOLUTE
    PFAL_LC_ContextFrame_CONN_MASTER         0x000109e0   Data           0  QCA6174_SCAQBAFM.sym ABSOLUTE
    PFAL_LC_ContextRx_CONN_MASTER            0x000109e4   Data           0  QCA6174_SCAQBAFM.sym ABSOLUTE
    PFAL_LC_writeBdAddr                      0x000109e8   Data           0  QCA6174_SCAQBAFM.sym ABSOLUTE
    PFAL_LC_procTxFHSCommon                  0x000109ec   Data           0  QCA6174_SCAQBAFM.sym ABSOLUTE
    PFAL_LC_procRxFHSCommon                  0x000109f0   Data           0  QCA6174_SCAQBAFM.sym ABSOLUTE
    PFAL_LC_writeTxPktHdr                    0x000109f4   Data           0  QCA6174_SCAQBAFM.sym ABSOLUTE
    PFAL_WriteSyncTrainPacket                0x000109f8   Data           0  QCA6174_SCAQBAFM.sym ABSOLUTE
    PFAL_LC_setScrambleFECOptions            0x000109fc   Data           0  QCA6174_SCAQBAFM.sym ABSOLUTE
    PFAL_LC_setHoppingOptions                0x00010a00   Data           0  QCA6174_SCAQBAFM.sym ABSOLUTE
    PFAL_LC_RxRssiDbmGet                     0x00010a04   Data           0  QCA6174_SCAQBAFM.sym ABSOLUTE
    PFAL_LC_PeekNextRxAclPayload             0x00010a08   Data           0  QCA6174_SCAQBAFM.sym ABSOLUTE
    PFAL_LC_GetNextRxAclFMB                  0x00010a0c   Data           0  QCA6174_SCAQBAFM.sym ABSOLUTE
    PFAL_LC_ContextTx_ContinuousPayloadSetup 0x00010a10   Data           0  QCA6174_SCAQBAFM.sym ABSOLUTE
    PFAL_LC_ContextTx_BurstPacketSetup       0x00010a14   Data           0  QCA6174_SCAQBAFM.sym ABSOLUTE
    PFAL_LC_LE_writeAdvChanPDU_Hdr           0x00010a18   Data           0  QCA6174_SCAQBAFM.sym ABSOLUTE
    PFAL_LC_LE_writeTestModePDU_Hdr          0x00010a1c   Data           0  QCA6174_SCAQBAFM.sym ABSOLUTE
    PFAL_LC_LE_GetRxUlpFMB                   0x00010a20   Data           0  QCA6174_SCAQBAFM.sym ABSOLUTE
    PFAL_LC_LE_setAdvertisingChannel         0x00010a24   Data           0  QCA6174_SCAQBAFM.sym ABSOLUTE
    PFAL_LC_LE_getDataChan                   0x00010a28   Data           0  QCA6174_SCAQBAFM.sym ABSOLUTE
    PFAL_LC_LE_setDataChannel                0x00010a2c   Data           0  QCA6174_SCAQBAFM.sym ABSOLUTE
    PFAL_LC_LE_writeCRCInit                  0x00010a30   Data           0  QCA6174_SCAQBAFM.sym ABSOLUTE
    PFAL_LC_Stop                             0x00010a34   Data           0  QCA6174_SCAQBAFM.sym ABSOLUTE
    PFAL_LC_Init                             0x00010a38   Data           0  QCA6174_SCAQBAFM.sym ABSOLUTE
    PFAL_LC_Clk_N_GetInteger                 0x00010a3c   Data           0  QCA6174_SCAQBAFM.sym ABSOLUTE
    PFAL_LC_Clk_N_GetFull                    0x00010a40   Data           0  QCA6174_SCAQBAFM.sym ABSOLUTE
    PFAL_LC_Clk_Calc_Full                    0x00010a44   Data           0  QCA6174_SCAQBAFM.sym ABSOLUTE
    PFAL_LC_Clk_Calc_SlotOffset              0x00010a48   Data           0  QCA6174_SCAQBAFM.sym ABSOLUTE
    PFAL_LC_Clk_Sign_Inverse                 0x00010a4c   Data           0  QCA6174_SCAQBAFM.sym ABSOLUTE
    PFAL_LC_Clk_2_NxtFrame                   0x00010a50   Data           0  QCA6174_SCAQBAFM.sym ABSOLUTE
    PFAL_LC_Clk_Convert_Ticks_Clock          0x00010a54   Data           0  QCA6174_SCAQBAFM.sym ABSOLUTE
    PFAL_LC_IM_Connect                       0x00010a58   Data           0  QCA6174_SCAQBAFM.sym ABSOLUTE
    PFAL_LC_ContextFrame_PAGE_ID             0x00010a5c   Data           0  QCA6174_SCAQBAFM.sym ABSOLUTE
    PFAL_LC_ContextFrame_PAGE_FHS            0x00010a60   Data           0  QCA6174_SCAQBAFM.sym ABSOLUTE
    PFAL_LC_ContextTx_PAGE_ID                0x00010a64   Data           0  QCA6174_SCAQBAFM.sym ABSOLUTE
    PFAL_LC_ContextTx_PAGE_FHS               0x00010a68   Data           0  QCA6174_SCAQBAFM.sym ABSOLUTE
    PFAL_LC_ContextTx_PAGE_POLL              0x00010a6c   Data           0  QCA6174_SCAQBAFM.sym ABSOLUTE
    PFAL_LC_ContextRx_NONE                   0x00010a70   Data           0  QCA6174_SCAQBAFM.sym ABSOLUTE
    PFAL_LC_ContextRx_PAGE_ID                0x00010a74   Data           0  QCA6174_SCAQBAFM.sym ABSOLUTE
    PFAL_LC_ContextRx_PAGE_FHS               0x00010a78   Data           0  QCA6174_SCAQBAFM.sym ABSOLUTE
    PFAL_LC_ContextFrame_CONN_SLAVE          0x00010a7c   Data           0  QCA6174_SCAQBAFM.sym ABSOLUTE
    PFAL_LC_ContextTx_CONN_MASTER            0x00010a80   Data           0  QCA6174_SCAQBAFM.sym ABSOLUTE
    PFAL_LC_ContextFrame_INQUIRY             0x00010a84   Data           0  QCA6174_SCAQBAFM.sym ABSOLUTE
    PFAL_LC_ContextTx_INQUIRY                0x00010a88   Data           0  QCA6174_SCAQBAFM.sym ABSOLUTE
    PFAL_LC_ContextRx_INQUIRY                0x00010a8c   Data           0  QCA6174_SCAQBAFM.sym ABSOLUTE
    PFAL_LC_ContextRx_INQUIRY_EXT_DATA       0x00010a90   Data           0  QCA6174_SCAQBAFM.sym ABSOLUTE
    PFAL_LC_ContextFrame_RSW2M_TDD           0x00010a94   Data           0  QCA6174_SCAQBAFM.sym ABSOLUTE
    PFAL_LC_ContextFrame_RSW2M_PSW           0x00010a98   Data           0  QCA6174_SCAQBAFM.sym ABSOLUTE
    PFAL_LC_ContextFrame_RSW2S_TDD           0x00010a9c   Data           0  QCA6174_SCAQBAFM.sym ABSOLUTE
    PFAL_LC_ContextFrame_RSW2S_PSW           0x00010aa0   Data           0  QCA6174_SCAQBAFM.sym ABSOLUTE
    PFAL_LC_ContextTx_RSW2M                  0x00010aa4   Data           0  QCA6174_SCAQBAFM.sym ABSOLUTE
    PFAL_LC_ContextRx_RSW2M_ID               0x00010aa8   Data           0  QCA6174_SCAQBAFM.sym ABSOLUTE
    PFAL_LC_procRxFHS                        0x00010aac   Data           0  QCA6174_SCAQBAFM.sym ABSOLUTE
    PFAL_LC_procRxFHS_Switch                 0x00010ab0   Data           0  QCA6174_SCAQBAFM.sym ABSOLUTE
    PFAL_LC_procRxFHSInqResp                 0x00010ab4   Data           0  QCA6174_SCAQBAFM.sym ABSOLUTE
    PFAL_LC_putFHSPktConnection              0x00010ab8   Data           0  QCA6174_SCAQBAFM.sym ABSOLUTE
    PFAL_LC_putFHSPktInquiryResponse         0x00010abc   Data           0  QCA6174_SCAQBAFM.sym ABSOLUTE
    PFAL_LC_putFHSPktRoleSwitch              0x00010ac0   Data           0  QCA6174_SCAQBAFM.sym ABSOLUTE
    PFAL_LC_putPOLLPacket                    0x00010ac4   Data           0  QCA6174_SCAQBAFM.sym ABSOLUTE
    PFAL_LC_writeTxPayloadHeader             0x00010ac8   Data           0  QCA6174_SCAQBAFM.sym ABSOLUTE
    PFAL_LC_getRxPacketHeader                0x00010acc   Data           0  QCA6174_SCAQBAFM.sym ABSOLUTE
    PFAL_LC_procRxACLPayloadHdr              0x00010ad0   Data           0  QCA6174_SCAQBAFM.sym ABSOLUTE
    PFAL_LC_writeEncrKey                     0x00010ad4   Data           0  QCA6174_SCAQBAFM.sym ABSOLUTE
    PFAL_LC_ContextFrame_PSCAN               0x00010ad8   Data           0  QCA6174_SCAQBAFM.sym ABSOLUTE
    PFAL_LC_ContextFrame_PAGE_SCAN_RESPONSE  0x00010adc   Data           0  QCA6174_SCAQBAFM.sym ABSOLUTE
    PFAL_LC_ContextTx_PSCAN                  0x00010ae0   Data           0  QCA6174_SCAQBAFM.sym ABSOLUTE
    PFAL_LC_ContextRx_PSCAN                  0x00010ae4   Data           0  QCA6174_SCAQBAFM.sym ABSOLUTE
    PFAL_LC_ContextRx_LPPSCAN                0x00010ae8   Data           0  QCA6174_SCAQBAFM.sym ABSOLUTE
    PFAL_LC_ContextFrame_PSCAN_FHS           0x00010aec   Data           0  QCA6174_SCAQBAFM.sym ABSOLUTE
    PFAL_LC_ContextRx_PSCAN_FHS              0x00010af0   Data           0  QCA6174_SCAQBAFM.sym ABSOLUTE
    PFAL_LC_ContextTx_PSCAN_FHS              0x00010af4   Data           0  QCA6174_SCAQBAFM.sym ABSOLUTE
    PFAL_LC_ContextFrame_INQUIRY_SCAN        0x00010af8   Data           0  QCA6174_SCAQBAFM.sym ABSOLUTE
    PFAL_LC_ContextFrame_INQUIRY_SCAN_RESPONSE 0x00010afc   Data           0  QCA6174_SCAQBAFM.sym ABSOLUTE
    PFAL_LC_ContextRx_INQUIRY_SCAN           0x00010b00   Data           0  QCA6174_SCAQBAFM.sym ABSOLUTE
    PFAL_LC_ContextTx_INQUIRY_SCAN           0x00010b04   Data           0  QCA6174_SCAQBAFM.sym ABSOLUTE
    PFAL_LC_ContextTx_EXT_INQUIRY_RES        0x00010b08   Data           0  QCA6174_SCAQBAFM.sym ABSOLUTE
    PFAL_LC_ContextTx_SYNC_TRAIN             0x00010b0c   Data           0  QCA6174_SCAQBAFM.sym ABSOLUTE
    PFAL_LC_ContextTx_LINKLESS_BC            0x00010b10   Data           0  QCA6174_SCAQBAFM.sym ABSOLUTE
    PFAL_LC_ContextRx_ASSOCIATION            0x00010b14   Data           0  QCA6174_SCAQBAFM.sym ABSOLUTE
    PFAL_LC_ContextTx_ASSOCIATION            0x00010b18   Data           0  QCA6174_SCAQBAFM.sym ABSOLUTE
    PFAL_LC_ContextFrame_SYNC_TRAIN_SCAN     0x00010b1c   Data           0  QCA6174_SCAQBAFM.sym ABSOLUTE
    PFAL_LC_ContextRx_SYNC_TRAIN_SCAN        0x00010b20   Data           0  QCA6174_SCAQBAFM.sym ABSOLUTE
    PFAL_LC_ContextFrame_DATA_SCAN           0x00010b24   Data           0  QCA6174_SCAQBAFM.sym ABSOLUTE
    PFAL_LC_ContextRx_DATA_SCAN              0x00010b28   Data           0  QCA6174_SCAQBAFM.sym ABSOLUTE
    PFAL_LC_ContextRx_MEASURE_RSSI           0x00010b2c   Data           0  QCA6174_SCAQBAFM.sym ABSOLUTE
    PFAL_LC_ContextRx_CHAN_ASSESSMENT        0x00010b30   Data           0  QCA6174_SCAQBAFM.sym ABSOLUTE
    PFAL_LC_ContextRx_PROC_CHAN_ASSESSMENT   0x00010b34   Data           0  QCA6174_SCAQBAFM.sym ABSOLUTE
    PFAL_LC_testSetRxSlotOptions             0x00010b38   Data           0  QCA6174_SCAQBAFM.sym ABSOLUTE
    PFAL_LC_testSetTxSlotOptions             0x00010b3c   Data           0  QCA6174_SCAQBAFM.sym ABSOLUTE
    PFAL_LC_ResizeBBPackets                  0x00010b40   Data           0  QCA6174_SCAQBAFM.sym ABSOLUTE
    PFAL_LC_InitRxBuffers                    0x00010b44   Data           0  QCA6174_SCAQBAFM.sym ABSOLUTE
    PFAL_LC_PeekRxLmpPayload                 0x00010b48   Data           0  QCA6174_SCAQBAFM.sym ABSOLUTE
    PFAL_LC_GetRxLmpFMB                      0x00010b4c   Data           0  QCA6174_SCAQBAFM.sym ABSOLUTE
    PFAL_LC_procConfigDUT_TESTER_xSCO_Rx     0x00010b50   Data           0  QCA6174_SCAQBAFM.sym ABSOLUTE
    PFAL_LC_procAclTxLoopBack                0x00010b54   Data           0  QCA6174_SCAQBAFM.sym ABSOLUTE
    PFAL_LC_procRxL2cap                      0x00010b58   Data           0  QCA6174_SCAQBAFM.sym ABSOLUTE
    PFAL_LC_procRx_EPTM                      0x00010b5c   Data           0  QCA6174_SCAQBAFM.sym ABSOLUTE
    PFAL_LC_EPTM_procRxQueue_4_BitErrors     0x00010b60   Data           0  QCA6174_SCAQBAFM.sym ABSOLUTE
    PFAL_LC_ContextTx_Continuous             0x00010b64   Data           0  QCA6174_SCAQBAFM.sym ABSOLUTE
    PFAL_LC_ContextTx_Burst                  0x00010b68   Data           0  QCA6174_SCAQBAFM.sym ABSOLUTE
    PFAL_LC_LE_ContextTx_Continuous          0x00010b6c   Data           0  QCA6174_SCAQBAFM.sym ABSOLUTE
    PFAL_LC_SetLoopbackMode                  0x00010b70   Data           0  QCA6174_SCAQBAFM.sym ABSOLUTE
    PFAL_LC_GetLoopbackMode                  0x00010b74   Data           0  QCA6174_SCAQBAFM.sym ABSOLUTE
    PFAL_LC_ExtendedInquiryCheck             0x00010b78   Data           0  QCA6174_SCAQBAFM.sym ABSOLUTE
    PFAL_LC_procRxExtInqData                 0x00010b7c   Data           0  QCA6174_SCAQBAFM.sym ABSOLUTE
    PFAL_LC_SetExtInqFirstHalfSlotRx         0x00010b80   Data           0  QCA6174_SCAQBAFM.sym ABSOLUTE
    PFAL_LC_GetExtInqFirstHalfSlotRx         0x00010b84   Data           0  QCA6174_SCAQBAFM.sym ABSOLUTE
    PFAL_LC_SetExtAccessFunctions            0x00010b88   Data           0  QCA6174_SCAQBAFM.sym ABSOLUTE
    PFAL_LC_ContextFrame_LE_SCAN             0x00010b8c   Data           0  QCA6174_SCAQBAFM.sym ABSOLUTE
    PFAL_LC_ContextRx_LE_SCAN                0x00010b90   Data           0  QCA6174_SCAQBAFM.sym ABSOLUTE
    PFAL_LC_ContextRx_LE_TEST_RX_SCAN        0x00010b94   Data           0  QCA6174_SCAQBAFM.sym ABSOLUTE
    PFAL_LC_ContextRx_LE_SCAN_SCAN_REQ       0x00010b98   Data           0  QCA6174_SCAQBAFM.sym ABSOLUTE
    PFAL_LC_ContextRx_LE_ADVERTISE           0x00010b9c   Data           0  QCA6174_SCAQBAFM.sym ABSOLUTE
    PFAL_LC_ContextRx_LE_CONN_SLAVE_SYNC     0x00010ba0   Data           0  QCA6174_SCAQBAFM.sym ABSOLUTE
    PFAL_LC_ContextRx_LE_CONN_SLAVE          0x00010ba4   Data           0  QCA6174_SCAQBAFM.sym ABSOLUTE
    PFAL_LC_ContextRx_LE_CONN_MASTER         0x00010ba8   Data           0  QCA6174_SCAQBAFM.sym ABSOLUTE
    PFAL_LC_ContextFrame_LE_ADVERTISE        0x00010bac   Data           0  QCA6174_SCAQBAFM.sym ABSOLUTE
    PFAL_LC_ContextFrame_LE_CONN             0x00010bb0   Data           0  QCA6174_SCAQBAFM.sym ABSOLUTE
    PFAL_LC_ContextFrame_LE_TEST             0x00010bb4   Data           0  QCA6174_SCAQBAFM.sym ABSOLUTE
    PFAL_LC_ContextTx_LE_TEST_TX             0x00010bb8   Data           0  QCA6174_SCAQBAFM.sym ABSOLUTE
    PFAL_LC_ContextTx_LE_ADVERTISE           0x00010bbc   Data           0  QCA6174_SCAQBAFM.sym ABSOLUTE
    PFAL_LC_ContextTx_LE_CONN                0x00010bc0   Data           0  QCA6174_SCAQBAFM.sym ABSOLUTE
    PFAL_LC_ContextTx_LE_SCAN_ACTIVE         0x00010bc4   Data           0  QCA6174_SCAQBAFM.sym ABSOLUTE
    PFAL_LC_LE_putAdvPacket                  0x00010bc8   Data           0  QCA6174_SCAQBAFM.sym ABSOLUTE
    PFAL_LC_LE_putScanReqPacket              0x00010bcc   Data           0  QCA6174_SCAQBAFM.sym ABSOLUTE
    PFAL_LC_LE_putScanRspPacket              0x00010bd0   Data           0  QCA6174_SCAQBAFM.sym ABSOLUTE
    PFAL_LC_LE_putConnectReqPacket           0x00010bd4   Data           0  QCA6174_SCAQBAFM.sym ABSOLUTE
    PFAL_LC_LE_putConnParmsInConnectReqPacket 0x00010bd8   Data           0  QCA6174_SCAQBAFM.sym ABSOLUTE
    PFAL_LC_LE_writeDataChanPDU_Hdr          0x00010bdc   Data           0  QCA6174_SCAQBAFM.sym ABSOLUTE
    PFAL_LC_LE_writeTestTxPacket             0x00010be0   Data           0  QCA6174_SCAQBAFM.sym ABSOLUTE
    PFAL_LC_LE_procRxAdvChanHeader           0x00010be4   Data           0  QCA6174_SCAQBAFM.sym ABSOLUTE
    PFAL_LC_LE_getAdvPayloadPtr              0x00010be8   Data           0  QCA6174_SCAQBAFM.sym ABSOLUTE
    PFAL_LC_LE_procRxAdvPayload              0x00010bec   Data           0  QCA6174_SCAQBAFM.sym ABSOLUTE
    PFAL_LC_LE_procRxAdvConnectReqAdd        0x00010bf0   Data           0  QCA6174_SCAQBAFM.sym ABSOLUTE
    PFAL_LC_LE_procRxDataChan_PDUheader      0x00010bf4   Data           0  QCA6174_SCAQBAFM.sym ABSOLUTE
    PFAL_LC_LE_computeClockOffset            0x00010bf8   Data           0  QCA6174_SCAQBAFM.sym ABSOLUTE
    PFAL_LC_LE_EnableRxHwTestMode            0x00010bfc   Data           0  QCA6174_SCAQBAFM.sym ABSOLUTE
    PFAL_LC_LE_DisableRxHwTestMode           0x00010c00   Data           0  QCA6174_SCAQBAFM.sym ABSOLUTE
    PFAL_LC_ANT_writeTestTxPacket            0x00010c04   Data           0  QCA6174_SCAQBAFM.sym ABSOLUTE
    PFAL_LC_ANT_exitANTMode                  0x00010c08   Data           0  QCA6174_SCAQBAFM.sym ABSOLUTE
    PFAL_LC_ContextFrame_ANT                 0x00010c0c   Data           0  QCA6174_SCAQBAFM.sym ABSOLUTE
    PFAL_LC_ContextTx_ANT_TX                 0x00010c10   Data           0  QCA6174_SCAQBAFM.sym ABSOLUTE
    PFAL_LC_ContextRx_ANT_RX_SCAN            0x00010c14   Data           0  QCA6174_SCAQBAFM.sym ABSOLUTE
    PFAL_LC_SET_ENCR_CNTRL_CRYPTO_W_MIC_ENABLE 0x00010c18   Data           0  QCA6174_SCAQBAFM.sym ABSOLUTE
    CFG_SYS_Init                             0x00010c1c   Data           0  QCA6174_SCAQBAFM.sym ABSOLUTE
    CFG_SYS_GetConfigParameterInfo           0x00010c20   Data           0  QCA6174_SCAQBAFM.sym ABSOLUTE
    CFG_SYS_GetTagEntry                      0x00010c24   Data           0  QCA6174_SCAQBAFM.sym ABSOLUTE
    WIP_VTXP_HandOffToHost                   0x00010c28   Data           0  QCA6174_SCAQBAFM.sym ABSOLUTE
    WIP_VTXP_HandOffToVirtualTxp             0x00010c2c   Data           0  QCA6174_SCAQBAFM.sym ABSOLUTE
    WIP_VTXP_Write                           0x00010c30   Data           0  QCA6174_SCAQBAFM.sym ABSOLUTE
    WIP_VTXP_SendReset                       0x00010c34   Data           0  QCA6174_SCAQBAFM.sym ABSOLUTE
    WIP_VTXP_SendCommand                     0x00010c38   Data           0  QCA6174_SCAQBAFM.sym ABSOLUTE
    WIP_VTXP_SendEventToBleStack             0x00010c3c   Data           0  QCA6174_SCAQBAFM.sym ABSOLUTE
    WIP_VTXP_SendAclDataToBleStack           0x00010c40   Data           0  QCA6174_SCAQBAFM.sym ABSOLUTE
    PackA4wpCommandHeader                    0x00010c44   Data           0  QCA6174_SCAQBAFM.sym ABSOLUTE
    WIP_VTXP_GetTxpMsgAtomic                 0x00010c48   Data           0  QCA6174_SCAQBAFM.sym ABSOLUTE
    WIP_VTXP_SendAclDataFromBleStack         0x00010c4c   Data           0  QCA6174_SCAQBAFM.sym ABSOLUTE
    WIP_VTXP_A4WP_SetCurrentLimit            0x00010c50   Data           0  QCA6174_SCAQBAFM.sym ABSOLUTE
    WIP_VTXP_A4WP_SetChargeOutput            0x00010c54   Data           0  QCA6174_SCAQBAFM.sym ABSOLUTE
    WIP_VTXP_A4WP_EnableAlertNotify          0x00010c58   Data           0  QCA6174_SCAQBAFM.sym ABSOLUTE
    WIP_VTXP_A4WP_EnableDataNotify           0x00010c5c   Data           0  QCA6174_SCAQBAFM.sym ABSOLUTE
    WIP_VTXP_A4WP_EnablePowerApplyNotify     0x00010c60   Data           0  QCA6174_SCAQBAFM.sym ABSOLUTE
    WIP_VTXP_A4WP_GetCurrentLimit            0x00010c64   Data           0  QCA6174_SCAQBAFM.sym ABSOLUTE
    WIP_VTXP_A4WP_GetChargeOutput            0x00010c68   Data           0  QCA6174_SCAQBAFM.sym ABSOLUTE
    WIP_VTXP_HandlePacketIn                  0x00010c6c   Data           0  QCA6174_SCAQBAFM.sym ABSOLUTE
    WIP_DBG_LogDbgData                       0x00010c70   Data           0  QCA6174_SCAQBAFM.sym ABSOLUTE
    WIP_DBG_SendDbgEvent                     0x00010c74   Data           0  QCA6174_SCAQBAFM.sym ABSOLUTE
    WIP_DBG_DeInitMem                        0x00010c78   Data           0  QCA6174_SCAQBAFM.sym ABSOLUTE
    WIP_DBG_SendEventViaDbgChannel           0x00010c7c   Data           0  QCA6174_SCAQBAFM.sym ABSOLUTE
    WIP_DBG_SendCommandCompleteEventViaDbgChannel 0x00010c80   Data           0  QCA6174_SCAQBAFM.sym ABSOLUTE
    WIP_DBG_GetNextLogEvent                  0x00010c84   Data           0  QCA6174_SCAQBAFM.sym ABSOLUTE
    PFAL_COEX_MCI_Get_Starttime              0x00010c88   Data           0  QCA6174_SCAQBAFM.sym ABSOLUTE
    PFAL_COEX_MCI_Next_JobCat_Proc           0x00010c8c   Data           0  QCA6174_SCAQBAFM.sym ABSOLUTE
    MCI_Schd_Update                          0x00010c90   Data           0  QCA6174_SCAQBAFM.sym ABSOLUTE
    MCI_Schd_Delete_Expire                   0x00010c94   Data           0  QCA6174_SCAQBAFM.sym ABSOLUTE
    MCI_Schd_Update_Msg                      0x00010c98   Data           0  QCA6174_SCAQBAFM.sym ABSOLUTE
    MCI_Schd_Insert_Msg                      0x00010c9c   Data           0  QCA6174_SCAQBAFM.sym ABSOLUTE
    MCI_Schd_Get_Resend_Max                  0x00010ca0   Data           0  QCA6174_SCAQBAFM.sym ABSOLUTE
    MCI_Schd_Do_Resend                       0x00010ca4   Data           0  QCA6174_SCAQBAFM.sym ABSOLUTE
    MCI_Schd_Gen_Entry                       0x00010ca8   Data           0  QCA6174_SCAQBAFM.sym ABSOLUTE
    MCI_Schd_Send_Msg                        0x00010cac   Data           0  QCA6174_SCAQBAFM.sym ABSOLUTE
    MCI_Submit_Sched_Msg                     0x00010cb0   Data           0  QCA6174_SCAQBAFM.sym ABSOLUTE
    PFAL_COEX_MCI_Schd_Next_Frame            0x00010cb4   Data           0  QCA6174_SCAQBAFM.sym ABSOLUTE
    MCI_Msg_Queue_Free                       0x00010cb8   Data           0  QCA6174_SCAQBAFM.sym ABSOLUTE
    MCI_Empty_Tx_Queue                       0x00010cbc   Data           0  QCA6174_SCAQBAFM.sym ABSOLUTE
    MCI_Tx_Msg_Enqueue                       0x00010cc0   Data           0  QCA6174_SCAQBAFM.sym ABSOLUTE
    MCI_Tx_Msg_Dequeue                       0x00010cc4   Data           0  QCA6174_SCAQBAFM.sym ABSOLUTE
    MCI_Msg_Queue_Alloc                      0x00010cc8   Data           0  QCA6174_SCAQBAFM.sym ABSOLUTE
    MCI_GPM_Queue_Overflow_Handle            0x00010ccc   Data           0  QCA6174_SCAQBAFM.sym ABSOLUTE
    PFAL_COEX_MCI_TxScanUpdate               0x00010cd0   Data           0  QCA6174_SCAQBAFM.sym ABSOLUTE
    PFAL_COEX_MCI_TxConnUpdate               0x00010cd4   Data           0  QCA6174_SCAQBAFM.sym ABSOLUTE
    MCI_ProcessStatusReq                     0x00010cd8   Data           0  QCA6174_SCAQBAFM.sym ABSOLUTE
    MCI_ProcessStatusReq_ANT                 0x00010cdc   Data           0  QCA6174_SCAQBAFM.sym ABSOLUTE
    MCI_IS_xSCO_CONN                         0x00010ce0   Data           0  QCA6174_SCAQBAFM.sym ABSOLUTE
    MCI_UpdateTopology                       0x00010ce4   Data           0  QCA6174_SCAQBAFM.sym ABSOLUTE
    MCI_ProcessVersionReq                    0x00010ce8   Data           0  QCA6174_SCAQBAFM.sym ABSOLUTE
    MCI_TxDebugGPM                           0x00010cec   Data           0  QCA6174_SCAQBAFM.sym ABSOLUTE
    MCI_TxWlanBTPrio                         0x00010cf0   Data           0  QCA6174_SCAQBAFM.sym ABSOLUTE
    MCI_TxSchedMsgTrigRsp                    0x00010cf4   Data           0  QCA6174_SCAQBAFM.sym ABSOLUTE
    MCI_ReplyRXSSLowerThresholdToWLAN        0x00010cf8   Data           0  QCA6174_SCAQBAFM.sym ABSOLUTE
    PFAL_COEX_MCI_Update_Scan_Bit_Map        0x00010cfc   Data           0  QCA6174_SCAQBAFM.sym ABSOLUTE
    MCI_Queue_Overflow_GPM                   0x00010d00   Data           0  QCA6174_SCAQBAFM.sym ABSOLUTE
    MCI_Scans_Upadate                        0x00010d04   Data           0  QCA6174_SCAQBAFM.sym ABSOLUTE
    MCI_SetRXSSLowerThreshold                0x00010d08   Data           0  QCA6174_SCAQBAFM.sym ABSOLUTE
    MCI_ProcessWLANChan                      0x00010d0c   Data           0  QCA6174_SCAQBAFM.sym ABSOLUTE
    MCI_ProcessSchedInfoTrigger              0x00010d10   Data           0  QCA6174_SCAQBAFM.sym ABSOLUTE
    MCI_ProcessRecievedGPM                   0x00010d14   Data           0  QCA6174_SCAQBAFM.sym ABSOLUTE
    PFAL_IM_MCI_INT_Handler                  0x00010d18   Data           0  QCA6174_SCAQBAFM.sym ABSOLUTE
    PFAL_IM_BT_MCI_POWER_INT_Handler         0x00010d1c   Data           0  QCA6174_SCAQBAFM.sym ABSOLUTE
    PFAL_COEX_MCI_Send_Remote_Reset_Msg      0x00010d20   Data           0  QCA6174_SCAQBAFM.sym ABSOLUTE
    MCI_UpdateLinkStatus                     0x00010d24   Data           0  QCA6174_SCAQBAFM.sym ABSOLUTE
    MCI_Schd_Readjust_Prio                   0x00010d28   Data           0  QCA6174_SCAQBAFM.sym ABSOLUTE
    MCI_SCO_Prio_Convert                     0x00010d2c   Data           0  QCA6174_SCAQBAFM.sym ABSOLUTE
    MCI_ACL_Prio_Convert                     0x00010d30   Data           0  QCA6174_SCAQBAFM.sym ABSOLUTE
    MCI_Prio_Convert                         0x00010d34   Data           0  QCA6174_SCAQBAFM.sym ABSOLUTE
    PFAL_COEX_MCI_BT_CAL_Grant_TX            0x00010d38   Data           0  QCA6174_SCAQBAFM.sym ABSOLUTE
    PFAL_COEX_MCI_Schedule_MSG_Check         0x00010d3c   Data           0  QCA6174_SCAQBAFM.sym ABSOLUTE
    PFAL_COEX_MCI_Send_Schedule_MSG          0x00010d40   Data           0  QCA6174_SCAQBAFM.sym ABSOLUTE
    PFAL_COEX_MCI_INFO_Copy                  0x00010d44   Data           0  QCA6174_SCAQBAFM.sym ABSOLUTE
    PFAL_COEX_MCI_Find_MSG_Before            0x00010d48   Data           0  QCA6174_SCAQBAFM.sym ABSOLUTE
    PFAL_COEX_MCI_TURNON_CONT_MSG            0x00010d4c   Data           0  QCA6174_SCAQBAFM.sym ABSOLUTE
    PFAL_COEX_MCI_TURNOFF_CONT_MSG           0x00010d50   Data           0  QCA6174_SCAQBAFM.sym ABSOLUTE
    PFAL_COEX_MCI_Clean_Para                 0x00010d54   Data           0  QCA6174_SCAQBAFM.sym ABSOLUTE
    PFAL_COEX_MCI_PRIO_SET                   0x00010d58   Data           0  QCA6174_SCAQBAFM.sym ABSOLUTE
    PFAL_COEX_MCI_CONTMSG_SET                0x00010d5c   Data           0  QCA6174_SCAQBAFM.sym ABSOLUTE
    MCI_Schd_Resend_Check_Set                0x00010d60   Data           0  QCA6174_SCAQBAFM.sym ABSOLUTE
    MCI_Enqueue_Msg                          0x00010d64   Data           0  QCA6174_SCAQBAFM.sym ABSOLUTE
    MCI_Send_Queued_Msg                      0x00010d68   Data           0  QCA6174_SCAQBAFM.sym ABSOLUTE
    PFAL_COEX_MCI_TxBTSystemReset            0x00010d6c   Data           0  QCA6174_SCAQBAFM.sym ABSOLUTE
    MCI_Parse_Gpm                            0x00010d70   Data           0  QCA6174_SCAQBAFM.sym ABSOLUTE
    PFAL_COEX_MCI_ProfileRemove              0x00010d74   Data           0  QCA6174_SCAQBAFM.sym ABSOLUTE
    PFAL_COEX_MCI_ProfileAdd                 0x00010d78   Data           0  QCA6174_SCAQBAFM.sym ABSOLUTE
    MCI_TxVersionReq                         0x00010d7c   Data           0  QCA6174_SCAQBAFM.sym ABSOLUTE
    MCI_TxStatusReq                          0x00010d80   Data           0  QCA6174_SCAQBAFM.sym ABSOLUTE
    MCI_SendSchedTriggerResp                 0x00010d84   Data           0  QCA6174_SCAQBAFM.sym ABSOLUTE
    PFAL_COEX_MCI_TxScanActivity             0x00010d88   Data           0  QCA6174_SCAQBAFM.sym ABSOLUTE
    PFAL_COEX_MCI_Request_Flag_Update        0x00010d8c   Data           0  QCA6174_SCAQBAFM.sym ABSOLUTE
    PFAL_COEX_MCI_Connect                    0x00010d90   Data           0  QCA6174_SCAQBAFM.sym ABSOLUTE
    PFAL_COEX_MCI_Init                       0x00010d94   Data           0  QCA6174_SCAQBAFM.sym ABSOLUTE
    MCI_SendRemoteResetIfWarranted           0x00010d98   Data           0  QCA6174_SCAQBAFM.sym ABSOLUTE
    PFAL_COEX_MCI_UpdatePerformanceState     0x00010d9c   Data           0  QCA6174_SCAQBAFM.sym ABSOLUTE
    PFAL_COEX_MCI_UpdatexSCOMap              0x00010da0   Data           0  QCA6174_SCAQBAFM.sym ABSOLUTE
    PFAL_COEX_MCI_UpdateSniffMapActivity     0x00010da4   Data           0  QCA6174_SCAQBAFM.sym ABSOLUTE
    PFAL_COEX_MCI_UpdateSniffMap             0x00010da8   Data           0  QCA6174_SCAQBAFM.sym ABSOLUTE
    PFAL_COEX_MCI_TrackPageScanInterval      0x00010dac   Data           0  QCA6174_SCAQBAFM.sym ABSOLUTE
    PFAL_COEX_MCI_CAL_Notify                 0x00010db0   Data           0  QCA6174_SCAQBAFM.sym ABSOLUTE
    PFAL_COEX_MCI_BT_Shud_ReCal              0x00010db4   Data           0  QCA6174_SCAQBAFM.sym ABSOLUTE
    PFAL_COEX_MCI_BT_CAL_Done_TX             0x00010db8   Data           0  QCA6174_SCAQBAFM.sym ABSOLUTE
    PFAL_COEX_MCI_CHECK_WLAN_CAL_GRANT       0x00010dbc   Data           0  QCA6174_SCAQBAFM.sym ABSOLUTE
    PFAL_COEX_MCI_TX_REQ                     0x00010dc0   Data           0  QCA6174_SCAQBAFM.sym ABSOLUTE
    PFAL_COEX_MCI_RX_REQ                     0x00010dc4   Data           0  QCA6174_SCAQBAFM.sym ABSOLUTE
    PFAL_COEX_MCI_Prediction_Thread          0x00010dc8   Data           0  QCA6174_SCAQBAFM.sym ABSOLUTE
    PFAL_COEX_MCI_Prediction                 0x00010dcc   Data           0  QCA6174_SCAQBAFM.sym ABSOLUTE
    PFAL_COEX_MCI_Schedule                   0x00010dd0   Data           0  QCA6174_SCAQBAFM.sym ABSOLUTE
    PFAL_COEX_MCI_Wake_Up                    0x00010dd4   Data           0  QCA6174_SCAQBAFM.sym ABSOLUTE
    PFAL_COEX_MCI_SetOsInit                  0x00010dd8   Data           0  QCA6174_SCAQBAFM.sym ABSOLUTE
    PFAL_RM_HW_CoexistenceGrantRequestMCI    0x00010ddc   Data           0  QCA6174_SCAQBAFM.sym ABSOLUTE
    PFAL_COEX_MCI_BT_CAL_Complete            0x00010de0   Data           0  QCA6174_SCAQBAFM.sym ABSOLUTE
    PFAL_COEX_MCI_ACLInactivityReport        0x00010de4   Data           0  QCA6174_SCAQBAFM.sym ABSOLUTE
    PFAL_COEX_MCI_A2DP_Role                  0x00010de8   Data           0  QCA6174_SCAQBAFM.sym ABSOLUTE
    PFAL_COEX_MWS_Disable_Algorithm          0x00010dec   Data           0  QCA6174_SCAQBAFM.sym ABSOLUTE
    PFAL_COEX_MWS_ProcBandInfo               0x00010df0   Data           0  QCA6174_SCAQBAFM.sym ABSOLUTE
    PFAL_COEX_MWS_Calc_SWITCH_Time           0x00010df4   Data           0  QCA6174_SCAQBAFM.sym ABSOLUTE
    PFAL_COEX_MWS_Get_TargetCLK              0x00010df8   Data           0  QCA6174_SCAQBAFM.sym ABSOLUTE
    PFAL_COEX_MWS_Calc_Delta                 0x00010dfc   Data           0  QCA6174_SCAQBAFM.sym ABSOLUTE
    PFAL_COEX_MWS_Pwr_Backoff_TxPwrLimit_Default 0x00010e00   Data           0  QCA6174_SCAQBAFM.sym ABSOLUTE
    SLC_Timestamp_getArrival                 0x00010e04   Data           0  QCA6174_SCAQBAFM.sym ABSOLUTE
    PFLA_COEX_MWS_A2DP_Pwr_Backoff_Calculation 0x00010e08   Data           0  QCA6174_SCAQBAFM.sym ABSOLUTE
    PFLA_COEX_MWS_eSCO_Pwr_Backoff_Calculation 0x00010e0c   Data           0  QCA6174_SCAQBAFM.sym ABSOLUTE
    PFAL_COEX_MWS_Pwr_Backoff_Timer_handler  0x00010e10   Data           0  QCA6174_SCAQBAFM.sym ABSOLUTE
    PFAL_COEX_MWS_BtTxPwrLimit               0x00010e14   Data           0  QCA6174_SCAQBAFM.sym ABSOLUTE
    PFAL_COEX_MWS_updateAFHMap_4_LTEchan     0x00010e18   Data           0  QCA6174_SCAQBAFM.sym ABSOLUTE
    PFAL_COEX_MWS_HandleLteChanMapUpdate     0x00010e1c   Data           0  QCA6174_SCAQBAFM.sym ABSOLUTE
    LLM_MWS_CP_handleSetLinkPolicySettings   0x00010e20   Data           0  QCA6174_SCAQBAFM.sym ABSOLUTE
    LLM_MWS_CP_handleRoleSwitch2Master       0x00010e24   Data           0  QCA6174_SCAQBAFM.sym ABSOLUTE
    wci2_decode_sync_req                     0x00010e28   Data           0  QCA6174_SCAQBAFM.sym ABSOLUTE
    wci2_decode_sync_resp                    0x00010e2c   Data           0  QCA6174_SCAQBAFM.sym ABSOLUTE
    wci2_decode_tech_update_req              0x00010e30   Data           0  QCA6174_SCAQBAFM.sym ABSOLUTE
    wci2_decode_tech_sync_update_ind         0x00010e34   Data           0  QCA6174_SCAQBAFM.sym ABSOLUTE
    wci2_decode_state_ind                    0x00010e38   Data           0  QCA6174_SCAQBAFM.sym ABSOLUTE
    PFAL_COEX_MWS_DEBUG_PrintfBitMap         0x00010e3c   Data           0  QCA6174_SCAQBAFM.sym ABSOLUTE
    LTE_SubFrameType                         0x00010e40   Data           0  QCA6174_SCAQBAFM.sym ABSOLUTE
    LTE_FreqPowerTable                       0x00010e9c   Data           0  QCA6174_SCAQBAFM.sym ABSOLUTE
    PFAL_COEX_MWS_Pwr_Backoff_Init           0x00010eb4   Data           0  QCA6174_SCAQBAFM.sym ABSOLUTE
    PFAL_COEX_MWS_Pwr_Backoff_Calc_TXFER     0x00010eb8   Data           0  QCA6174_SCAQBAFM.sym ABSOLUTE
    PFAL_COEX_MWS_timer_handle               0x00010ebc   Data           0  QCA6174_SCAQBAFM.sym ABSOLUTE
    PFAL_COEX_MWS_timer2_handle              0x00010ec0   Data           0  QCA6174_SCAQBAFM.sym ABSOLUTE
    MWS_Block_Master_Role_Switch             0x00010ec4   Data           0  QCA6174_SCAQBAFM.sym ABSOLUTE
    MWS_Perform_Role_Switch_2_Master         0x00010ec8   Data           0  QCA6174_SCAQBAFM.sym ABSOLUTE
    wci2_type2_route_received_msg            0x00010ecc   Data           0  QCA6174_SCAQBAFM.sym ABSOLUTE
    wci2_encode_send_sync_req                0x00010ed0   Data           0  QCA6174_SCAQBAFM.sym ABSOLUTE
    wci2_sync_resp_encode_send               0x00010ed4   Data           0  QCA6174_SCAQBAFM.sym ABSOLUTE
    PFAL_COEX_MWS_State_Reset                0x00010ed8   Data           0  QCA6174_SCAQBAFM.sym ABSOLUTE
    PFAL_COEX_MWS_Send_Awake_Event           0x00010edc   Data           0  QCA6174_SCAQBAFM.sym ABSOLUTE
    PF_OS_Init                               0x00010ee0   Data           0  QCA6174_SCAQBAFM.sym ABSOLUTE
    PF_OS_StartTasks                         0x00010ee4   Data           0  QCA6174_SCAQBAFM.sym ABSOLUTE
    PF_OS_DisableScheduling                  0x00010ee8   Data           0  QCA6174_SCAQBAFM.sym ABSOLUTE
    PF_OS_EnableScheduling                   0x00010eec   Data           0  QCA6174_SCAQBAFM.sym ABSOLUTE
    PF_OS_EnableTask                         0x00010ef0   Data           0  QCA6174_SCAQBAFM.sym ABSOLUTE
    PF_OS_SystemPreReset                     0x00010ef4   Data           0  QCA6174_SCAQBAFM.sym ABSOLUTE
    PF_OS_SystemReset                        0x00010ef8   Data           0  QCA6174_SCAQBAFM.sym ABSOLUTE
    PF_OS_SystemReady                        0x00010efc   Data           0  QCA6174_SCAQBAFM.sym ABSOLUTE
    PF_OS_InitFMBPool                        0x00010f00   Data           0  QCA6174_SCAQBAFM.sym ABSOLUTE
    PF_OS_AllocMem                           0x00010f04   Data           0  QCA6174_SCAQBAFM.sym ABSOLUTE
    PF_OS_FreeMem                            0x00010f08   Data           0  QCA6174_SCAQBAFM.sym ABSOLUTE
    PF_OS_EnqueueMsgEx                       0x00010f0c   Data           0  QCA6174_SCAQBAFM.sym ABSOLUTE
    PF_OS_EnqueueMsgEx_LIFO                  0x00010f10   Data           0  QCA6174_SCAQBAFM.sym ABSOLUTE
    PF_OS_EnqueueQueueEx                     0x00010f14   Data           0  QCA6174_SCAQBAFM.sym ABSOLUTE
    PF_OS_DequeueMsgEx                       0x00010f18   Data           0  QCA6174_SCAQBAFM.sym ABSOLUTE
    PF_OS_DequeueMsgExAt                     0x00010f1c   Data           0  QCA6174_SCAQBAFM.sym ABSOLUTE
    PF_OS_FreeAllQueueMsgEx                  0x00010f20   Data           0  QCA6174_SCAQBAFM.sym ABSOLUTE
    PF_OS_FreeNQueueMsgEx                    0x00010f24   Data           0  QCA6174_SCAQBAFM.sym ABSOLUTE
    PF_OS_StartTimer                         0x00010f28   Data           0  QCA6174_SCAQBAFM.sym ABSOLUTE
    PF_OS_StopTimer                          0x00010f2c   Data           0  QCA6174_SCAQBAFM.sym ABSOLUTE
    PF_OS_ProcessTimer                       0x00010f30   Data           0  QCA6174_SCAQBAFM.sym ABSOLUTE
    PF_OS_DequeueTimer                       0x00010f34   Data           0  QCA6174_SCAQBAFM.sym ABSOLUTE
    BT_Utils_DePool_Init                     0x00010f38   Data           0  QCA6174_SCAQBAFM.sym ABSOLUTE
    BT_Utils_DePool_DeInit                   0x00010f3c   Data           0  QCA6174_SCAQBAFM.sym ABSOLUTE
    BT_Utils_DePool_PurgeFront               0x00010f40   Data           0  QCA6174_SCAQBAFM.sym ABSOLUTE
    BT_Utils_DePool_PurgeBack                0x00010f44   Data           0  QCA6174_SCAQBAFM.sym ABSOLUTE
    BT_Utils_DePool_AddFront                 0x00010f48   Data           0  QCA6174_SCAQBAFM.sym ABSOLUTE
    BT_Utils_DePool_AddBack                  0x00010f4c   Data           0  QCA6174_SCAQBAFM.sym ABSOLUTE
    BT_Utils_DePool_DeleteFront              0x00010f50   Data           0  QCA6174_SCAQBAFM.sym ABSOLUTE
    BT_Utils_DePool_DeleteBack               0x00010f54   Data           0  QCA6174_SCAQBAFM.sym ABSOLUTE
    PF_OS_InitMalloc                         0x00010f58   Data           0  QCA6174_SCAQBAFM.sym ABSOLUTE
    PF_OS_Malloc                             0x00010f5c   Data           0  QCA6174_SCAQBAFM.sym ABSOLUTE
    PF_OS_MallocWordAligned                  0x00010f60   Data           0  QCA6174_SCAQBAFM.sym ABSOLUTE
    PF_OS_eMalloc                            0x00010f64   Data           0  QCA6174_SCAQBAFM.sym ABSOLUTE
    PF_OS_eFree                              0x00010f68   Data           0  QCA6174_SCAQBAFM.sym ABSOLUTE
    PF_OS_LogHeapStats                       0x00010f6c   Data           0  QCA6174_SCAQBAFM.sym ABSOLUTE
    PF_PROC_DelayMS                          0x00010f70   Data           0  QCA6174_SCAQBAFM.sym ABSOLUTE
    HCI_SendStatus                           0x00010f74   Data           0  QCA6174_SCAQBAFM.sym ABSOLUTE
    HCI_SendTLVStatus                        0x00010f78   Data           0  QCA6174_SCAQBAFM.sym ABSOLUTE
    HCI_SendVersionString                    0x00010f7c   Data           0  QCA6174_SCAQBAFM.sym ABSOLUTE
    HCI_SendVersionInteger                   0x00010f80   Data           0  QCA6174_SCAQBAFM.sym ABSOLUTE
    HCI_VSSet_VariableRegParameter           0x00010f84   Data           0  QCA6174_SCAQBAFM.sym ABSOLUTE
    HCI_VS_ReadVersionInfo                   0x00010f88   Data           0  QCA6174_SCAQBAFM.sym ABSOLUTE
    HCI_VS_ReadActiveRssi                    0x00010f8c   Data           0  QCA6174_SCAQBAFM.sym ABSOLUTE
    HCI_Process_VSC_BdAddrWriteCmd           0x00010f90   Data           0  QCA6174_SCAQBAFM.sym ABSOLUTE
    HCI_Process_VSC_SetFeatureBit            0x00010f94   Data           0  QCA6174_SCAQBAFM.sym ABSOLUTE
    HCI_Process_VSC_ConfigGpio               0x00010f98   Data           0  QCA6174_SCAQBAFM.sym ABSOLUTE
    HCI_Process_VSC_ReadGpio                 0x00010f9c   Data           0  QCA6174_SCAQBAFM.sym ABSOLUTE
    HCI_Process_VSC_ReadPSdata               0x00010fa0   Data           0  QCA6174_SCAQBAFM.sym ABSOLUTE
    HCI_Process_VSC_WritePSdata              0x00010fa4   Data           0  QCA6174_SCAQBAFM.sym ABSOLUTE
    HCI_IsVSCAllowed                         0x00010fa8   Data           0  QCA6174_SCAQBAFM.sym ABSOLUTE
    HCI_SetLeMultiAdvParamTxPwr_dBm          0x00010fac   Data           0  QCA6174_SCAQBAFM.sym ABSOLUTE
    HCI_SetLeMultiAdvParamTxPower            0x00010fb0   Data           0  QCA6174_SCAQBAFM.sym ABSOLUTE
    HCI_ProcLeMultiAdvInstIdx                0x00010fb4   Data           0  QCA6174_SCAQBAFM.sym ABSOLUTE
    HCI_ProcLeMultiAdvtCmd                   0x00010fb8   Data           0  QCA6174_SCAQBAFM.sym ABSOLUTE
    CFG_HandleVariableConfigParameter        0x00010fbc   Data           0  QCA6174_SCAQBAFM.sym ABSOLUTE
    PFAL_NVM_Parse                           0x00010fc0   Data           0  QCA6174_SCAQBAFM.sym ABSOLUTE
    PFAL_TLV_Start                           0x00010fc4   Data           0  QCA6174_SCAQBAFM.sym ABSOLUTE
    PFAL_TLV_Continue                        0x00010fc8   Data           0  QCA6174_SCAQBAFM.sym ABSOLUTE
    PFAL_TLV_Done                            0x00010fcc   Data           0  QCA6174_SCAQBAFM.sym ABSOLUTE
    PFAL_TLV_Process                         0x00010fd0   Data           0  QCA6174_SCAQBAFM.sym ABSOLUTE
    PFAL_DBG_IsMemoryAccessible              0x00010fd4   Data           0  QCA6174_SCAQBAFM.sym ABSOLUTE
    PFAL_ConfigureModulationPowerLevelOverride 0x00010fd8   Data           0  QCA6174_SCAQBAFM.sym ABSOLUTE
    PFAL_ConfigureExtendedModulationPowerLevelOverride 0x00010fdc   Data           0  QCA6174_SCAQBAFM.sym ABSOLUTE
    PFAL_MemAccess_Command                   0x00010fe0   Data           0  QCA6174_SCAQBAFM.sym ABSOLUTE
    HCI_SendUploadResponse                   0x00010fe4   Data           0  QCA6174_SCAQBAFM.sym ABSOLUTE
    PFAL_DBG_VS_GetBufferForTagReturnEvent   0x00010fe8   Data           0  QCA6174_SCAQBAFM.sym ABSOLUTE
    PFAL_DBG_HostLogCtrl                     0x00010fec   Data           0  QCA6174_SCAQBAFM.sym ABSOLUTE
    Is_LE_BS_StorageParamsValid              0x00010ff0   Data           0  QCA6174_SCAQBAFM.sym ABSOLUTE
    PFAL_DBG_LE_BS_StartScan                 0x00010ff4   Data           0  QCA6174_SCAQBAFM.sym ABSOLUTE
    PFAL_DBG_LE_GetCapabilities              0x00010ff8   Data           0  QCA6174_SCAQBAFM.sym ABSOLUTE
    PFAL_DBG_GetPowerMonitoringInfo          0x00010ffc   Data           0  QCA6174_SCAQBAFM.sym ABSOLUTE
    PFAL_DBG_LE_PrivacyCmd                   0x00011000   Data           0  QCA6174_SCAQBAFM.sym ABSOLUTE
    PFAL_DBG_ADVM_DefinedCmd                 0x00011004   Data           0  QCA6174_SCAQBAFM.sym ABSOLUTE
    FlashAccess                              0x00011008   Data           0  QCA6174_SCAQBAFM.sym ABSOLUTE
    PFAL_DBG_BluetoothCommands               0x0001102c   Data           0  QCA6174_SCAQBAFM.sym ABSOLUTE
    HCI_VendorCommand                        0x00011058   Data           0  QCA6174_SCAQBAFM.sym ABSOLUTE
    PFAL_DBG_SendVSEventWithData             0x0001105c   Data           0  QCA6174_SCAQBAFM.sym ABSOLUTE
    PFAL_DBG_Bluetooth_sendRSSI_ThresholdEvent 0x00011060   Data           0  QCA6174_SCAQBAFM.sym ABSOLUTE
    PFAL_DBG_VS_InstallAppCmdCallback        0x00011064   Data           0  QCA6174_SCAQBAFM.sym ABSOLUTE
    PFAL_DBG_LE_BS_SendStorage_ThresholdEvent 0x00011068   Data           0  QCA6174_SCAQBAFM.sym ABSOLUTE
    PFAL_DBG_LE_OFOL_Send_Notification_Event 0x0001106c   Data           0  QCA6174_SCAQBAFM.sym ABSOLUTE
    PFAL_DBG_ADVM_Send_RSSI_Event            0x00011070   Data           0  QCA6174_SCAQBAFM.sym ABSOLUTE
    PFAL_DBG_ADVM_Send_LE_Monitor_Device_Event 0x00011074   Data           0  QCA6174_SCAQBAFM.sym ABSOLUTE
    PFAL_GPIO_Init                           0x00011078   Data           0  QCA6174_SCAQBAFM.sym ABSOLUTE
    PFAL_GPIO_Mux                            0x0001107c   Data           0  QCA6174_SCAQBAFM.sym ABSOLUTE
    PFAL_GPIO_SetInterruptLevel              0x00011080   Data           0  QCA6174_SCAQBAFM.sym ABSOLUTE
    PFAL_GPIO_SetDirection                   0x00011084   Data           0  QCA6174_SCAQBAFM.sym ABSOLUTE
    PFAL_GPIO_ConfigureInterrupt             0x00011088   Data           0  QCA6174_SCAQBAFM.sym ABSOLUTE
    PFAL_GPIO_EnableInterrupt                0x0001108c   Data           0  QCA6174_SCAQBAFM.sym ABSOLUTE
    PFAL_GPIO_DisableInterrupt               0x00011090   Data           0  QCA6174_SCAQBAFM.sym ABSOLUTE
    PFAL_GPIO_AUDIO_IO_Mux                   0x00011094   Data           0  QCA6174_SCAQBAFM.sym ABSOLUTE
    PFAL_GPIO_SPI_IO_Mux                     0x00011098   Data           0  QCA6174_SCAQBAFM.sym ABSOLUTE
    PFAL_GPIO_I2C_IO_Mux                     0x0001109c   Data           0  QCA6174_SCAQBAFM.sym ABSOLUTE
    PFAL_GPIO_DBG_UART_IO_Mux                0x000110a0   Data           0  QCA6174_SCAQBAFM.sym ABSOLUTE
    PFAL_GPIO_HCI_UART_IO_Mux                0x000110a4   Data           0  QCA6174_SCAQBAFM.sym ABSOLUTE
    PFAL_GPIO_OWI_UART_IO_Mux                0x000110a8   Data           0  QCA6174_SCAQBAFM.sym ABSOLUTE
    PFAL_GPIO_OWI_CheckPinState              0x000110ac   Data           0  QCA6174_SCAQBAFM.sym ABSOLUTE
    PFAL_IM_Init                             0x000110b0   Data           0  QCA6174_SCAQBAFM.sym ABSOLUTE
    PFAL_IM_Connect                          0x000110b4   Data           0  QCA6174_SCAQBAFM.sym ABSOLUTE
    PFAL_IM_ENABLE_IRQ_INT                   0x000110b8   Data           0  QCA6174_SCAQBAFM.sym ABSOLUTE
    PFAL_IM_DISABLE_IRQ_INT                  0x000110bc   Data           0  QCA6174_SCAQBAFM.sym ABSOLUTE
    PFAL_IM_ENABLE_MASK_IRQ_INT              0x000110c0   Data           0  QCA6174_SCAQBAFM.sym ABSOLUTE
    PFAL_IM_DISABLE_MASK_IRQ_INT             0x000110c4   Data           0  QCA6174_SCAQBAFM.sym ABSOLUTE
    PFAL_IM_READ_IRQ_ENABLE                  0x000110c8   Data           0  QCA6174_SCAQBAFM.sym ABSOLUTE
    PFAL_IM_RESTORE_PRI_IRQ_INT              0x000110cc   Data           0  QCA6174_SCAQBAFM.sym ABSOLUTE
    PFAL_OS_Init                             0x000110d0   Data           0  QCA6174_SCAQBAFM.sym ABSOLUTE
    PFAL_OS_SignalEvent                      0x000110d4   Data           0  QCA6174_SCAQBAFM.sym ABSOLUTE
    PFAL_OS_WaitEvents                       0x000110d8   Data           0  QCA6174_SCAQBAFM.sym ABSOLUTE
    PFAL_OS_CreateSemas                      0x000110dc   Data           0  QCA6174_SCAQBAFM.sym ABSOLUTE
    PFAL_OS_GrabSema                         0x000110e0   Data           0  QCA6174_SCAQBAFM.sym ABSOLUTE
    PFAL_OS_ReleaseSema                      0x000110e4   Data           0  QCA6174_SCAQBAFM.sym ABSOLUTE
    PFAL_PATCH_SetHeader                     0x000110e8   Data           0  QCA6174_SCAQBAFM.sym ABSOLUTE
    PFAL_PATCH_Attach                        0x000110ec   Data           0  QCA6174_SCAQBAFM.sym ABSOLUTE
    PFAL_PATCH_GlobalDataInit                0x000110f0   Data           0  QCA6174_SCAQBAFM.sym ABSOLUTE
    PFAL_PATCH_Apply                         0x000110f4   Data           0  QCA6174_SCAQBAFM.sym ABSOLUTE
    PFAL_PATCH_SetRegion                     0x000110f8   Data           0  QCA6174_SCAQBAFM.sym ABSOLUTE
    PFAL_PATCH_GetVersion                    0x000110fc   Data           0  QCA6174_SCAQBAFM.sym ABSOLUTE
    PFAL_PATCH_GetLength                     0x00011100   Data           0  QCA6174_SCAQBAFM.sym ABSOLUTE
    PFAL_PATCH_LoadFromNVM                   0x00011104   Data           0  QCA6174_SCAQBAFM.sym ABSOLUTE
    PFAL_PATCH_StoreToNVM                    0x00011108   Data           0  QCA6174_SCAQBAFM.sym ABSOLUTE
    PFAL_RM_initCfg                          0x0001110c   Data           0  QCA6174_SCAQBAFM.sym ABSOLUTE
    PFAL_RM_initTxCfg_EDR                    0x00011110   Data           0  QCA6174_SCAQBAFM.sym ABSOLUTE
    PFAL_RM_Platform_Wake                    0x00011114   Data           0  QCA6174_SCAQBAFM.sym ABSOLUTE
    PFAL_RM_Platform_PriorToSleep            0x00011118   Data           0  QCA6174_SCAQBAFM.sym ABSOLUTE
    PFAL_RM_initCfgToPlatform                0x0001111c   Data           0  QCA6174_SCAQBAFM.sym ABSOLUTE
    PFAL_RM_setTxPower2GFSK_DEFAULT          0x00011120   Data           0  QCA6174_SCAQBAFM.sym ABSOLUTE
    PFAL_RM_setModemTempCalIndexMapping      0x00011124   Data           0  QCA6174_SCAQBAFM.sym ABSOLUTE
    PFAL_RM_filterCalibrationCode            0x00011128   Data           0  QCA6174_SCAQBAFM.sym ABSOLUTE
    PFAL_RM_temperaturePeriodicCalibration   0x0001112c   Data           0  QCA6174_SCAQBAFM.sym ABSOLUTE
    PFAL_RM_tempRead_UpdateIdxValues         0x00011130   Data           0  QCA6174_SCAQBAFM.sym ABSOLUTE
    PFAL_RM_tempUpdateShadow4Sleep           0x00011134   Data           0  QCA6174_SCAQBAFM.sym ABSOLUTE
    PFAL_RM_tempUpdateShadow2HWRegisters     0x00011138   Data           0  QCA6174_SCAQBAFM.sym ABSOLUTE
    PFAL_RM_tempUpdateHWRegisters            0x0001113c   Data           0  QCA6174_SCAQBAFM.sym ABSOLUTE
    PFAL_RM_temperatureSensorIndexCalc       0x00011140   Data           0  QCA6174_SCAQBAFM.sym ABSOLUTE
    PFAL_RM_temperatureTxCoarseIndexTableUpdate 0x00011144   Data           0  QCA6174_SCAQBAFM.sym ABSOLUTE
    PFAL_RM_temperatureTxFineIndexTableUpdate 0x00011148   Data           0  QCA6174_SCAQBAFM.sym ABSOLUTE
    PFAL_RM_temperatureRxCoarseIndexTableUpdate 0x0001114c   Data           0  QCA6174_SCAQBAFM.sym ABSOLUTE
    PFAL_RM_temperatureRxCoarseIndexTableUpdate_part1 0x00011150   Data           0  QCA6174_SCAQBAFM.sym ABSOLUTE
    PFAL_RM_temperatureRxCoarseIndexTableUpdate_part2 0x00011154   Data           0  QCA6174_SCAQBAFM.sym ABSOLUTE
    PFAL_RM_updateSSBI2_PVC_table            0x00011158   Data           0  QCA6174_SCAQBAFM.sym ABSOLUTE
    PFAL_RM_BT_SSBI_Access                   0x0001115c   Data           0  QCA6174_SCAQBAFM.sym ABSOLUTE
    BT_SSBI_Peek                             0x00011160   Data           0  QCA6174_SCAQBAFM.sym ABSOLUTE
    BT_SSBI_Poke                             0x00011164   Data           0  QCA6174_SCAQBAFM.sym ABSOLUTE
    PFAL_TRANSPORT_Protected_SSBI_Peek       0x00011168   Data           0  QCA6174_SCAQBAFM.sym ABSOLUTE
    PFAL_TRANSPORT_Protected_SSBI_Poke       0x0001116c   Data           0  QCA6174_SCAQBAFM.sym ABSOLUTE
    PFAL_RM_setTxLUT                         0x00011170   Data           0  QCA6174_SCAQBAFM.sym ABSOLUTE
    PFAL_RM_Platform_Config                  0x00011174   Data           0  QCA6174_SCAQBAFM.sym ABSOLUTE
    PFAL_RM_RUN_BT_STARTUP_CALIBRATIONS      0x00011178   Data           0  QCA6174_SCAQBAFM.sym ABSOLUTE
    PFAL_RM_HW_Restore_TxRadioCalRegisters   0x0001117c   Data           0  QCA6174_SCAQBAFM.sym ABSOLUTE
    PFAL_RM_HW_Restore_TxDcCalGainRegisters  0x00011180   Data           0  QCA6174_SCAQBAFM.sym ABSOLUTE
    PFAL_RM_HW_RestoreShadow_TxDcCalGainRegisters 0x00011184   Data           0  QCA6174_SCAQBAFM.sym ABSOLUTE
    PFAL_RM_HW_Restore_RxRSBCalRegisters     0x00011188   Data           0  QCA6174_SCAQBAFM.sym ABSOLUTE
    PFAL_RM_HW_RestoreShadow_RxRSBCalRegisters 0x0001118c   Data           0  QCA6174_SCAQBAFM.sym ABSOLUTE
    PFAL_RM_HW_Setup_TempCalibration         0x00011190   Data           0  QCA6174_SCAQBAFM.sym ABSOLUTE
    PFAL_RM_HW_Configure_BT_Cal_Analog       0x00011194   Data           0  QCA6174_SCAQBAFM.sym ABSOLUTE
    PFAL_RM_HW_StartUpCal_ProcessCornerDiscovery 0x00011198   Data           0  QCA6174_SCAQBAFM.sym ABSOLUTE
    PFAL_RM_HW_getProcessCodes               0x0001119c   Data           0  QCA6174_SCAQBAFM.sym ABSOLUTE
    PFAL_RM_HW_getMOMCoarseFineCorner_MOM_Cap 0x000111a0   Data           0  QCA6174_SCAQBAFM.sym ABSOLUTE
    PFAL_RM_HW_getTxNMOSSVTCorner            0x000111a4   Data           0  QCA6174_SCAQBAFM.sym ABSOLUTE
    PFAL_RM_HW_StartUpCal_TxRadioCalibration 0x000111a8   Data           0  QCA6174_SCAQBAFM.sym ABSOLUTE
    PFAL_RM_HW_StartUpCal_ModemTxDcCalibration 0x000111ac   Data           0  QCA6174_SCAQBAFM.sym ABSOLUTE
    PFAL_RM_HW_EvaluateElapsedTime           0x000111b0   Data           0  QCA6174_SCAQBAFM.sym ABSOLUTE
    PFAL_RM_HW_CheckAvailableCalTime         0x000111b4   Data           0  QCA6174_SCAQBAFM.sym ABSOLUTE
    PFAL_RM_HW_InitializePowerLevelLUTs      0x000111b8   Data           0  QCA6174_SCAQBAFM.sym ABSOLUTE
    PFAL_RM_HW_Disable_TX_DC_and_DC_RSB_Mode 0x000111bc   Data           0  QCA6174_SCAQBAFM.sym ABSOLUTE
    PFAL_RM_HW_Save_TxDcCalGainRegisters     0x000111c0   Data           0  QCA6174_SCAQBAFM.sym ABSOLUTE
    PFAL_RM_HW_Clear_TxDcCalGainRegisters    0x000111c4   Data           0  QCA6174_SCAQBAFM.sym ABSOLUTE
    PFAL_RM_HW_Configure_Tx_Rx_Analog_TxDcCal 0x000111c8   Data           0  QCA6174_SCAQBAFM.sym ABSOLUTE
    PFAL_RM_HW_Configure_Tx_Modem_TxDcCal    0x000111cc   Data           0  QCA6174_SCAQBAFM.sym ABSOLUTE
    PFAL_RM_HW_Configure_Rx_Modem_TxDcCal    0x000111d0   Data           0  QCA6174_SCAQBAFM.sym ABSOLUTE
    PFAL_RM_HW_Measure_DC_Metrics_TxDcCal    0x000111d4   Data           0  QCA6174_SCAQBAFM.sym ABSOLUTE
    PFAL_RM_HW_StartUpCal_TxRSBCalibration   0x000111d8   Data           0  QCA6174_SCAQBAFM.sym ABSOLUTE
    PFAL_RM_HW_Configure_Tx_Rx_Analog_TxRSBCal 0x000111dc   Data           0  QCA6174_SCAQBAFM.sym ABSOLUTE
    PFAL_RM_HW_Configure_Tx_Modem_TxRSBCal   0x000111e0   Data           0  QCA6174_SCAQBAFM.sym ABSOLUTE
    PFAL_RM_HW_Configure_Rx_Modem_TxRSBCal   0x000111e4   Data           0  QCA6174_SCAQBAFM.sym ABSOLUTE
    PFAL_RM_HW_StartUpCal_RxRSBCalibration   0x000111e8   Data           0  QCA6174_SCAQBAFM.sym ABSOLUTE
    PFAL_RM_HW_StartUpCal_ChannelCalibration 0x000111ec   Data           0  QCA6174_SCAQBAFM.sym ABSOLUTE
    PFAL_RM_HW_Rx_DC_Filter_IQ_Corr_Tx_DacInterf 0x000111f0   Data           0  QCA6174_SCAQBAFM.sym ABSOLUTE
    PFAL_RM_HW_Measure_Power_Metrics         0x000111f4   Data           0  QCA6174_SCAQBAFM.sym ABSOLUTE
    PFAL_RM_HW_Compute_R                     0x000111f8   Data           0  QCA6174_SCAQBAFM.sym ABSOLUTE
    PFAL_RM_HW_Set_Tx_IQ_Cor_Coeffs          0x000111fc   Data           0  QCA6174_SCAQBAFM.sym ABSOLUTE
    PFAL_RM_HW_Set_Rx_Analog_Phase_Shift     0x00011200   Data           0  QCA6174_SCAQBAFM.sym ABSOLUTE
    PFAL_RM_HW_Set_Rx_Analog_GM_TIA_and_ADC_Gains 0x00011204   Data           0  QCA6174_SCAQBAFM.sym ABSOLUTE
    PFAL_RM_HW_GainLineup                    0x00011208   Data           0  QCA6174_SCAQBAFM.sym ABSOLUTE
    PFAL_RM_HW_Measure_DC_Metrics            0x0001120c   Data           0  QCA6174_SCAQBAFM.sym ABSOLUTE
    PFAL_RM_HW_Compute_Gain_Phase_IMB_Parameters 0x00011210   Data           0  QCA6174_SCAQBAFM.sym ABSOLUTE
    PFAL_RM_HW_Compute_Rx_IQ_Corr            0x00011214   Data           0  QCA6174_SCAQBAFM.sym ABSOLUTE
    PFAL_RM_HW_Compute_Tx_IQ_Corr            0x00011218   Data           0  QCA6174_SCAQBAFM.sym ABSOLUTE
    PFAL_RM_HW_Combine_Tx_Coeffs             0x0001121c   Data           0  QCA6174_SCAQBAFM.sym ABSOLUTE
    PFAL_RM_HW_Set_Rx_IQ_Cor_Coeffs          0x00011220   Data           0  QCA6174_SCAQBAFM.sym ABSOLUTE
    PFAL_RM_HW_Store_Registers_RxRSBCal      0x00011224   Data           0  QCA6174_SCAQBAFM.sym ABSOLUTE
    PFAL_RM_HW_Configure_Tx_Rx_Analog_RxRSBCal 0x00011228   Data           0  QCA6174_SCAQBAFM.sym ABSOLUTE
    PFAL_RM_HW_Configure_Tx_Modem_RxRSBCal   0x0001122c   Data           0  QCA6174_SCAQBAFM.sym ABSOLUTE
    PFAL_RM_HW_Configure_Rx_Modem_RxRSBCal   0x00011230   Data           0  QCA6174_SCAQBAFM.sym ABSOLUTE
    PFAL_RM_HW_fixLongSettlingTime_LoopbackPath 0x00011234   Data           0  QCA6174_SCAQBAFM.sym ABSOLUTE
    PFAL_RM_HW_RxModemControl                0x00011238   Data           0  QCA6174_SCAQBAFM.sym ABSOLUTE
    PFAL_RM_HW_TxModemControl                0x0001123c   Data           0  QCA6174_SCAQBAFM.sym ABSOLUTE
    PFAL_RM_HW_PowerMetricsControl           0x00011240   Data           0  QCA6174_SCAQBAFM.sym ABSOLUTE
    PFAL_RM_HW_DCMetricsControl              0x00011244   Data           0  QCA6174_SCAQBAFM.sym ABSOLUTE
    PFAL_RM_HW_Set_DC_I_Tx                   0x00011248   Data           0  QCA6174_SCAQBAFM.sym ABSOLUTE
    PFAL_RM_HW_Set_DC_Q_Tx                   0x0001124c   Data           0  QCA6174_SCAQBAFM.sym ABSOLUTE
    PFAL_RM_HW_Turn_OFF_SLNA                 0x00011250   Data           0  QCA6174_SCAQBAFM.sym ABSOLUTE
    PFAL_RM_HW_FixedPointAdd                 0x00011254   Data           0  QCA6174_SCAQBAFM.sym ABSOLUTE
    PFAL_RM_HW_FixedPointSubtract            0x00011258   Data           0  QCA6174_SCAQBAFM.sym ABSOLUTE
    PFAL_RM_HW_Round_Unsigned                0x0001125c   Data           0  QCA6174_SCAQBAFM.sym ABSOLUTE
    PFAL_RM_HW_32BitBoundaryCheckWithResult_Round_Signed 0x00011260   Data           0  QCA6174_SCAQBAFM.sym ABSOLUTE
    PFAL_RM_HW_32BitBoundaryCheckWithResult_Signed 0x00011264   Data           0  QCA6174_SCAQBAFM.sym ABSOLUTE
    PFAL_RM_HW_32BitBoundaryCheckWithResult_Unsigned 0x00011268   Data           0  QCA6174_SCAQBAFM.sym ABSOLUTE
    PFAL_RM_HW_COS                           0x0001126c   Data           0  QCA6174_SCAQBAFM.sym ABSOLUTE
    PFAL_RM_HW_SIN                           0x00011270   Data           0  QCA6174_SCAQBAFM.sym ABSOLUTE
    PFAL_RM_HW_ValidateRegisterReadSignedValue 0x00011274   Data           0  QCA6174_SCAQBAFM.sym ABSOLUTE
    PFAL_RM_RX_Get_Normalized_RSSI_Rome      0x00011278   Data           0  QCA6174_SCAQBAFM.sym ABSOLUTE
    PFAL_RM_RX_Get_Normalized_RSSI_Iris      0x0001127c   Data           0  QCA6174_SCAQBAFM.sym ABSOLUTE
    PFAL_RM_radioDeInit                      0x00011280   Data           0  QCA6174_SCAQBAFM.sym ABSOLUTE
    PFAL_RM_radioWakeup                      0x00011284   Data           0  QCA6174_SCAQBAFM.sym ABSOLUTE
    PFAL_RM_progRegInit                      0x00011288   Data           0  QCA6174_SCAQBAFM.sym ABSOLUTE
    PFAL_RM_temperatureRxFineIndexTableUpdate 0x0001128c   Data           0  QCA6174_SCAQBAFM.sym ABSOLUTE
    PFAL_RM_CalculateCorrelatorThreshold_BREDR 0x00011290   Data           0  QCA6174_SCAQBAFM.sym ABSOLUTE
    PFAL_RM_CalculateCorrelatorThreshold_LE  0x00011294   Data           0  QCA6174_SCAQBAFM.sym ABSOLUTE
    PFAL_RM_CalculateCorrelatorThreshold_ANT 0x00011298   Data           0  QCA6174_SCAQBAFM.sym ABSOLUTE
    PFAL_RM_initLLMPowerLevelIndexMapping    0x0001129c   Data           0  QCA6174_SCAQBAFM.sym ABSOLUTE
    PFAL_RM_rx_Write_SyncInfo                0x000112a0   Data           0  QCA6174_SCAQBAFM.sym ABSOLUTE
    PFAL_RM_restoreHalfChannelTune           0x000112a4   Data           0  QCA6174_SCAQBAFM.sym ABSOLUTE
    PFAL_RM_tx_Write_PowerCfgInfo            0x000112a8   Data           0  QCA6174_SCAQBAFM.sym ABSOLUTE
    PFAL_RM_tx_Write_ModulationInfo          0x000112ac   Data           0  QCA6174_SCAQBAFM.sym ABSOLUTE
    PFAL_RM_configureAnt                     0x000112b0   Data           0  QCA6174_SCAQBAFM.sym ABSOLUTE
    PFAL_RM_SSBI_Init                        0x000112b4   Data           0  QCA6174_SCAQBAFM.sym ABSOLUTE
    PFAL_RM_HW_CoexGrantMCI_CB               0x000112b8   Data           0  QCA6174_SCAQBAFM.sym ABSOLUTE
    PFAL_RM_HW_32BitBoundaryCheckWithResult_noSymShift_Signed 0x000112bc   Data           0  QCA6174_SCAQBAFM.sym ABSOLUTE
    PFAL_RM_HW_ReadPackedBits                0x000112c0   Data           0  QCA6174_SCAQBAFM.sym ABSOLUTE
    PFAL_IM_BT_LPO_CAL_DONE_INT_Handler      0x000112c4   Data           0  QCA6174_SCAQBAFM.sym ABSOLUTE
    PFAL_IM_WAKE_INT_Handler                 0x000112c8   Data           0  QCA6174_SCAQBAFM.sym ABSOLUTE
    PFAL_SLEEP_PowerSaveByGPIO               0x000112cc   Data           0  QCA6174_SCAQBAFM.sym ABSOLUTE
    PFAL_SLEEP_StartClockCalibration         0x000112d0   Data           0  QCA6174_SCAQBAFM.sym ABSOLUTE
    PFAL_SLEEP_EnterNap                      0x000112d4   Data           0  QCA6174_SCAQBAFM.sym ABSOLUTE
    PFAL_SLEEP_SaveContext                   0x000112d8   Data           0  QCA6174_SCAQBAFM.sym ABSOLUTE
    PFAL_SLEEP_RestoreContext                0x000112dc   Data           0  QCA6174_SCAQBAFM.sym ABSOLUTE
    PFAL_SLEEP_Init                          0x000112e0   Data           0  QCA6174_SCAQBAFM.sym ABSOLUTE
    PFAL_SLEEP_PreProcessing                 0x000112e4   Data           0  QCA6174_SCAQBAFM.sym ABSOLUTE
    PFAL_SLEEP_StartWakeupTimer              0x000112e8   Data           0  QCA6174_SCAQBAFM.sym ABSOLUTE
    PFAL_SLEEP_EnterDeepSleep                0x000112ec   Data           0  QCA6174_SCAQBAFM.sym ABSOLUTE
    PFAL_SLEEP_WakeInterruptConnect          0x000112f0   Data           0  QCA6174_SCAQBAFM.sym ABSOLUTE
    PFAL_CFG_Access                          0x000112f4   Data           0  QCA6174_SCAQBAFM.sym ABSOLUTE
    PFAL_SYS_SoCInit                         0x00011304   Data           0  QCA6174_SCAQBAFM.sym ABSOLUTE
    PFAL_SYS_PostResetInit                   0x00011308   Data           0  QCA6174_SCAQBAFM.sym ABSOLUTE
    PFAL_SYS_Reset                           0x0001130c   Data           0  QCA6174_SCAQBAFM.sym ABSOLUTE
    PFAL_SYS_InitBBClk                       0x00011310   Data           0  QCA6174_SCAQBAFM.sym ABSOLUTE
    PFAL_SYS_progClkUsingFreqSelection       0x00011314   Data           0  QCA6174_SCAQBAFM.sym ABSOLUTE
    PFAL_SYS_GPIO_POWERUP_WAKE_ISR           0x00011318   Data           0  QCA6174_SCAQBAFM.sym ABSOLUTE
    PFAL_SYS_GPIO_POWERDOWN_WAKE_ISR         0x0001131c   Data           0  QCA6174_SCAQBAFM.sym ABSOLUTE
    PFAL_SYS_EnableOWIWakeupInt              0x00011320   Data           0  QCA6174_SCAQBAFM.sym ABSOLUTE
    PFAL_SYS_WakeInit                        0x00011324   Data           0  QCA6174_SCAQBAFM.sym ABSOLUTE
    PFAL_SYS_HaltSystemInterrupts            0x00011328   Data           0  QCA6174_SCAQBAFM.sym ABSOLUTE
    PFAL_SYS_initClocks                      0x0001132c   Data           0  QCA6174_SCAQBAFM.sym ABSOLUTE
    PFAL_SYS_requestPowerMode                0x00011330   Data           0  QCA6174_SCAQBAFM.sym ABSOLUTE
    PFAL_SYS_DisableOWIWakeupInt             0x00011334   Data           0  QCA6174_SCAQBAFM.sym ABSOLUTE
    PFAL_SYS_OWIWakeupIntReConfig            0x00011338   Data           0  QCA6174_SCAQBAFM.sym ABSOLUTE
    PFAL_SYS_FreqToRefType                   0x0001133c   Data           0  QCA6174_SCAQBAFM.sym ABSOLUTE
    PFAL_SYS_ClockRegWrite                   0x00011340   Data           0  QCA6174_SCAQBAFM.sym ABSOLUTE
    PFAL_SYS_programClockRegs                0x00011344   Data           0  QCA6174_SCAQBAFM.sym ABSOLUTE
    PFAL_SYS_DFU_Start                       0x00011348   Data           0  QCA6174_SCAQBAFM.sym ABSOLUTE
    PFAL_SYS_EDL_Start                       0x0001134c   Data           0  QCA6174_SCAQBAFM.sym ABSOLUTE
    PFAL_SYS_EDL_UART_fillRxLL               0x00011350   Data           0  QCA6174_SCAQBAFM.sym ABSOLUTE
    PFAL_SYS_EDL_ProcessCommand              0x00011354   Data           0  QCA6174_SCAQBAFM.sym ABSOLUTE
    PFAL_SYS_EDL_SendStatus                  0x00011358   Data           0  QCA6174_SCAQBAFM.sym ABSOLUTE
    PFAL_SYS_EDL_SendTLVStatus               0x0001135c   Data           0  QCA6174_SCAQBAFM.sym ABSOLUTE
    PFAL_SYS_EDL_SendVersionInteger          0x00011360   Data           0  QCA6174_SCAQBAFM.sym ABSOLUTE
    PFAL_SYS_EDL_SendUploadResponse          0x00011364   Data           0  QCA6174_SCAQBAFM.sym ABSOLUTE
    PFAL_SYS_EDL_SendVersion                 0x00011368   Data           0  QCA6174_SCAQBAFM.sym ABSOLUTE
    PFAL_SYS_EDL_SendPeek16Response          0x0001136c   Data           0  QCA6174_SCAQBAFM.sym ABSOLUTE
    PFAL_SYS_EDL_SendCalibrationDatalog      0x00011370   Data           0  QCA6174_SCAQBAFM.sym ABSOLUTE
    PFAL_SYS_EDL_HandleSSBIPeek              0x00011374   Data           0  QCA6174_SCAQBAFM.sym ABSOLUTE
    PFAL_SYS_EDL_HandleSSBIPoke              0x00011378   Data           0  QCA6174_SCAQBAFM.sym ABSOLUTE
    PFAL_SYS_EDL_SendEvent                   0x0001137c   Data           0  QCA6174_SCAQBAFM.sym ABSOLUTE
    PFAL_SYS_EDL_SuperEDL_Init               0x00011380   Data           0  QCA6174_SCAQBAFM.sym ABSOLUTE
    PFAL_SYS_EDL_Rome_TempCal                0x00011384   Data           0  QCA6174_SCAQBAFM.sym ABSOLUTE
    PFAL_SYS_EDL_TempCalOffset_Calc_OTP      0x00011388   Data           0  QCA6174_SCAQBAFM.sym ABSOLUTE
    PFAL_SYS_EDL_ProcessTempCalOffsetCalc    0x0001138c   Data           0  QCA6174_SCAQBAFM.sym ABSOLUTE
    PFAL_SYS_EDL_getTempCalOffset            0x00011390   Data           0  QCA6174_SCAQBAFM.sym ABSOLUTE
    PFAL_SYS_EDL_Read_RawTempCodeOffset_OTP  0x00011394   Data           0  QCA6174_SCAQBAFM.sym ABSOLUTE
    PFAL_SYS_EDL_TempCalOffsetCalc           0x00011398   Data           0  QCA6174_SCAQBAFM.sym ABSOLUTE
    PFAL_SYS_EDL_LPPS                        0x0001139c   Data           0  QCA6174_SCAQBAFM.sym ABSOLUTE
    PFAL_SYS_EDL_LPPS_BIST                   0x000113a0   Data           0  QCA6174_SCAQBAFM.sym ABSOLUTE
    PFAL_SYS_EDL_Rx_BERT_Disable_and_Status  0x000113a4   Data           0  QCA6174_SCAQBAFM.sym ABSOLUTE
    PFAL_SYS_EDL_Rx_BERT_Setup               0x000113a8   Data           0  QCA6174_SCAQBAFM.sym ABSOLUTE
    PFAL_SYS_EDL_Rx_BERT                     0x000113ac   Data           0  QCA6174_SCAQBAFM.sym ABSOLUTE
    PFAL_SYS_EDL_hciReset                    0x000113b0   Data           0  QCA6174_SCAQBAFM.sym ABSOLUTE
    PFAL_SYS_EDL_MemBist                     0x000113b4   Data           0  QCA6174_SCAQBAFM.sym ABSOLUTE
    PFAL_SYS_EDL_RAMBist                     0x000113b8   Data           0  QCA6174_SCAQBAFM.sym ABSOLUTE
    PFAL_SYS_EDL_ROMBist                     0x000113bc   Data           0  QCA6174_SCAQBAFM.sym ABSOLUTE
    PFAL_SYS_EDL_NapTest                     0x000113c0   Data           0  QCA6174_SCAQBAFM.sym ABSOLUTE
    PFAL_SYS_EDL_SleepTest                   0x000113c4   Data           0  QCA6174_SCAQBAFM.sym ABSOLUTE
    PFAL_SYS_EDL_PCMLoopback                 0x000113c8   Data           0  QCA6174_SCAQBAFM.sym ABSOLUTE
    PFAL_UART_IOP_Init                       0x000113cc   Data           0  QCA6174_SCAQBAFM.sym ABSOLUTE
    PFAL_UART_IOP_RunSetup                   0x000113d0   Data           0  QCA6174_SCAQBAFM.sym ABSOLUTE
    PFAL_UART_IOP_RunTxRx                    0x000113d4   Data           0  QCA6174_SCAQBAFM.sym ABSOLUTE
    PFAL_UART_IOP_StartTxRx                  0x000113d8   Data           0  QCA6174_SCAQBAFM.sym ABSOLUTE
    PFAL_UART_CalculateBaudRegisters         0x000113dc   Data           0  QCA6174_SCAQBAFM.sym ABSOLUTE
    PFAL_UART_CalculateRefClk                0x000113e0   Data           0  QCA6174_SCAQBAFM.sym ABSOLUTE
    PFAL_IM_BTC_CLKN_CMPR0_INT_Handler       0x000113e4   Data           0  QCA6174_SCAQBAFM.sym ABSOLUTE
    PFAL_IM_BTC_CLKN_CMPR1_INT_Handler       0x000113e8   Data           0  QCA6174_SCAQBAFM.sym ABSOLUTE
    PFAL_IM_ACI_TX_INT_Handler               0x000113ec   Data           0  QCA6174_SCAQBAFM.sym ABSOLUTE
    PFAL_VOICE_UpdateSettings                0x000113f0   Data           0  QCA6174_SCAQBAFM.sym ABSOLUTE
    PFAL_VOICE_UpdateChan                    0x000113f4   Data           0  QCA6174_SCAQBAFM.sym ABSOLUTE
    PFAL_VOICE_AudioSpkrISR                  0x000113f8   Data           0  QCA6174_SCAQBAFM.sym ABSOLUTE
    PFAL_VOICE_AudioMicISR                   0x000113fc   Data           0  QCA6174_SCAQBAFM.sym ABSOLUTE
    PFAL_VOICE_ErroneousDataProcess1Packet   0x00011400   Data           0  QCA6174_SCAQBAFM.sym ABSOLUTE
    PFAL_VOICE_ErroneousDataProcess2Packets  0x00011404   Data           0  QCA6174_SCAQBAFM.sym ABSOLUTE
    PFAL_VOICE_ErroneousDataProcess3Packets  0x00011408   Data           0  QCA6174_SCAQBAFM.sym ABSOLUTE
    PFAL_VOICE_Init                          0x0001140c   Data           0  QCA6174_SCAQBAFM.sym ABSOLUTE
    PFAL_VOICE_AllocChan                     0x00011410   Data           0  QCA6174_SCAQBAFM.sym ABSOLUTE
    PFAL_VOICE_FreeChan                      0x00011414   Data           0  QCA6174_SCAQBAFM.sym ABSOLUTE
    PFAL_VOICE_StopChan                      0x00011418   Data           0  QCA6174_SCAQBAFM.sym ABSOLUTE
    PFAL_VOICE_SetupNextAudioSpkrInterrupt   0x0001141c   Data           0  QCA6174_SCAQBAFM.sym ABSOLUTE
    PFAL_VOICE_SetupNextAudioMicInterrupt    0x00011420   Data           0  QCA6174_SCAQBAFM.sym ABSOLUTE
    PFAL_VOICE_RxErroneousDataProcess        0x00011424   Data           0  QCA6174_SCAQBAFM.sym ABSOLUTE
    PFAL_VOICE_BasebandProcessingNonRT       0x00011428   Data           0  QCA6174_SCAQBAFM.sym ABSOLUTE
    PFAL_VOICE_ScoTxData                     0x0001142c   Data           0  QCA6174_SCAQBAFM.sym ABSOLUTE
    PFAL_VOICE_ScoRxData                     0x00011430   Data           0  QCA6174_SCAQBAFM.sym ABSOLUTE
    PFAL_VOICE_ScoRxDataNotify               0x00011434   Data           0  QCA6174_SCAQBAFM.sym ABSOLUTE
    PFAL_VOICE_LogData                       0x00011438   Data           0  QCA6174_SCAQBAFM.sym ABSOLUTE
    PFAL_VOICE_setHandoffPending             0x0001143c   Data           0  QCA6174_SCAQBAFM.sym ABSOLUTE
    PFAL_VOICE_doResourceHandoff             0x00011440   Data           0  QCA6174_SCAQBAFM.sym ABSOLUTE
    PFAL_VOICE_ScoTxSilence                  0x00011444   Data           0  QCA6174_SCAQBAFM.sym ABSOLUTE
    PFAL_VOICE_SetLoopbackMode               0x00011448   Data           0  QCA6174_SCAQBAFM.sym ABSOLUTE
    PFAL_VOICE_GetLoopbackMode               0x0001144c   Data           0  QCA6174_SCAQBAFM.sym ABSOLUTE
    PFAL_VOICE_HCI_SCO_Init_Buffs            0x00011450   Data           0  QCA6174_SCAQBAFM.sym ABSOLUTE
    PFAL_VOICE_HCI_SCO_Set_Conn_Handle       0x00011454   Data           0  QCA6174_SCAQBAFM.sym ABSOLUTE
    PFAL_VOICE_HCI_SCO_Config                0x00011458   Data           0  QCA6174_SCAQBAFM.sym ABSOLUTE
    PFAL_VOICE_HCI_SCO_Set_Payload_Size      0x0001145c   Data           0  QCA6174_SCAQBAFM.sym ABSOLUTE
    PFAL_VOICE_HCI_SCO_Set_Transport         0x00011460   Data           0  QCA6174_SCAQBAFM.sym ABSOLUTE
    smplSinkSource                           0x00011464   Data           0  QCA6174_SCAQBAFM.sym ABSOLUTE
    scoSinkSource                            0x0001149c   Data           0  QCA6174_SCAQBAFM.sym ABSOLUTE
    PFAL_VOICE_HCI_SCO_Init                  0x000114ac   Data           0  QCA6174_SCAQBAFM.sym ABSOLUTE
    PFAL_OTP_Write                           0x000114b0   Data           0  QCA6174_SCAQBAFM.sym ABSOLUTE
    PFAL_FS_SetDevFunctions                  0x000114b4   Data           0  QCA6174_SCAQBAFM.sym ABSOLUTE
    PFAL_FS_FileName2ID                      0x000114b8   Data           0  QCA6174_SCAQBAFM.sym ABSOLUTE
    PFAL_FS_LoadFsInfo                       0x000114bc   Data           0  QCA6174_SCAQBAFM.sym ABSOLUTE
    PFAL_FS_Recycle                          0x000114c0   Data           0  QCA6174_SCAQBAFM.sym ABSOLUTE
    PFAL_FS_DataBlkAligned                   0x000114c4   Data           0  QCA6174_SCAQBAFM.sym ABSOLUTE
    PFAL_FS_GetFreeMem                       0x000114c8   Data           0  QCA6174_SCAQBAFM.sym ABSOLUTE
    PFAL_FS_Init                             0x000114cc   Data           0  QCA6174_SCAQBAFM.sym ABSOLUTE
    PFAL_FS_CreateFile                       0x000114d0   Data           0  QCA6174_SCAQBAFM.sym ABSOLUTE
    PFAL_FS_DeleteFile                       0x000114d4   Data           0  QCA6174_SCAQBAFM.sym ABSOLUTE
    PFAL_FS_OpenFile                         0x000114d8   Data           0  QCA6174_SCAQBAFM.sym ABSOLUTE
    PFAL_FS_GetFileLen                       0x000114dc   Data           0  QCA6174_SCAQBAFM.sym ABSOLUTE
    PFAL_FS_WriteFile                        0x000114e0   Data           0  QCA6174_SCAQBAFM.sym ABSOLUTE
    PFAL_FS_ReadFile                         0x000114e4   Data           0  QCA6174_SCAQBAFM.sym ABSOLUTE
    PFAL_FS_CloseFile                        0x000114e8   Data           0  QCA6174_SCAQBAFM.sym ABSOLUTE
    PFAL_FS_Format                           0x000114ec   Data           0  QCA6174_SCAQBAFM.sym ABSOLUTE
    TempReverseWriteByteArray                0x000114f0   Data           0  QCA6174_SCAQBAFM.sym ABSOLUTE
    PFAL_LC_CRYPTO_Hlr                       0x000114f4   Data           0  QCA6174_SCAQBAFM.sym ABSOLUTE
    PFAL_LC_CRYPTO_WriteKeyReverseOrder      0x00011528   Data           0  QCA6174_SCAQBAFM.sym ABSOLUTE
    PFAL_LC_CRYPTO_Platform_Init             0x0001152c   Data           0  QCA6174_SCAQBAFM.sym ABSOLUTE
    PFAL_LC_Start                            0x00011530   Data           0  QCA6174_SCAQBAFM.sym ABSOLUTE
    PFAL_LC_hlstSLC_ContextSwitch            0x00011534   Data           0  QCA6174_SCAQBAFM.sym ABSOLUTE
    PFAL_LC_hlstMConnEntry                   0x00011538   Data           0  QCA6174_SCAQBAFM.sym ABSOLUTE
    PFAL_LC_hlstMConnSyncEval                0x0001153c   Data           0  QCA6174_SCAQBAFM.sym ABSOLUTE
    PFAL_LC_hlstMConnRxHdr1                  0x00011540   Data           0  QCA6174_SCAQBAFM.sym ABSOLUTE
    PFAL_LC_hlstMConnRxHdr2                  0x00011544   Data           0  QCA6174_SCAQBAFM.sym ABSOLUTE
    PFAL_LC_hlstMConnRxHdrDone               0x00011548   Data           0  QCA6174_SCAQBAFM.sym ABSOLUTE
    PFAL_LC_hlstMConnRxSlot                  0x0001154c   Data           0  QCA6174_SCAQBAFM.sym ABSOLUTE
    PFAL_LC_hlstMConnTxSlot                  0x00011550   Data           0  QCA6174_SCAQBAFM.sym ABSOLUTE
    PFAL_LC_hlstMConnSkipTx                  0x00011554   Data           0  QCA6174_SCAQBAFM.sym ABSOLUTE
    PFAL_LC_hlstMConnDummy5                  0x00011558   Data           0  QCA6174_SCAQBAFM.sym ABSOLUTE
    PFAL_LC_hlstMConnSkipRx                  0x0001155c   Data           0  QCA6174_SCAQBAFM.sym ABSOLUTE
    PFAL_LC_hlstEBCASync                     0x00011560   Data           0  QCA6174_SCAQBAFM.sym ABSOLUTE
    PFAL_LC_hlstEBCAEntry                    0x00011564   Data           0  QCA6174_SCAQBAFM.sym ABSOLUTE
    PFAL_LC_hlstEBCADone                     0x00011568   Data           0  QCA6174_SCAQBAFM.sym ABSOLUTE
    PFAL_LC_hlstMConnDummy2                  0x0001156c   Data           0  QCA6174_SCAQBAFM.sym ABSOLUTE
    PFAL_LC_hlstMContextSwitchLC             0x00011570   Data           0  QCA6174_SCAQBAFM.sym ABSOLUTE
    PFAL_LC_hlstIDScanSync                   0x00011574   Data           0  QCA6174_SCAQBAFM.sym ABSOLUTE
    PFAL_LC_hlstIDScanEntry                  0x00011578   Data           0  QCA6174_SCAQBAFM.sym ABSOLUTE
    PFAL_LC_hlstIDScanRxSearch               0x0001157c   Data           0  QCA6174_SCAQBAFM.sym ABSOLUTE
    PFAL_LC_hlstIDScanWaitPreSlot            0x00011580   Data           0  QCA6174_SCAQBAFM.sym ABSOLUTE
    PFAL_LC_hlstIDScanWaitLC                 0x00011584   Data           0  QCA6174_SCAQBAFM.sym ABSOLUTE
    PFAL_LC_hlstIDScanWaitRx                 0x00011588   Data           0  QCA6174_SCAQBAFM.sym ABSOLUTE
    PFAL_LC_hlstIDScanWaitExtTx              0x0001158c   Data           0  QCA6174_SCAQBAFM.sym ABSOLUTE
    PFAL_LC_hlstIDScanAssocNotifyWaitPreSlotRx 0x00011590   Data           0  QCA6174_SCAQBAFM.sym ABSOLUTE
    PFAL_LC_hlstIDScanAssocNotifyWaitRx      0x00011594   Data           0  QCA6174_SCAQBAFM.sym ABSOLUTE
    PFAL_LC_hlstIDScanAssocNotifyRxHdr       0x00011598   Data           0  QCA6174_SCAQBAFM.sym ABSOLUTE
    PFAL_LC_hlstIDScanAssocNotifyTx          0x0001159c   Data           0  QCA6174_SCAQBAFM.sym ABSOLUTE
    PFAL_LC_hlstSConnEntry                   0x000115a0   Data           0  QCA6174_SCAQBAFM.sym ABSOLUTE
    PFAL_LC_hlstSConnSyncSetup               0x000115a4   Data           0  QCA6174_SCAQBAFM.sym ABSOLUTE
    PFAL_LC_hlstSConnSkipTxD                 0x000115a8   Data           0  QCA6174_SCAQBAFM.sym ABSOLUTE
    PFAL_LC_hlstSConnSkipTx                  0x000115ac   Data           0  QCA6174_SCAQBAFM.sym ABSOLUTE
    PFAL_LC_hlstSConnSyncRx                  0x000115b0   Data           0  QCA6174_SCAQBAFM.sym ABSOLUTE
    PFAL_LC_hlstSConnEnterRxAck              0x000115b4   Data           0  QCA6174_SCAQBAFM.sym ABSOLUTE
    PFAL_LC_hlstSConnEnterRx                 0x000115b8   Data           0  QCA6174_SCAQBAFM.sym ABSOLUTE
    PFAL_LC_hlstSConnRxHdr1                  0x000115bc   Data           0  QCA6174_SCAQBAFM.sym ABSOLUTE
    PFAL_LC_hlstSConnRxHdr2                  0x000115c0   Data           0  QCA6174_SCAQBAFM.sym ABSOLUTE
    PFAL_LC_hlstSConnRxHdrDone               0x000115c4   Data           0  QCA6174_SCAQBAFM.sym ABSOLUTE
    PFAL_LC_hlstSConnSwitchOnPreslot         0x000115c8   Data           0  QCA6174_SCAQBAFM.sym ABSOLUTE
    PFAL_LC_hlstSConnRxSlot                  0x000115cc   Data           0  QCA6174_SCAQBAFM.sym ABSOLUTE
    PFAL_LC_hlstSConnDummy                   0x000115d0   Data           0  QCA6174_SCAQBAFM.sym ABSOLUTE
    PFAL_LC_hlstSConnTxSlot                  0x000115d4   Data           0  QCA6174_SCAQBAFM.sym ABSOLUTE
    PFAL_LC_hlstSConnTxPreSlot               0x000115d8   Data           0  QCA6174_SCAQBAFM.sym ABSOLUTE
    PFAL_LC_hlstSConnTxLC                    0x000115dc   Data           0  QCA6174_SCAQBAFM.sym ABSOLUTE
    PFAL_LC_hlstDataScanEntry                0x000115e0   Data           0  QCA6174_SCAQBAFM.sym ABSOLUTE
    PFAL_LC_hlstDataScanSync                 0x000115e4   Data           0  QCA6174_SCAQBAFM.sym ABSOLUTE
    PFAL_LC_hlstDataScanScan                 0x000115e8   Data           0  QCA6174_SCAQBAFM.sym ABSOLUTE
    PFAL_LC_hlstDataScanRetry                0x000115ec   Data           0  QCA6174_SCAQBAFM.sym ABSOLUTE
    PFAL_LC_hlstDataScanReSync               0x000115f0   Data           0  QCA6174_SCAQBAFM.sym ABSOLUTE
    PFAL_LC_hlstDataScanNotAlive             0x000115f4   Data           0  QCA6174_SCAQBAFM.sym ABSOLUTE
    PFAL_LC_hlstLE_TxSyncEval                0x000115f8   Data           0  QCA6174_SCAQBAFM.sym ABSOLUTE
    PFAL_LC_hlstLE_DataScanEntry             0x000115fc   Data           0  QCA6174_SCAQBAFM.sym ABSOLUTE
    PFAL_LC_hlstLE_DataScanSync              0x00011600   Data           0  QCA6174_SCAQBAFM.sym ABSOLUTE
    PFAL_LC_hlstLE_DataScanScan              0x00011604   Data           0  QCA6174_SCAQBAFM.sym ABSOLUTE
    PFAL_LC_State_LE_setAbortFlag            0x00011608   Data           0  QCA6174_SCAQBAFM.sym ABSOLUTE
    PFAL_LC_State_LE_checkAbortFlag          0x0001160c   Data           0  QCA6174_SCAQBAFM.sym ABSOLUTE
    PFAL_LC_hlstLE_Rx                        0x00011610   Data           0  QCA6174_SCAQBAFM.sym ABSOLUTE
    PFAL_LC_hlstLE_Tx                        0x00011614   Data           0  QCA6174_SCAQBAFM.sym ABSOLUTE
    PFAL_LC_hlstLE_ExitLE                    0x00011618   Data           0  QCA6174_SCAQBAFM.sym ABSOLUTE
    PFAL_LC_hlstLE_TestModeEntry             0x0001161c   Data           0  QCA6174_SCAQBAFM.sym ABSOLUTE
    PFAL_LC_hlstLE_TestModeActive            0x00011620   Data           0  QCA6174_SCAQBAFM.sym ABSOLUTE
    PFAL_LC_hlstLE_TestModeRxScan            0x00011624   Data           0  QCA6174_SCAQBAFM.sym ABSOLUTE
    PFAL_LC_hlstLE_TestModeRx                0x00011628   Data           0  QCA6174_SCAQBAFM.sym ABSOLUTE
    PFAL_LC_LE_exitTestMode                  0x0001162c   Data           0  QCA6174_SCAQBAFM.sym ABSOLUTE
    PFAL_LC_hlstANT_FrameEntry               0x00011630   Data           0  QCA6174_SCAQBAFM.sym ABSOLUTE
    PFAL_LC_hlstANT_FrameSyncEval            0x00011634   Data           0  QCA6174_SCAQBAFM.sym ABSOLUTE
    PFAL_LC_hlstANT_FrameTxRx                0x00011638   Data           0  QCA6174_SCAQBAFM.sym ABSOLUTE
    PFAL_LC_ANT_exitFrame                    0x0001163c   Data           0  QCA6174_SCAQBAFM.sym ABSOLUTE
    PFAL_LC_hlstANT_RescheduleEntry          0x00011640   Data           0  QCA6174_SCAQBAFM.sym ABSOLUTE
    PFAL_LC_hlstANT_RescheduleExit           0x00011644   Data           0  QCA6174_SCAQBAFM.sym ABSOLUTE
    PFAL_LC_hlstSyncTrainScanEntry           0x00011648   Data           0  QCA6174_SCAQBAFM.sym ABSOLUTE
    PFAL_LC_hlstSyncTrainScanSync            0x0001164c   Data           0  QCA6174_SCAQBAFM.sym ABSOLUTE
    PFAL_LC_hlstSyncTrainScanScan            0x00011650   Data           0  QCA6174_SCAQBAFM.sym ABSOLUTE
    PFAL_LC_hlstSyncTrainScanDone            0x00011654   Data           0  QCA6174_SCAQBAFM.sym ABSOLUTE
    PFAL_LC_State_patch_hook                 0x00011658   Data           0  QCA6174_SCAQBAFM.sym ABSOLUTE
    PFAL_LC_AbortFrame                       0x0001165c   Data           0  QCA6174_SCAQBAFM.sym ABSOLUTE
    CFG_BT_Init                              0x00011660   Data           0  QCA6174_SCAQBAFM.sym ABSOLUTE
    CFG_BT_GetConfigParameterInfo            0x00011664   Data           0  QCA6174_SCAQBAFM.sym ABSOLUTE
    CFG_BT_GetTagEntry                       0x00011668   Data           0  QCA6174_SCAQBAFM.sym ABSOLUTE
    CFG_Voice_Init                           0x0001166c   Data           0  QCA6174_SCAQBAFM.sym ABSOLUTE
    CFG_Voice_GetConfigParameterInfo         0x00011670   Data           0  QCA6174_SCAQBAFM.sym ABSOLUTE
    CFG_Voice_GetTagEntry                    0x00011674   Data           0  QCA6174_SCAQBAFM.sym ABSOLUTE
    TaskConstTable                           0x00011678   Data           0  QCA6174_SCAQBAFM.sym ABSOLUTE
    TimerConstTable                          0x00011708   Data           0  QCA6174_SCAQBAFM.sym ABSOLUTE
    PF_OS_AllocateStaticFMB                  0x00011c08   Data           0  QCA6174_SCAQBAFM.sym ABSOLUTE
    PF_DBG_Init                              0x00011c0c   Data           0  QCA6174_SCAQBAFM.sym ABSOLUTE
    PF_DBG_InitHW                            0x00011c10   Data           0  QCA6174_SCAQBAFM.sym ABSOLUTE
    PF_DBG_StartLogger                       0x00011c14   Data           0  QCA6174_SCAQBAFM.sym ABSOLUTE
    PF_DBG_LogTransmitQueuedData             0x00011c18   Data           0  QCA6174_SCAQBAFM.sym ABSOLUTE
    PF_DBG_LogEnqueueData                    0x00011c1c   Data           0  QCA6174_SCAQBAFM.sym ABSOLUTE
    PF_DBG_LogEnqueueHdr                     0x00011c20   Data           0  QCA6174_SCAQBAFM.sym ABSOLUTE
    PF_DBG_SendLogEventToHost                0x00011c24   Data           0  QCA6174_SCAQBAFM.sym ABSOLUTE
    BKGD_init                                0x00011c28   Data           0  QCA6174_SCAQBAFM.sym ABSOLUTE
    BKGD_TimerPeriodEval                     0x00011c2c   Data           0  QCA6174_SCAQBAFM.sym ABSOLUTE
    BKGD_DisplayData                         0x00011c30   Data           0  QCA6174_SCAQBAFM.sym ABSOLUTE
    BKGD_DisplayDataLL                       0x00011c34   Data           0  QCA6174_SCAQBAFM.sym ABSOLUTE
    BKGD_LogData                             0x00011c38   Data           0  QCA6174_SCAQBAFM.sym ABSOLUTE
    BKGD_InitSDBloggerCounters               0x00011c3c   Data           0  QCA6174_SCAQBAFM.sym ABSOLUTE
    BKGD_DisplayDataUL                       0x00011c40   Data           0  QCA6174_SCAQBAFM.sym ABSOLUTE
    BKGD_SystemReady                         0x00011c44   Data           0  QCA6174_SCAQBAFM.sym ABSOLUTE
    BKGD_PreReset                            0x00011c48   Data           0  QCA6174_SCAQBAFM.sym ABSOLUTE
    BKGD_Reset                               0x00011c4c   Data           0  QCA6174_SCAQBAFM.sym ABSOLUTE
    BKGD_ActivityFreqSet                     0x00011c50   Data           0  QCA6174_SCAQBAFM.sym ABSOLUTE
    BKGD_ProcE_DATA_READY                    0x00011c54   Data           0  QCA6174_SCAQBAFM.sym ABSOLUTE
    HCI_ProcE_LL2HCI_ACL_MSG                 0x00011c58   Data           0  QCA6174_SCAQBAFM.sym ABSOLUTE
    HCI_GetNextAclPkt                        0x00011c5c   Data           0  QCA6174_SCAQBAFM.sym ABSOLUTE
    HCI_FindValidAclPkt                      0x00011c60   Data           0  QCA6174_SCAQBAFM.sym ABSOLUTE
    HCI_ProcessResetCommand                  0x00011c64   Data           0  QCA6174_SCAQBAFM.sym ABSOLUTE
    UpdateFlowControlData                    0x00011c68   Data           0  QCA6174_SCAQBAFM.sym ABSOLUTE
